:020000040000FA
:1000000067EF00F0010000000A000000640000003B
:10001000E803000010270000A086010040420F0006
:100020008096980000E1F50500CA9A3B2D2D204CE2
:1000300044522073616D706C65202D2D4C6967688A
:10004000742076616C75653A2000200E706F646BC9
:10005000656B666B676BD8906C376D376E376F3733
:10006000D8906037613762376337643765376637F2
:10007000673767516B5DD8A44AEF00F066516A5D3F
:10008000D8A44AEF00F06551695DD8A44AEF00F0AA
:100090006451685DD8B450EF00F0D8B05EEF00F066
:1000A000D88064516855646F65516955656F6651B4
:1000B0006A55666F67516B55676F6C81702F2BEFB8
:1000C00000F01200FB6E7351FA6E7251F96E9B8C48
:1000D0000001A10E606F300E616F612F6DEF00F0B7
:1000E000602F6BEF00F00001010E606F602F76EF64
:1000F00000F000000000FF0E0F01486FFF0E496F77
:10010000C26AC16AD26AD16A256BD8EF00F0AC6FBF
:10011000AC51D8B41200010EAC5DD8A497EF00F03A
:100120000001230E606F602F93EF00F01200AC0708
:1001300000011F0E606F602F9BEF00F0AC51AD6FA0
:10014000AE6BAAEF00F00001270E606F602FA6EFE4
:1001500000F0AE2BAE51AD5DD8A4A3EF00F01200BD
:10016000A651A86FA751A96FAA6BAB6BCEEF00F099
:100170000001720E606F9F0E616FDB0E626F622F67
:10018000BFEF00F0612FBDEF00F0602FBBEF00F07C
:10019000000000000000AA2BD8B4AB2BAA51A85D28
:1001A000606FAB51A95D6011D8A4B8EF00F01200E8
:1001B0009494F7EF00F07E86AD84E10EB06E040EED
:1001C0007F6E1200DBEC00F09D9A9D98AD8A900E38
:1001D000AC6E1200776F9EA8EBEF00F07751AE6E19
:1001E000120000016051766F7651EAEF00F0E2EC08
:1001F00000F07EEF02F00D0E606F9751726F985114
:10020000736F995162EC00F00A0E0001606F975114
:10021000726F9851736F995162EF00F08D51926F28
:100220008E51936F9251956F9351966F946B31EFFE
:1002300001F08F519425F66E000E5E6E90515E2097
:10024000F76E91515E20F86EF89C0900F550606FD2
:100250008A51726F8B51736F8C5162EC00F0000108
:10026000942B9451955D606F96516011D8A419EF4D
:1002700001F0120085519A6F86519B6F87519C6FD8
:1002800088519D6F89519E6F9F6BA06B040E49EF43
:1002900001F0A16F9D519E119F11A011D8A45AEF9A
:1002A00001F0300E606F9A51726F9B51736F9C51C9
:1002B00062EF00F0A581A151800A606F800E605D41
:1002C000D8B466EF01F0D8A022EF02F0D890A135A3
:1002D000A36FD890A337040EF66E000EF76E000ED3
:1002E000F86EA351F626000EA3BFFF0E5E6E5E50A1
:1002F000F7225E50F8220900F550606F0900F550B2
:10030000616F0900F550626F0900F550636FA051ED
:10031000635DD8A498EF01F09F51625DD8A498EF77
:1003200001F09E51615DD8A498EF01F09D51605D90
:10033000D8B49EEF01F0D8B002EF02F0D890A1350A
:10034000A46FD890A437040EF66E000EF76E000E60
:10035000F86EA451F626000EA4BFFF0E5E6E5E502E
:10036000F7225E50F8220900F550686F0900F55039
:10037000696F0900F5506A6F0900F5506B6F9D5168
:10038000606F9E51616F9F51626FA051636F25EC4A
:1003900000F000016C51A26FD890A135A36FD890E6
:1003A000A337040EF66E000EF76E000EF86EA35122
:1003B000F626000EA3BFFF0E5E6E5E50F7225E5063
:1003C000F8220900F550686F0900F550696F0900BF
:1003D000F5506A6F0900F5506B6F9D51606F9E512B
:1003E000616F9F51626FA051636F25EC00F00001B7
:1003F00064519D6F65519E6F66519F6F6751A06FED
:1004000003EF02F0A26BA107A251A589D8B4A59968
:10041000A59BA5A1A58BA59DA5A9A5BBA58DA5ADB2
:100420005BEF01F0300EA211A36FA351606F9A51E0
:10043000726F9B51736F9C5162EC00F00001A591AB
:100440005BEF01F012001200846F8451D8A42CEFEE
:1004500002F00F0148919280010E0001845DD8A442
:1004600035EF02F00F0148939282020E0001845D85
:10047000D8A43EEF02F00F0148959284030E0001CC
:10048000845DD8A447EF02F00F0148979286040ECE
:100490000001845DD8A450EF02F00F014899928AC0
:1004A000080E0001845DD8A459EF02F00F014991B4
:1004B0009384090E0001845DD8A462EF02F00F015D
:1004C000499393860A0E0001845DD8A46BEF02F075
:1004D0000F01499593820B0E0001845DD8A474EF3F
:1004E00002F00F01499794840C0E0001845DD8A49A
:1004F0007DEF02F00F014999938012000001756BA6
:10050000C5EF02F0826F8235606F60373C0E601776
:10051000C30EC2146011C26EC280795187EC00F024
:10052000C282C2B291EF02F0C4500001836F810E0B
:10053000785DD8B49FEF02F0D8A0AEEF02F00001D2
:100540000B0E606FB40E616F612FA4EF02F0602F8D
:10055000A2EF02F000000000B4EF02F000013F0E35
:10056000606F602FB1EF02F0C29083511200000162
:100570007F6F7F5182EC02F00001816FC350806F6A
:100580008051606F8151616F12007C6B7C31606FB4
:1005900060336031606FC00E60173F0EC21460118F
:1005A000C26EC18E080E7D6F7E6B0D0E7D6F7E6BF1
:1005B000F80EC1140609C16E7D51786FC70EC116C1
:1005C0000E0E796F040E24EC02F000017A6B7B6B47
:1005D000E20E8A6F010E8B6F000E8C6F100E8D6F06
:1005E0008E6B2C0E8F6F000E906F000E4009916F76
:1005F0000EEC01F0E20E0001976F010E986F000EF5
:10060000996FFBEC00F0E20E0001976F010E986FFE
:10061000000E996FFBEC00F08B84040EB7EC02F037
:10062000000160517A6F61517B6FE20E8A6F010E9B
:100630008B6F000E8C6F0D0E8D6F8E6B3C0E8F6F5F
:10064000000E906F000E4009916F0EEC01F0E20E6B
:100650000001856F010E866F000E876F7A51886FDB
:100660007B51896F3AEC01F0E20E0001976F010EA9
:10067000986F000E996FFBEC00F08B94010E000157
:0C068000A66FA76BB0EC00F00CEF03F0CD
:020000040001F9
:08FFF800F8F7DDFFFFF000F057
:00000001FF
