:020000040000FA
:040000002AEF00F0F3
:0800080000016051646F6151B9
:10001000656F9BEF02F00003020500030501040673
:100020000204080E686F616BD8906337D890603710
:1000300061376151625DD8B421EF00F0D8B026EF8E
:1000400000F0D88061516255616F6381682F14EFB1
:1000500000F012009B8C0001A10E606F300E616FEA
:10006000612F30EF00F0602F2EEF00F00001010E45
:10007000606F602F39EF00F000000000FF0E0F01ED
:10008000486FFF0E496FC26AC16AD26AD16A256B96
:10009000A380F28EF28C6DEF00F06A516C6F6B51A1
:1000A0006D6F6E6B6F6B63EF00F00001FF0E606FA2
:1000B0000E0E616F612F5AEF00F0602F58EF00F0C5
:1000C0006E2BD8B46F2B6E516C5D606F6F516D5D90
:1000D0006011D8A455EF00F0120094948B9486EF31
:1000E00000F08C6FD8908C318E6F780E8E158D6FDE
:1000F000D8808C518D558E6FD8908D318F6FD89060
:100100008F338E518F25906F905112000001706BCC
:10011000010E716F010E726F746B756B766B010E51
:10012000776F010E786F796B7A6B7B6B7C6B76EFF8
:1001300002F081A1A3EF00F00F01550EA76EAA0EE9
:10014000A76E3F8B12000F01550EA76EAA0EA76E69
:100150003F9B12000F013FAFB3EF00F03FA9B3EF99
:1001600000F0AEEF00F03F833F813A510001706F25
:100170000F013F913A510001726F0F013B51000195
:10018000716F0F013A510001746F0F013B51000173
:10019000736F0F013A510001766F0F013B5100015F
:1001A000756F12000F013FBFDAEF00F00001809180
:1001B000DCEF00F0000180810F013FAFE5EF00F0C0
:1001C0003FA9E5EF00F0E0EF00F00001818199EC3C
:1001D00000F00F013F9F3F833F81000170510F01ED
:1001E0003A6F3F91000172510F013A6F0001715156
:1001F0000F013B6F000174510F013A6F0001735101
:100200000F013B6F000176510F013A6F00017551EC
:100210000F013B6F000180B112EF01F00F013F9F12
:1002200014EF01F00F013F8F0001819199EF00F071
:100230000F014783479144510001786F0F014551E9
:100240000001776F0F01445100017A6F0F01455192
:100250000001796F0F01445100017C6F0F0145517E
:1002600000017B6F12000F0147BF3BEF01F000015F
:1002700080913DEF01F0000180810F01479F47838E
:100280004791000178510F01446F000177510F0130
:10029000456F00017A510F01446F000179510F0140
:1002A000456F00017C510F01446F00017B510F012C
:1002B000456F000180B160EF01F00F01479F120010
:1002C0000F01478F1200806F805171EC00F0000128
:1002D000896F815171EC00F000018A6F825171ECDD
:1002E00000F000018B6F030E8A5DD8B484EF01F03B
:1002F000D8B084EF01F08951D8B482EF01F08907BA
:1003000084EF01F0040E896FD8908931836FD89003
:10031000833389518325846F8A05856F160EF66EA7
:10032000000EF76E000EF86E8551F626000E5E6E1A
:100330005E50F7225E50F8220900F550606F84513C
:100340006025866F86518B25876F070E626F8751F8
:10035000606F11EC00F000016151886F885112004C
:100360007D6F0F013FBFB9EF01F000017E91BBEF40
:1003700001F000017E81818199EC00F00F013F9F27
:1003800000017D510F013E6F00017EB1CCEF01F005
:100390000F013F9FCEEF01F00F013F8F00018191D0
:1003A00099EF00F07D93F2BE7D83F29E818199ECFE
:1003B00000F000017DB1E0EF01F0CD96E1EF01F03A
:1003C000CD867DB1E8EF01F00F013F9FEAEF01F02C
:1003D0000F013F8F0001819199EC00F000017DB386
:1003E000F4EF01F0F29E1200F28E12007D6F7D514B
:1003F000746F7E51756F7F51766FD2EF00F07D6F15
:10040000AAEC00F000017D51706F7E51716F7F5139
:10041000726F7E51816F7F51826F7D5163EC01F06D
:100420000001736FD2EF00F00001806F090E805D54
:10043000D8B41EEF02F0D8B034EF02F00F013FAF96
:1004400027EF02F03FA927EF02F022EF02F00001B0
:100450008035606F60373C0E6017C30E0F01471583
:10046000000160110F01476F12000001806F0F0142
:100470003FAF40EF02F03FA940EF02F03BEF02F048
:10048000FF0E0001805DD8A44AEF02F00F01478DF6
:100490004CEF02F00F01479D000180510F01466FA4
:1004A00012007D6F18EC01F000017D517A6F7E51D2
:1004B0007B6F7F517C6F33EC01F0060E14EC02F081
:1004C000FF0E35EF02F00F013FAF6CEF02F03FA9D6
:1004D0006CEF02F067EF02F000017DB173EF02F004
:1004E0000F01479F12000F01478F1200000EB0EC62
:1004F00001F0040E00017E6F230E7F6F110EFFECE2
:1005000001F0560E00017E6F120E7F6F100EF6EC9A
:1005100001F0560E00017E6F170E7F6F100E51EC2A
:1005200002F000017D8163EC02F000017D81D2ECDC
:1005300001F0B2EF02F0A4A0ACEF02F08B84C80E81
:100540006A6F6B6B4DEC00F08B94C80E00016A6F04
:100550006B6B4DEC00F0A49000016451606F65512D
:0A056000616F11000000B2EF02F01D
:020000040001F9
:08FFF800F8F7DDFFFFF000F057
:00000001FF
