:020000040000FA
:1000000085EF00F01201000200000008D80455003E
:1000100001000102000105010906A101050719E01F
:1000200029E71500250175019508810295017508DC
:1000300081039505750105081901290591029501AE
:1000400075039103950675081500256505071900C8
:1000500029658100C00009022200010100806409B5
:100060000400000103010100092111010001223FE8
:1000700000070581030800010403090436034D004D
:100080006900630072006F0063006800690070001F
:10009000200054006500630068006E006F006C0073
:1000A0006F00670079002C00200049006E0063009B
:1000B0002E002A034A0041004C002000480049005D
:1000C000440020004B00650062006F006100720078
:1000D00064002000440065006D006F000FBF84EFD6
:1000E00000F00FBD7AEF00F00E51EA6E0D51E96E8F
:1000F000EF5012000D51F66E0E51F76E0F513F0B7F
:10010000F86E0800F550120012009B8C0001A10E41
:10011000086F300E096F092F8BEF00F0082F89EF61
:1001200000F00001010E086F082F94EF00F00000AE
:100130000000FF0E0F01486FFF0E496FC26AC16ACF
:10014000D26AD16A256BCDEF00F01C511F6F1D5193
:10015000206F276B286BC3EF00F00001720E086F51
:100160009F0E096FDB0E0A6F0A2FB4EF00F0092F04
:10017000B2EF00F0082FB0EF00F000000000000028
:10018000272BD8B4282B27511F5D086F2851205DDD
:100190000811D8A4ADEF00F0120094948B84010EE6
:1001A00000011C6F1D6BA5EC00F08B940001156B1A
:1001B000196BDAEF01F0436F3D51E16E3E51E26E93
:1001C0004351456F446BF5EF00F0405144250D6FEE
:1001D000000E006E415100200E6F425100200F6F43
:1001E0006EEC00F0E66E0001442B4451455DD8A44E
:1001F000E5EF00F012000D0104BF120000011451E0
:10020000115DD8B409EF01F0D8B009EF01F0115138
:10021000146FD880145112553F6F3F51135DD8B4FD
:1002200017EF01F0D8B017EF01F013513F6F780EC0
:1002300012250D01066F000E006E0D0E0020076FD7
:1002400000013F510D01056F04AD2BEF01F0880E49
:10025000046F2DEF01F0C80E046F00013F5112270B
:100260001251145D1200080E136F126B146B116B98
:100270000D01049DFBEF00F03D6F3D510D01786FC6
:10028000080E0001136F126B010E146F010E116F37
:100290000D01049DFBEF00F02F6F2F51D8A473EFD9
:1002A00001F0180E3D6F0D0E3E6F3351406F34510B
:1002B000416F3551426F3951DBEC00F0180E0D01E2
:1002C000066F0D0E076F00013AA169EF01F00D01F5
:1002D000049D0D0104AD70EF01F0880E046F120053
:1002E000C80E046F1200010E2F5DD8A49EEF01F01E
:1002F000280E3D6F0D0E3E6F3351406F3451416FEC
:100300003551426F3951DBEC00F0280E0D010E6FB4
:100310000D0E0F6F000139510D010D6F00013AA153
:1003200094EF01F00D010C9D0D010CAD9BEF01F060
:10033000880E0C6F1200C80E0C6F1200020E2F5D9B
:10034000D8B41200030E2F5D1200840E0D010013AD
:100350001200080E0D01016F100E026F0D0E036FDB
:10036000030E0001175DD8A4BCEF01F08C0E3A6FAC
:100370000D01046BBEEF01F0C80E3A6F00013A5157
:100380000D01006F12003A6FD8903A353F6FD89048
:100390003F37D8903F373F293D6F0DEE00F03D517C
:1003A000E9263B51EF6E0DEE00F03F51E926800E3D
:1003B000EF6E12001B8195EF04F00D01F951000161
:1003C0003A6F0D01FE5100013B6F0D01FF5100011D
:1003D0003C6F010E3A5DD8B41200020E3A5DD8B4FB
:1003E0001200030E3A5DD8B41200090E3A5DD8A48B
:1003F00002EF02F03B513C11D8B408EF02F0020EBC
:10040000176F12000A0E3A5DD8B412000B0E3A5D57
:1004100012000D01F95100013A6F090E3A5DD8A49E
:100420001AEF02F00D0110510001196F060E176F3F
:1004300033EF01F0120012000D01F9510001106FAD
:10044000060E105DD8A4D5EF02F00D01FB5100019E
:100450003A6F0D01FA5100013B6F146B010E3A5DCA
:10046000D8A445EF02F0120E146F780E3D6F0D0EFA
:100470003E6F040E406F000E416F000E4009426F48
:100480001451DBEC00F0B8EF02F0020E3A5DD8A494
:100490005CEF02F0220E146F780E3D6F0D0E3E6F72
:1004A000560E406F000E416F000E4009426F14510E
:1004B000DBEC00F0B8EF02F0030E3A5DD8A4A3EF36
:1004C00002F03B51D8A475EF02F0040E146F780EC1
:1004D0003D6F0D0E3E6F780E406F000E416F000EA7
:1004E0004009426F1451DBEC00F0010E00013B5D4E
:1004F000D8A48BEF02F0360E146F780E3D6F0D0E00
:100500003E6F7C0E406F000E416F000E4009426F3F
:100510001451DBEC00F0020E00013B5DD8A4B8EFF3
:1005200002F02A0E146F780E3D6F0D0E3E6FB20E64
:10053000406F000E416F000E4009426F1451DBEC1A
:1005400000F0B8EF02F0220E3A5DD8A4B8EF02F046
:100550003F0E146F780E3D6F0D0E3E6F160E406FFE
:10056000000E416F000E4009426F1451DBEC00F0A9
:1005700000011451D8B4D3EF02F0080E136F0D012F
:10058000FF51D8A4C9EF02F0FE510001116FCCEF6A
:1005900002F0FF0E0001116F030E176F126B0D01B9
:1005A000049DFBEF00F0A5EF01F0050E105DD8A44F
:1005B000E6EF02F00D01FA510001186F010E166FFF
:1005C00033EC01F0060E0001176F1200090E105DEA
:1005D000D8A403EF03F0060E176F33EC01F0030EFF
:1005E0000001156F0F012789278527832787400E74
:1005F0000D010C6F080E096F200E0A6F0D0E0B6FA8
:10060000800E086F12000A0E105DD8A40DEF03F0E3
:10061000030E176F010E3CEF01F01051D8A414EF38
:1006200003F0000E3CEF01F01200D8906430306F00
:10063000D8903033D890303364A42BEF03F0D890A7
:100640000D0104310001336FD89033330F0E331591
:10065000326F35EF03F0D8900D0100310001336F98
:10066000D89033330F0E3315326F3051D8A4CEEFFC
:1006700003F00D0E325DD8A46CEF03F0366B0DEE77
:1006800010F03651E926EF50086F0DEEF8F03651B4
:10069000E9260851EF6E362B080E365DD8A43FEFE1
:1006A00003F06598A9EC01F0300E0D01F81500017A
:1006B000336F3351D8A45FEF03F01CEF02F0200E2C
:1006C000335DD8A466EF03F0DDEF01F0400E335D3B
:1006D000D8A4FAEF03F01200090E325DD8A495EF0A
:1006E00003F0030E175DD8A478EF03F0FBEF00F0E2
:1006F000060E175DD8A48BEF03F0176B010E165D85
:10070000D8A4FAEF03F0020E156F18510F01386FDD
:100710000001166B1200050E175DD8B41200040E0E
:10072000175DD8A494EF03F01200020E325DD8A436
:10073000ACEF03F0030E175DD8A4A1EF03F0FBEFBD
:1007400000F0040E175DD8B41200060E175DD8A491
:10075000FAEF03F0176B1200010E325DD8A4FAEF26
:1007600003F0050E175DD8A4B9EF03F0176BA9EFDE
:1007700001F0020E175DD8A4C2EF03F009EC02F0FD
:10078000A9EF01F0030E175DD8A4CCEF03F0A9EC9C
:1007900001F00001176B1200A9EF01F064A4F5EF5E
:1007A00003F0D8903035366FD8903637D89036373A
:1007B000040E3627020E3625336F0DEE00F033514E
:1007C000E926EF50376F030E3625336F0DEE00F03C
:1007D0003351E926EF50386F3629336F010E305D03
:1007E000D8A4FAEF03F01B811200080E3B6F3051C2
:1007F000C3EF01F01200A1A84CEF04F0A198000192
:100800002F6B62A607EF04F015EC03F0629600016F
:100810002F2B040E2F5DD8A401EF04F062A042EF4D
:1008200004F0636A626A186B0F01276B286B296BEF
:100830002A6B2B6B2C6B2D6B2E6B2F6B100E306F6E
:10084000316B326B336B346B356B160E266F62A6D1
:100850002DEF04F0629627EF04F00001176B166B82
:100860006598080E0D01056F180E066F0D0E076FC7
:10087000046B080E016F100E026F0D0E036F8C0ECD
:10088000006F629062BA629A62B8629862BC629CBF
:1008900062A24CEF04F062921200030E0001155D9B
:1008A000D8A455EF04F008811200089112002E6FB1
:1008B00000011BB160EF04F0FBEC03F058EF04F013
:1008C0001B912951306F2A51316F2B51336F2C51AD
:1008D000346F2D51356F2E51396F3A91010E4CEF17
:1008E00001F0156B656A140E0F01396F6B0E366FD0
:1008F000A098626A656A6586010E0001156F120094
:100900001C6F1C511F6F206B1E51216F226B236BBC
:10091000246B256B266B080E296F2A6B1F0E2B6F1D
:100920002C6B2D6B080E57EF04F0FF0E0F01486F74
:10093000FF0E496FC26AC16AD26AD16A256B040E82
:1009400000011A6F71EC04F0FBEC03F04DEC04F0C5
:1009500000011B9308B11B831BA3A4EF04F01B959C
:1009600019B31B851BB5B8EF04F08B94B9EF04F0F5
:100970008B841A511E6F000E80EC04F000011A2BBC
:100980001D0E1A5DD8B4CAEF04F0D8A0CAEF04F067
:10099000040E1A6F1E6B000E80EC04F0A4EF04F03E
:020000040001F9
:08FFF800F8F7FDFFFFFAFFFB23
:00000001FF
