:020000040000FA
:1000000010EF00F048656C6C6F2073657269616C6D
:1000100020776F726C64FB6E6351FA6E6251F96EF9
:100020009B8C8F0ED3147009D36E0001310E606F5C
:10003000D80E616F612F1AEF00F0602F18EF00F0FB
:100040000F01386B396B3A6BC26AC16AC06A796A50
:10005000786A776A949461EF00F0B886AC848A0E6F
:10006000AF6EB06A12002DEC00F09D9A9D98AC8A9C
:10007000900EAB6E12000001666F9EA83DEF00F07F
:100080006651AD6E12009EAA4CEF00F0AE5000011A
:10009000786F9E9A50EF00F00001799156EF00F0D2
:1000A000ABA255EF00F0AB98AB887981609179B144
:1000B00060817851120000016051656F65513BEF1E
:1000C00000F033EC00F091EF00F06E51736F6F5160
:1000D000746F7351766F7451776F756B88EF00F0A2
:1000E00070517525F66E000E5E6E71515E20F76ED2
:1000F00072515E20F86EF89C0900F550606F6B51EC
:10010000626F6C51636F6D510BEC00F00001752B49
:100110007551765D606F77516011D8A470EF00F073
:100120001200B60E00016B6F000E6C6F000E6D6F4B
:10013000120E6E6F6F6B040E706F000E716F000EFB
:100140004009726F65EC00F0210E3BEC00F08B94DF
:100150000A0E0001686F696B43EC00F00001676FE5
:100160006A9160B16A816AA1C9EF00F067513BEC06
:1001700000F082A4C0EF00F000016A93C2EF00F02B
:1001800000016A836AB3C8EF00F08B94C9EF00F0F6
:100190008B8468076829D8B4690768516911D8A4A5
:1001A000ACEF00F0500E686FC30E696F2E0E606FDB
:0801B0005BEC00F0ACEF00F085
:020000040030CA
:0E00000000C81F1C008FC10003C003E00340B6
:00000001FF
