:020000040000FA
:100000002AEF00F030313233343536373839414257
:10001000434445462D2D2053442043617264207291
:1000200065706F7274202D2D5344204361726420DB
:100030007265706C793A2000435344204349443A36
:100040002000494620434F4E443AFB6E6451FA6EFD
:100050006351F96E8F0ED3147009D36E0001C30E75
:10006000606F0C0E616F612F33EF00F0602F31EF86
:1000700000F0000000000F01386B396B3A6BC26A68
:10008000C16AC06A796A786A776A7BEF00F000011A
:100090009D6F9D516F6E6CAE4FEF00F0FF0C6DA029
:1000A0004FEF00F06F50120000019C6F9C5147EF22
:1000B00000F0FF0E47EC00F000019B6F9B51120017
:1000C0009A6F9A51D8A468EF00F06C986D8C12006A
:1000D000010E9A5DD8A470EF00F06C986D9C120030
:1000E000020E9A5DD8A478EF00F06C886D8C120037
:1000F0006C886D9C1200938493969392030E00017A
:10010000696F6A6B6C6A6D9E695160EC00F00F0E4E
:1001100000016A15606FF00E6C1460116C6E6C8AD1
:1001200093908A806891A2EF01F00D0E606F975155
:10013000636F9851646F995125EC00F00A0E00012D
:10014000606F9751636F9851646F995125EF00F07C
:100150008D51926F8E51936F9251956F9351966F0F
:10016000946BCBEF00F08F519425F66E000E5E6E0F
:1001700090515E20F76E91515E20F86EF89C090058
:10018000F550606F8A51636F8B51646F8C5125EC11
:1001900000F00001942B9451955D606F96516011B1
:1001A000D8A4B3EF00F01200876F68A1EBEF00F066
:1001B000300E606F8451636F8551646F865125ECFA
:1001C00000F0780E0001606F8451636F8551646F99
:1001D000865125EC00F0000187390F0B886F0F0E58
:1001E0008815896F040EF66E000EF76E000EF86E1D
:1001F0008951F626000E5E6E5E50F7225E50F822A0
:100200000900F550606F8451636F8551646F8651AA
:1002100025EC00F00F0E00018715886F040EF66EB6
:10022000000EF76E000EF86E8851F626000E5E6E18
:100230005E50F7225E50F8220900F550606F84513D
:10024000636F8551646F865125EF00F07D6F7D519E
:10025000D8A42FEF01F0950E836F31EF01F0FF0E60
:10026000836F400E7D27FF0E54EC00F000017D519E
:1002700054EC00F00001815154EC00F00001805179
:1002800054EC00F000017F5154EC00F000017E516D
:1002900054EC00F00001835154EC00F0FF0E54ECDC
:1002A00000F059EC00F00001826FFF0E54EC00F0FA
:1002B0000001825112007751796F78517A6F7B6B10
:1002C0007C6B72EF01F00001300E606F1A0E616FEF
:1002D000612F68EF01F0602F66EF01F000007B2BCB
:1002E000D8B47C2B7B51795D606F7C517A5D601155
:1002F000D8A463EF01F012007151736F7251746FE3
:10030000756B766B98EF01F00001A70E606F4D0ED4
:10031000616F660E626F622F8BEF01F0612F89EFC4
:1003200001F0602F87EF01F00000752BD8B4762B19
:100330007551735D606F7651745D6011D8A484EF60
:1003400001F0120094948B84C80E776F786B5BEC8D
:1003500001F08B94C8EF01F0B886AC84A00EAF6EAC
:10036000010EB06E1200ACEC01F09D9A9D98AC8A23
:10037000900EAB6E1200676F9EA8BCEF01F0675144
:10038000AD6E120000016051666F6651BBEF01F067
:10039000B3EC01F0840E00018A6F030E8B6F000E28
:1003A0008C6F140E8D6F8E6B140E8F6F000E906F0E
:1003B000000E4009916FA8EC00F0840E0001976FC9
:1003C000030E986F000E996F95EC00F0840E0001FB
:1003D0008A6F030E8B6F000E8C6F0F0E8D6F8E6BFE
:1003E000280E8F6F000E906F000E4009916FA8ECE1
:1003F00000F0840E0001846F030E856F000E866F7F
:10040000000ED4EC00F0840E0001976F030E986F7D
:10041000000E996F95EC00F094EF02F000016D6F03
:100420008A907E6B7F6B806B816B6D5126EC01F047
:1004300059EC00F00001706FFE0E705DD8A418EF4B
:1004400002F06F6B59EC00F000016E6F840E846F48
:10045000030E856F000E866F6E51D4EC00F0200EF7
:100460000001606FC2EC01F000016F2B100E6F5D98
:10047000D8A422EF02F059EC00F000016E6F59ECA5
:1004800000F000016E6F8A8012008A90AA0E0001AF
:100490007E6F010E7F6F806B816B080E26EC01F082
:1004A00000016B6F840E846F030E856F000E866FE4
:1004B0006B51D4EC00F059EC00F000016C6F840E2D
:1004C000846F030E856F000E866F6C51D4EC00F0C4
:1004D00059EC00F000016C6F840E846F030E856F81
:1004E000000E866F6C51D4EC00F059EC00F0000166
:1004F0006C6F840E846F030E856F000E866F6C51D7
:10050000D4EC00F059EC00F000016C6F840E846FA5
:10051000030E856F000E866F6C51D4EC00F0FF0E59
:1005200054EC00F08A8012008B84840E00018A6FE4
:10053000030E8B6F000E8C6F090E8D6F8E6B380E55
:100540008F6F000E906F000E4009916FA8EC00F0C5
:10055000090E0EEC02F0840E0001976F030E986FE7
:10056000000E996F95EC00F0840E00018A6F030E67
:100570008B6F000E8C6F090E8D6F8E6B380E8F6F28
:10058000000E906F000E4009916FA8EC00F0090E6C
:100590000EEC02F0840E0001976F030E986F000EB0
:1005A000996F95EC00F0840E00018A6F030E8B6F3B
:1005B000000E8C6F080E8D6F8E6B420E8F6F000ECB
:1005C000906F000E4009916FA8EC00F045EC02F02E
:1005D000840E0001976F030E986F000E996F95ECD3
:1005E00000F0840E0001976F030E986F000E996F54
:1005F00095EC00F08B94050E0001716F726B7CEC32
:0606000001F094EF02F08E
:020000040030CA
:0E00000000C81F1C008FC10003C003E00340B6
:00000001FF
