:020000040000FA
:100000009B8C8F0ED3147009D36E0001310E606F7C
:10001000D80E616F612F0AEF00F0602F08EF00F03B
:100020000F01386B396B3A6BC26AC16AC06A796A70
:10003000786A776A3DEF00F06251646F6351656FD3
:10004000666B676B33EF00F00001BA0E606F1B0E3A
:10005000616F612F29EF00F0602F27EF00F00000A3
:10006000662BD8B4672B6651645D606F6751655D20
:100070006011D8A424EF00F0120094948B84FA0E3F
:100080000001626F636B1CEC00F08B94FA0E0001B0
:0C009000626F636B1CEC00F03EEF00F0B0
:020000040030CA
:0E00000000C81F1C008FC10003C003E00340B6
:00000001FF
