:020000040000FA
:1008000002EF04F04BEF04F02D2D526573706F6E04
:1008100073652D2D6170695F69643A206672616D40
:10082000655F69643A206672616D655F64617461D9
:100830003A206D73625F6C656E6774683A206C7302
:10084000625F6C656E6774683A20636865636B739A
:10085000756D3A206672616D655F6C656E67746870
:100860003A20636F6D706C6574653A206572726FC3
:10087000725F636F64653A207061796C6F61643A8E
:1008800020005452554546414C534500FB6E0B51D8
:10089000FA6E0A51F96E9B8C0001A10E086F300EA2
:1008A000096F092F51EF04F0082F4FEF04F00001FA
:1008B000010E086F082F5AEF04F000000000FF0E31
:1008C0000F01486FFF0E496FC26AC16AD26AD16ACE
:1008D000256B00018B91F2BE8B818BEF04F08EA112
:1008E00080EF04F00E01550EA76EAA0EA76EBF8111
:1008F00000018BB17EEF04F0F29E1200F28E120026
:100900008B91F2BE8B810E01F29E550EA76EAA0E40
:10091000A76EBF9112008E916FEC04F0E00E0E01F5
:10092000C9150609C96FE00EF7150A09F76F00012E
:100930008E816FEC04F0BCEF04F07C86A884670E17
:10094000AB6E7D6A1200A86A9C6A9DEC04F0A39AC3
:10095000A398938E938CA88A900E9C6E12000E6FB3
:10096000A4A8B0EF04F00E51A96E120000010851C6
:100970000D6F0D51AFEF04F0A3EC04F000018B9369
:10098000B1EF05F00D0E086F8E510A6F8F510B6F8E
:10099000905146EC04F00A0E0001086F8E510A6F68
:1009A0008F510B6F905146EF04F09C51A46F9D51F5
:1009B000A56FA451A76FA551A86FA66BF8EF04F01F
:1009C000A151A625F66E000E006EA2510020F76E12
:1009D000A3510020F86EF89C0900F550086F96515D
:1009E0000A6F97510B6F985146EC04F00001A62B4B
:1009F000A651A75D086FA8510811D8A4E0EF04F034
:100A0000120095A116EF05F08E51966F8F51976FDA
:100A10009051986F040E9C6F9D6B820EA16F080E13
:100A2000A26F000E4009A36FD5EF04F08E51966FB0
:100A30008F51976F9051986F050E9C6F9D6B860E2E
:100A4000A16F080EA26F000E4009A36FD5EF04F04E
:100A5000956F8BA33FEF05F0300E086F8E510A6F34
:100A60008F510B6F905146EC04F0780E0001086F27
:100A70008E510A6F8F510B6F905146EC04F00001BC
:100A800095390F0B966F0F0E9615086FF00E99158E
:100A90000811996F0F0E99159A6F300E9A25A06F55
:100AA000390EA05DD8B45AEF05F0D8A05AEF05F082
:100AB000070EA027A051966F9651086F8E510A6FAE
:100AC0008F510B6F905146EC04F00F0E00019515FD
:100AD000086FF00E99150811996F0F0E99159A6FFE
:100AE000300E9A259C6F390E9C5DD8B47DEF05F0D1
:100AF000D8A07DEF05F0070E9C279C51966F96516C
:100B0000086F8E510A6F8F510B6F905146EF04F0B2
:100B10007E86AD84E10EB06E040E7F6E1200AD6A6B
:100B2000AC6A88EC05F09D9A9D98948E948CAD8A61
:100B3000900EAC6E12009EAAA3EF05F0AF509C6F12
:100B40009E9AA6EF05F0A091ACEF05F0ACA2ABEF3A
:100B500005F0AC98AC88A081A0A19BEF05F09C515A
:100B600012008FEC05F0A8EF06F08791886B856B7B
:100B7000896B1200B5EC05F00001136B836B846B7D
:100B8000866B9C6B020E9C25A06F00EE13F0A051AB
:100B9000E926EF6A9C2B6E0E9C5DD8A4C2EF05F08F
:100BA00012000F6B1091BAEF05F09C6B9C519D6F7A
:100BB00084519E6F9D519E259F6F9F5112000B0E79
:100BC00089258E6F020E8E258F6F00EE13F08F51E8
:100BD000E926EF50946F892B94511200000188513F
:100BE0009681D8B49691969387A196B1968396B341
:100BF000D1EC05F0000198859BEC05F000018E6FAB
:100C00000F519685D8B496957E0E8E5D9697D8B482
:100C10009687968996B596A7969996A913EF06F0AA
:100C2000030E886F12000F51968BD8B4969B7D0EE1
:100C30008E5D969DD8B4968D968F96BB96AD969FF9
:100C400096AF25EF06F01081989598A5FAEF05F07C
:100C500010A133EF06F010918EAB32EF06F08E9BB1
:100C600033EF06F08E8B030E0F5DD8B43BEF06F02A
:100C7000D8A03DEF06F08E5111270F51D8A449EFAF
:100C800006F07E0E8E5DD8A4FAEF05F00F2BFAEF7A
:100C900005F0010E0F5DD8A453EF06F08E51836F5F
:100CA0000F2BFAEF05F0020E0F5DD8A45DEF06F0F2
:100CB0008E51846F0F2BFAEF05F0030E0F5DD8A451
:100CC00067EF06F08E51136F0F2BFAEF05F06E0EE3
:100CD0000F5DD8B472EF06F0D8A072EF06F0020EE6
:100CE000886F1200D5EC05F00001916F030E91257D
:100CF000926F0F51925DD8A493EF06F01151936F4C
:100D0000FF0E935DD8A48BEF06F08E51856F87811F
:100D1000886B8DEF06F0010E886FFC0E0F25866F35
:100D20000F6B116B1200FC0E0F25916F020E9125B7
:100D3000926F00EE13F09251E9268E51EF6E0F2B59
:100D4000FAEF05F000010F6B1091116B126B12009E
:100D5000A2EC06F09494EEEC05F06C0E0001966F98
:100D6000090E976F000E986F0C0E9C6F9D6B080E0E
:100D7000A16F080EA26F000E4009A36FD5EC04F01E
:100D80006C0E00018E6F090E8F6F000E906FC2EC1B
:100D900004F06C0E0001966F090E976F000E986FAD
:100DA000080E9C6F9D6B140EA16F080EA26F000EB3
:100DB0004009A36FD5EC04F06C0E00018E6F090E94
:100DC0008F6F000E906F135128EC05F06C0E000130
:100DD0008E6F090E8F6F000E906FC2EC04F06C0ED8
:100DE0000001966F090E976F000E986F0A0E9C6FA8
:100DF0009D6B1C0EA16F080EA26F000E4009A36F21
:100E0000D5EC04F06C0E00018E6F090E8F6F000E92
:100E1000906F145128EC05F06C0E00018E6F090ED6
:100E20008F6F000E906FC2EC04F06C0E0001966F95
:100E3000090E976F000E986F0C0E9C6F9D6B320E13
:100E4000A16F080EA26F000E4009A36FD5EC04F04D
:100E50006C0E00018E6F090E8F6F000E906F835124
:100E600028EC05F06C0E00018E6F090E8F6F000EDE
:100E7000906FC2EC04F06C0E0001966F090E976F34
:100E8000000E986F0C0E9C6F9D6B3E0EA16F080EAE
:100E9000A26F000E4009A36FD5EC04F06C0E0001A8
:100EA0008E6F090E8F6F000E906F845128EC05F045
:100EB0006C0E00018E6F090E8F6F000E906FC2ECEA
:100EC00004F06C0E0001966F090E976F000E986F7C
:100ED0000E0E9C6F9D6B540EA16F080EA26F000E3C
:100EE0004009A36FD5EC04F06C0E00018E6F090E63
:100EF0008F6F000E906F865128EC05F06C0E00018C
:100F00008E6F090E8F6F000E906FC2EC04F06C0EA6
:100F10000001966F090E976F000E986F0A0E9C6F76
:100F20009D6B4A0EA16F080EA26F000E4009A36FC1
:100F3000D5EC04F06C0E00018E6F090E8F6F000E61
:100F4000906F855128EC05F06C0E00018E6F090E34
:100F50008F6F000E906FC2EC04F06C0E0001966F64
:100F6000090E976F000E986F0A0E9C6F9D6B620EB4
:100F7000A16F080EA26F000E4009A36FD5EC04F01C
:100F80006C0E00018E6F090E8F6F000E906F9591A1
:100F900087B1958101EC05F06C0E00018E6F090E92
:100FA0008F6F000E906FC2EC04F06C0E0001966F14
:100FB000090E976F000E986F0C0E9C6F9D6B6C0E58
:100FC000A16F080EA26F000E4009A36FD5EC04F0CC
:100FD0006C0E00018E6F090E8F6F000E906F88519E
:100FE00028EC05F06C0E00018E6F090E8F6F000E5D
:100FF000906FC2EC04F06C0E0001966F090E976FB3
:10100000000E986F0C0E9C6F9D6B260EA16F080E44
:10101000A26F000E4009A36FD5EC04F000018651C9
:101020008D6F8C6B26EF08F0020E8C258A6F6C0E8C
:101030008E6F090E8F6F000E906F00EE13F08A51C5
:10104000E926EF5028EC05F000018C2B8C518D5DCA
:10105000D8A414EF08F06C0E8E6F090E8F6F000E7F
:10106000906FC2EC04F06C0E0001966F090E976F42
:10107000000E986F090E9C6F9D6B780EA16F080E85
:10108000A26F000E4009A36FD5EC04F000018C6B39
:10109000DFEC05F000018A6F8A51086FB6EC04F0AE
:1010A00000018C2B020E8C5DD8A448EF08F06C0E6A
:1010B0008E6F090E8F6F000E906FC2EC04F0ABEFD5
:0210C00006F038
:020000040001F9
:08FFF800F8F7DDFFFFF000F057
:00000001FF
