:020000040000FA
:1008000036EF04F004510603F350086FF450096FFB
:1008100004510703F350092705510603F350092734
:100820001200100E0C6F066B076BD8900A370B374F
:10083000D89004370537063707370751095DD8A424
:1008400024EF04F00651085DD8B42AEF04F0D8B0C4
:1008500032EF04F0D88006510855066F075109554C
:10086000076F0A810C2F15EF04F012009B8C00011A
:10087000A10E046F300E056F052F3CEF04F0042F1E
:100880003AEF04F00001010E046F042F45EF04F06D
:1008900000000000FF0E0F01486FFF0E496FC26A93
:1008A000C16AD26AD16A256B939800010E6B010E62
:1008B0000F6F82EF04F01E6F0E6B010E0F6F0E05AF
:1008C000CB6E010E1E5DD8A46AEF04F0FC0ECA16B2
:1008D000CA841200040E1E5DD8A475EF04F0FC0E4D
:1008E000CA140109CA6ECA841200100E1E5DD8A473
:1008F00080EF04F0FC0ECA140209CA6ECA8412000A
:10090000CA941200106B116B11EF05F0F00E00018C
:1009100011150C09116F10510F01136F00011151C6
:100920000F01126F1200F00E111711510F01126F0B
:100930001200030E1D5DD8A4A0EF04F0FF0E1C5D95
:10094000D8B4AAEF04F0D8A0AAEF04F0FF0E1C6FF1
:10095000030E1D6FD8901D31056F1C31046FD890A8
:10096000053304330451106F030E1C15046F043952
:10097000056F300E0517CF0E11150511116F86EF9B
:1009800004F0136F1351D8A4CAEF04F0146B156B65
:1009900003EF05F0640E135DD8B4D2EF04F0D8A0D5
:1009A000DBEF04F00F51156F0E05146F1429D8B446
:1009B000150703EF05F01351166F176BD8900F3121
:1009C000196F0E31186FD890193318331651046F00
:1009D0001751056F1851066F1951076F02EC04F09B
:1009E000000108511A6F09511B6F190E086F096B2E
:1009F0001A51046F1B51056F11EC04F000010A51EC
:100A0000146F0B51156FD8901435166F1535176F7D
:100A1000D8901637173716511C6F17511D6F99EF65
:100A200004F0010E5BEC04F086EC04F00001126BA4
:100A3000640E125DD8B432EF05F0D8B032EF05F095
:100A40001251C1EC04F00001E50E046FAD0E056F0C
:100A5000052F28EF05F0042F26EF05F00000122BDC
:100A600018EF05F01251D8B448EF05F01251C1EC5F
:100A700004F00001E50E046FAD0E056F052F3EEF8B
:100A800005F0042F3CEF05F00000120732EF05F0EF
:100A90000001470E046FA70E056FA70E066F062F05
:100AA0004FEF05F0052F4DEF05F0042F4BEF05F04C
:100AB00093EC04F00001470E046FA70E056FA70E1C
:100AC000066F062F61EF05F0052F5FEF05F0042F8D
:0C0AD0005DEF05F086EC04F016EF05F079
:00000001FF
