:020000040000FA
:1000000004EF02F03031323334353637383941427B
:1000100043444546010000000A000000640000005F
:10002000E803000010270000A086010040420F00F6
:100030008096980000E1F50500CA9A3B57656C630D
:100040006F6D6520746F204D696E6978204F532065
:100050003A296D696E69783E2000436F6D6D616E5F
:1000600064206E6F7420666F756E64006673636BD8
:100070000000243F00006361740064636174000049
:10008000636400006C7300006F70656E72006F70C7
:10009000656E7700636C6F73650072656164000064
:1000A0007772697465007365656B0000626C6F63DD
:1000B0006B00727265616400616C6C6F63007265E5
:1000C000626F6F740000496E6F646520230046699B
:1000D0006C65747970653A2066696C656469720054
:1000E00073796D6C696E6B0064756E6E6F00506530
:1000F000726D697373696F6E733A2000202D2061F1
:100100006C6C3A20202D20757365723A2000202DEA
:100110002067726F75703A20202D206F74686572A9
:100120003A2023206C696E6B733A20005549443A9B
:1001300020004749443A200046696C652073697A7B
:10014000653A200041636573732074696D653A20D8
:100150004D6F64696669636174696F6E2074696D5F
:10016000653A2000537461747573206368616E672B
:10017000652074696D653A205A6F6E6520303A20AB
:100180005A6F6E6520313A205A6F6E6520323A20E0
:100190005A6F6E6520333A205A6F6E6520343A20CC
:1001A0005A6F6E6520353A205A6F6E6520363A20B8
:1001B000496E646972656374205A6F6E653A2000F7
:1001C000446F75626C6520696E6469726563742042
:1001D0005A6F6E653A204572726F722023205375F4
:1001E00070657220426C6F636B0023206E6F6465D4
:1001F000733A200023207A6F6E65732028763129A8
:100200003A202320696E6F6465206269746D6170A5
:1002100020626C6F636B733A200023207A6F6E65E7
:10022000206269746D617020626C6F636B733A2039
:1002300040203173742064617461207A6F6E653A76
:1002400020004D61782066696C652073697A653A93
:1002500020004D6167696320233A200023207A6FD4
:100260006E657320287632293A204020317374203D
:10027000696E6F6465206269746D617020626C6F75
:10028000636B3A204020317374207A6F6E65206270
:1002900069746D617020626C6F636B3A200040205E
:1002A00031737420696E6F646520626C6F636B3AA2
:1002B00020004C617374207A6F6E65206269746DE2
:1002C000617020626C6F636B3A204C617374207AAA
:1002D0006F6E65206269746D617020627974653A31
:1002E000200023206C6173742066756C6C207A6F1B
:1002F0006E653A2063757272656E74207A6F6E65F2
:1003000020626974733A200040206C61737420612C
:100310006C6C6F6361746564207A6F6E653A200E51
:10032000806FD890683769376A376B37D8906037F5
:10033000613762376337D8A0A6EF01F064516827B0
:100340006551692366516A2367516B23802F91EFB2
:1003500001F01200200E806F646B656B666B676B3B
:10036000D8906C376D376E376F37D89060376137FC
:1003700062376337643765376637673767516B5D58
:10038000D8A4CFEF01F066516A5DD8A4CFEF01F099
:100390006551695DD8A4CFEF01F06451685DD8B4B0
:1003A000D5EF01F0D8B0E3EF01F0D8806451685583
:1003B000646F65516955656F66516A55666F67511F
:1003C0006B55676F6C81802FB0EF01F0120084BF16
:1003D000FDEF01F084BDF3EF01F08351EA6E82512D
:1003E000E96EEF5012008251F66E8351F76E845120
:1003F0003F0BF86E0800F55012001200FB6E000172
:100400008351FA6E8251F96E9B8C0001A10E606FD0
:10041000300E616F612F0AEF02F0602F08EF02F0DB
:100420000001010E606F602F13EF02F0000000006A
:10043000FF0E0F01486FFF0E496FC26AC16AD26A90
:10044000D16A256B03016291F2BE628145EF02F031
:1004500004A139EF02F00E01550EA76EAA0EA76E89
:10046000BF81030162B137EF02F0F29E1200F28EFB
:10047000120003016291F2BE62810E01F29E550EDE
:10048000A76EAA0EA76EBF9112000601049128EC78
:1004900002F0E00E0E01FE150309FE6FE00EC2151C
:1004A0000B09C26FE00EFD150209FD6FE00EFC1591
:1004B0000509FC6FE00EC6150A09C66F0601048126
:1004C00028EC02F099EF02F00601036F0351756EFC
:1004D00072AE6CEF02F0FF0C73A06CEF02F075507F
:1004E00012000601026F025164EF02F0FF0E64EC8D
:1004F00002F00601016F015112000601006F005168
:10050000D8A486EF02F07298738C1200010E005D81
:10051000D8A48EEF02F07298739C1200020E005D58
:10052000D8A496EF02F07288738C12007288739CC4
:10053000120093849396929A030E0301676F686B7F
:10054000726A739E67517DEC02F00F0E030168150D
:100550000001606FF00E72146011726E728A9390D7
:100560008A8003016293F2EF06F00D0E0001606FC6
:100570000501EB510001826F0501EC510001836F11
:100580000501ED51FEEC01F00A0E0001606F05015E
:10059000EB510001826F0501EC510001836F0501F1
:1005A000ED51FEEF01F0E151E66FE251E76FE651E8
:1005B000E96FE751EA6FE86BFDEF02F00501E351E7
:1005C000E825F66E000E5E6EE4515E20F76EE55192
:1005D0005E20F86EF89C0900F5500001606F05017F
:1005E000DE510001826F0501DF510001836F0501BB
:1005F000E051FEEC01F00501E82BE851E95D000156
:10060000606F0501EA5100016011D8A4DEEF02F02D
:1006100012000501F16F030162A32DEF03F0300E0C
:100620000001606F0501EE510001826F0501EF517D
:100630000001836F0501F051FEEC01F0620E000134
:10064000606F0501EE510001826F0501EF5100015D
:10065000836F0501F051FEEC01F00501F26B800E95
:10066000F115F36FF351D8B447EF03F0310E0001E9
:10067000606F0501EE510001826F0501EF5100012D
:10068000836F0501F051FEEC01F056EF03F0300EE0
:100690000001606F0501EE510001826F0501EF510D
:1006A0000001836F0501F051FEEC01F0D8900501C7
:1006B000F137F22B080EF25DD8A42FEF03F01200F1
:1006C000030162A382EF03F0300E0001606F0501A9
:1006D000CF510001826F0501D0510001836F0501E8
:1006E000D151FEEC01F0780E0001606F0501CF5191
:1006F0000001826F0501D0510001836F0501D151C6
:10070000FEEC01F00501D5390F0BD66FD76BD86B16
:10071000D96B0F0ED615DA6FDB6BDC6BDD6B040E5D
:10072000F66E000EF76E000EF86EDA51F626DB510B
:10073000F722DC51F8220900F5500001606F050135
:10074000CF510001826F0501D0510001836F050177
:10075000D151FEEC01F00501D551D66FD76BD86BA6
:10076000D96B0F0ED615DA6FDB6BDC6BDD6B040E0D
:10077000F66E000EF76E000EF86EDA51F626DB51BB
:10078000F722DC51F8220900F5500001606F0501E5
:10079000CF510001826F0501D0510001836F050127
:1007A000D151FEEC01F00501D451D66FD551D76F70
:1007B000D86BD96B040E0001606FD8900501D73358
:1007C000D6330001602FDDEF03F00F0E0501D615C3
:1007D000DA6FDB6BDC6BDD6B040EF66E000EF76E12
:1007E000000EF86EDA51F626DB51F722DC51F822C2
:1007F0000900F5500001606F0501CF510001826FC3
:100800000501D0510001836F0501D151FEEC01F0CB
:100810000501D451D66FD551D76FD86BD96B0F0E58
:10082000D615DA6FDB6BDC6BDD6B040EF66E000E3B
:10083000F76E000EF86EDA51F626DB51F722DC5126
:10084000F8220900F5500001606F0501CF51000149
:10085000826F0501D0510001836F0501D151FEEC7B
:1008600001F00501D351D66FD451D76FD551D86F50
:10087000D96B040E0001606FD8900501D833D733CF
:10088000D6330001602F3CEF04F00F0E0501D615A2
:10089000DA6FDB6BDC6BDD6B040EF66E000EF76E51
:1008A000000EF86EDA51F626DB51F722DC51F82201
:1008B0000900F5500001606F0501CF510001826F02
:1008C0000501D0510001836F0501D151FEEC01F00B
:1008D0000501D351D66FD451D76FD551D86FD96B8D
:1008E0000F0ED615DA6FDB6BDC6BDD6B040EF66E6C
:1008F000000EF76E000EF86EDA51F626DB51F72285
:10090000DC51F8220900F5500001606F0501CF515C
:100910000001826F0501D0510001836F0501D151A3
:10092000FEEC01F0D8900501D531D96FD431D86FE4
:10093000D331D76FD231D66F030E0001606FD890DC
:100940000501D933D833D733D6330001602F9FEF59
:1009500004F00F0E0501D615DA6FDB6BDC6BDD6B77
:10096000040EF66E000EF76E000EF86EDA51F626E3
:10097000DB51F722DC51F8220900F5500001606FCD
:100980000501CF510001826F0501D0510001836F35
:100990000501D151FEEC01F00F0E0501D215D66F05
:1009A000D76BD86BD96B040EF66E000EF76E000E87
:1009B000F86ED651F626D751F722D851F822090001
:1009C000F5500001606F0501CF510001826F0501F4
:1009D000D0510001836F0501D151FEEF01F00301F9
:1009E00062A311EF05F0300E0001606F0501C651E2
:1009F0000001826F0501C7510001836F0501C851D5
:100A0000FEEC01F0780E0001606F0501C651000197
:100A1000826F0501C7510001836F0501C851FEECCB
:100A200001F00501CA390F0BCB6FCC6B0F0ECB1544
:100A3000CD6FCE6B040EF66E000EF76E000EF86EE4
:100A4000CD51F626CE51F722000E5E6E5E50F82292
:100A50000900F5500001606F0501C6510001826F69
:100A60000501C7510001836F0501C851FEEC01F07B
:100A70000501CA51CB6FCC6B0F0ECB15CD6FCE6B72
:100A8000040EF66E000EF76E000EF86ECD51F626CF
:100A9000CE51F722000E5E6E5E50F8220900F5502E
:100AA0000001606F0501C6510001826F0501C75149
:100AB0000001836F0501C851FEEC01F0D8900501DB
:100AC000CA31CC6FC931CB6F030E0001606FD89073
:100AD0000501CC33CB330001602F67EF05F00F0E1B
:100AE0000501CB15CD6FCE6B040EF66E000EF76EC2
:100AF000000EF86ECD51F626CE51F722000E5E6E36
:100B00005E50F8220900F5500001606F0501C651E2
:100B10000001826F0501C7510001836F0501C851B3
:100B2000FEEC01F00F0E0501C915CB6FCC6B040E66
:100B3000F66E000EF76E000EF86ECB51F626CC5115
:100B4000F722000E5E6E5E50F8220900F55000019B
:100B5000606F0501C6510001826F0501C751000198
:100B6000836F0501C851FEEF01F0BF51F46FC05112
:100B7000F56FC151F66FC251F76FC351F86FC45191
:100B8000F96FC551FA6F090EE5EF05F0BA51F46F30
:100B9000BB51F56FBC51F66FBD51F76FBE51F86F89
:100BA000F96BFA6B040EE5EF05F00501B96FB6516C
:100BB000F46FB751F56FB851F66FB951F76FF86B25
:100BC000F96BFA6B020EE5EF05F0FB6FF751F811C8
:100BD000F911FA11D8A4FCEF05F0300E0001606F96
:100BE0000501F4510001826F0501F5510001836F89
:100BF0000501F651FEEF01F0FF81FB51800A000173
:100C0000606F800E605DD8B409EF06F0D8A0F1EFF8
:100C100006F0D8900501FB35FD6FD890FD37140E16
:100C2000F66E000EF76E000EF86EFD51F626000E01
:100C3000FDBFFF0E5E6E5E50F7225E50F822090087
:100C4000F5500001606F0900F550616F0900F55023
:100C5000626F0900F550636F0501FA510001635D91
:100C6000D8A445EF06F00501F9510001625DD8A452
:100C700045EF06F00501F8510001615DD8A445EF8C
:100C800006F00501F7510001605DD8B44BEF06F0A6
:100C9000D8B0CAEF06F0D8900501FB35FE6FD890AA
:100CA000FE37140EF66E000EF76E000EF86EFE5153
:100CB000F626000EFEBFFF0E5E6E5E50F7225E50FF
:100CC000F8220900F5500001686F0900F550696FBE
:100CD0000900F5506A6F0900F5506B6F0501F75177
:100CE0000001606F0501F8510001616F0501F951C4
:100CF0000001626F0501FA510001636FAAEC01F077
:100D000000016C510501FC6FD890FB35FD6FD89048
:100D1000FD37140EF66E000EF76E000EF86EFD51E4
:100D2000F626000EFDBFFF0E5E6E5E50F7225E508F
:100D3000F8220900F5500001686F0900F550696F4D
:100D40000900F5506A6F0900F5506B6F0501F75106
:100D50000001606F0501F8510001616F0501F95153
:100D60000001626F0501FA510001636FAAEC01F006
:100D7000000164510501F76F000165510501F86F2D
:100D8000000166510501F96F000167510501FA6F15
:100D9000CCEF06F00501FC6BFB07FC51FF89D8B4D2
:100DA000FF99FF9BFFA1FF8BFF9DFFA9FFBBFF8D5D
:100DB000FFADFDEF05F0300EFC11FD6FFD510001A0
:100DC000606F0501F4510001826F0501F5510001CA
:100DD000836F0501F651FEEC01F00501FF91FDEF77
:100DE00005F012000001876B886B896B8A6B8B6B37
:100DF0007AEF09F0AF6FAF51D8A403EF07F0950E6B
:100E0000B56F05EF07F0FF0EB56F400EAF27FF0E71
:100E100071EC02F00501AF5171EC02F00501B35124
:100E200071EC02F00501B25171EC02F00501B15113
:100E300071EC02F00501B05171EC02F00501B55101
:100E400071EC02F0FF0E71EC02F076EC02F005019D
:100E5000B46FFF0E71EC02F00501B4511200010EE7
:100E60000501AE6FAE51D8B441EF07F0B06BB16B76
:100E7000B26BB36B010EFAEC06F00501AE6F32EF08
:100E800007F012000501AA6B8A900001430E606F03
:100E90003A0E616F612F4AEF07F0602F48EF07F0BD
:100EA00000000000000000008A800501AB6BFF0E0F
:100EB00071EC02F00501AB2B0A0EAB5DD8A457EF25
:100EC00007F0AC6BAA51AD83D8A4AD93640EAC5DB2
:100ED000AD95D8B46EEF07F0D8A0AD85AD87ADB3B2
:100EE000ADA5AD97ADA796EF07F00001430E606F7B
:100EF0003A0E616F612F7AEF07F0602F78EF07F0FD
:100F000000000000000000008A900501B06BB16B8A
:100F1000B26BB36B000EFAEC06F00501AA6F2FEC72
:100F200007F08A800501AC2B62EF07F012008A906F
:100F30000501B06BB16BB26BB36B0C0EFAEC06F043
:100F40002FEC07F00501B06BB16BB26BB36B000E09
:100F5000FAEC06F02FEC07F08A801200A65100018F
:100F60008C6F0501A75100018D6F0501A85100018B
:100F70008E6F0501A95100018F6F8A900501A8515C
:100F8000A96FA751A86FA651A76FA66BD890A737D6
:100F9000A837A937A651B06FA751B16FA851B26F4A
:100FA000A951B36F120EFAEC06F00001876B886B43
:100FB000896B8A6B8B6B120088518911D8A4ECEF76
:100FC00007F076EC02F00501A56FFE0EA55DD8B422
:100FD000ECEF07F0E1EF07F076EC02F00501A46F0B
:100FE0000001882BD8B4892B000E885D606F020E3B
:100FF000895D6011D8A406EF08F0886B896B8A2B95
:10100000D8B48B2B76EC02F076EC02F00501A451FB
:10101000120097EC07F08A8012008A90A251A36F09
:10102000A151A26FA051A16FA06BD890A137A23798
:10103000A337A051B06FA151B16FA251B26FA351AC
:10104000B36F190EFAEC06F00001876B886B896BA1
:101050008A6B8B6B12009E6F000188518911D8A496
:1010600035EF08F0FC0E71EC02F005019E5171ECB9
:1010700002F00001882BD8B4892B000E885D606FC8
:10108000020E895D6011D8A46EEF08F0886B896B41
:101090008A2BD8B48B2BFF0E71EC02F0FF0E71EC93
:1010A00002F076EC02F005019F6F9F51D8A45FEF2C
:1010B00008F076EC02F005019F6F55EF08F076EC32
:1010C00002F005019F6FFF0E9F5DD8B46EEF08F030
:1010D00076EC02F005019F6F63EF08F01200050146
:1010E000936F0001875105019481D8A4949194B124
:1010F00094EF08F00001871D010F0501956F9551D0
:10110000966F976B8DEF08F093512BEC08F005016B
:1011100093512BEC08F00501972B9751965DD8A4BD
:1011200084EF08F08A8012000001885189110501BE
:101130009487D8A4949794B7C6EF08F0D880000E8F
:10114000000188550501986F020E000189550501BF
:10115000996F98519A6F99519B6F9C6B9D6BB9EFEA
:1011600008F0050193512BEC08F005019C2BD8B435
:101170009D2B9C519A5D0001606F05019D519B5D07
:1011800000016011D8A4B1EF08F08A801200000EAF
:101190006FEC08F0FD0E71EC02F097EC07F08A801E
:1011A00000013D0E606F570E616F240E626F622F5B
:1011B000D7EF08F0612FD5EF08F0602FD3EF08F0DC
:1011C000000012000501906B916B76EC02F00501B6
:1011D000926FFE0E925DD8A4E5EF08F0906B916BD4
:1011E00076EC02F00001816F01EE00F005019051F4
:1011F000E92600018151EF6E76EC02F00001816F6B
:1012000002EE00F005019051E92600018151EF6ED8
:101210000501902BD8B4912B000E905D0001606FFA
:10122000010E0501915D00016011D8A4F0EF08F0F6
:101230008A2BD8B48B2B76EC02F076EC02F000010E
:10124000872B020E8827000E89238C2BD8B48D2B78
:10125000D8B48E2BD8B48F2B1200FC0E71EC02F098
:1012600005018E6B8F6B01EE00F005018E51E926B2
:10127000EF5071EC02F002EE00F005018E51E9260C
:10128000EF5071EC02F005018E2BD8B48F2B000EBD
:101290008E5D0001606F010E05018F5D0001601120
:1012A000D8A433EF09F08A2BD8B48B2BFF0E71EC46
:1012B00002F0FF0E71EC02F076EC02F005018D6F8A
:1012C0008D51D8A46AEF09F076EC02F005018D6F1C
:1012D00060EF09F076EC02F005018D6FFF0E8D5D79
:1012E000D8B479EF09F076EC02F005018D6F6EEF5E
:1012F00009F0120042EC07F078EF0BF0856B7D519E
:101300008525E96E7E51EA6EEF50866F8251852504
:101310000001826F000E5E6E050183515E200001A8
:10132000836F050184515E200001846FE7EC01F0BA
:101330000501876F86518B81D8A48B9187518B8350
:10134000D8A48B938B958BA18BB38B858BA5B6EF94
:1013500009F086518725886F8851D8A4B3EF09F02A
:10136000000160811200000160911200400E865D54
:101370008C9BD8B4BEEF09F0D8B08C8B5B0E865D29
:101380008C9DD8B4C6EF09F0D8A08C8D8C8F8CBB07
:101390008CAD8C9F8CAFD0EF09F08C89D1EF09F028
:1013A0008C998CA9D6EF09F0200E8627400E875D18
:1013B0008C9BD8B4DEEF09F0D8B08C8B5B0E875DC8
:1013C0008C9DD8B4E6EF09F0D8A08C8D8C8F8CBBA7
:1013D0008CAD8C9F8CAFF0EF09F08C89F1EF09F0A8
:1013E0008C998CA9F6EF09F0200E87278651875D2E
:1013F0008B99D8B48B898BB901EF0AF00001609109
:1014000012007B51805D0001606F05017C51815DA0
:1014100000016011D8A422EF0AF005017C51896F08
:101420007B05886F8829D8B489078551885D0001BC
:10143000606F0501895100016011D8A47AEF0AF0AC
:101440006081120005017C51896F7B05886F8829B6
:10145000D8B489078551885D0001606F0501895105
:1014600000016011D8A454EF0AF0050185298A6FA4
:1014700082518A250001826F000E5E6E0501835144
:101480005E200001836F050184515E200001846F9E
:10149000E7EC01F00001606F6051D8A452EF0AF050
:1014A000608112006091120005017C51896F7B05FB
:1014B000886F8829D8B489078551885D0001606FDD
:1014C0000501895100016011D8A47AEF0AF00501E5
:1014D00085298A6F7D518A25E96E7E51EA6EEF502B
:1014E0000001606F6051D8A478EF0AF060811200AB
:1014F000609112000501852B7FEF09F0010E6B6FE3
:101500006C6B6D6B6E6B6F6B706B716B726B736B07
:101510006651746F6751756F736BEDEF0AF00501DB
:1015200068517325E96E6951EA6EEF500001606FF2
:101530006051D8A4C5EF0AF00A0E686F696B6A6B38
:101540006B6B05016B510001606F05016C5100016F
:10155000616F05016D510001626F05016E5100015F
:10156000636FAAEC01F000016C5105016B6F000183
:101570006D5105016C6F00016E5105016D6F000129
:101580006F5105016E6FF8EF0AF005016B51000114
:10159000606F05016C510001616F05016D51000123
:1015A000626F05016E510001636F0A0E646F656B17
:1015B000666B676B8FEC01F00001685105016B6F82
:1015C0000001695105016C6F00016A5105016D6FE1
:1015D00000016B5105016E6F732B7351745D000137
:1015E000606F0501755100016011D8A48FEF0AF0FA
:1015F0000501736B6B516C116D116E11D8B468EFEE
:101600000BF068517325E96E6951EA6EEF500001E5
:10161000606FD00E60250501766F76510001606F16
:10162000616B626B636B05016B510001646F0501B7
:101630006C510001656F05016D510001666F050178
:101640006E510001676F8FEC01F0000168510501D8
:10165000776F000169510501786F00016A5105013A
:10166000796F00016B5105017A6F77516F277851BF
:101670007023795171237A5172230A0E0001686F29
:10168000696B6A6B6B6B05016B510001606F050143
:101690006C510001616F05016D510001626F050120
:1016A0006E510001636FAAEC01F000016C5105015D
:1016B0006B6F00016D5105016C6F00016E510501EA
:1016C0006D6F00016F5105016E6F732BFAEF0AF019
:1016D0006F510001606F050170510001616F0501DC
:1016E00071510001626F050172510001636F1200B8
:1016F00094948B94AFEF0BF07E86AD84670EB06E42
:101700007F6A12007CEC0BF09D9A9D98AD8A900E3A
:10171000AC6E1200866F9EA88BEF0BF08651AE6EFA
:10172000120000016051856F85518AEF0BF09EAA6F
:10173000A0EF0BF0AF500501646F9E9AA4EF0BF081
:1017400005016591AAEF0BF0ACA2A9EF0BF0AC98E4
:10175000AC88658165A197EF0BF06451120082ECB3
:101760000BF00001906BC4EF0BF00501636F635148
:10177000000190131200000190510501626F0001F9
:10178000906B050162511200956B966B976B986B8D
:10179000996B9A6B2AEF2BF05E515F11601161110A
:1017A000D8A4D8EF0BF0200EB5EC0BF000EF00F052
:1017B000D8905E350001976F05015F350001986F85
:1017C000050160350001996F0501613500019A6FCF
:1017D000956B966B120056515E6F57515F6F585163
:1017E000606F5951616FCCEC0BF0020E05015B5D2F
:1017F000D8A4FDEF0BF0000E5A5DD8B41AEF0CF030
:10180000D8A01AEF0CF05B515C6F5D6BD8905C3325
:101810005C510001972705015D5100019823000EDE
:101820005E6E5E5099235E509A23000E05015A2782
:10183000FE0E5B235A515B11D8B435EF0CF000015A
:1018400097510501A66F000198510501A76F00018E
:1018500099510501A86F00019A510501A96FAEECDD
:1018600007F0E2EC08F009EC08F005015A5100011C
:10187000956F05015B510001966F120000019751B1
:101880000501A06F000198510501A16F0001995158
:101890000501A26F00019A510501A36F0DEC08F03C
:1018A0002DEC09F0C7EF08F0000E0001955D606FA8
:1018B000020E965D6011D8A467EF0CF0972BD8B498
:1018C000982BD8B4992BD8B49A2B956B966B9551CD
:1018D0009611D8A481EF0CF097510501A66F000175
:1018E00098510501A76F000199510501A86F0001EA
:1018F0009A510501A96FAEEC07F0E2EC08F009EC93
:1019000008F00001952BD8B4962B96510501536F22
:10191000000195050501526F5229D8B4530752B101
:101920009FEF0CF0D8905331556F5231546F01EE48
:1019300000F05451E926EF50516FAAEF0CF0D89007
:101940005331556F5231546F02EE00F05451E92675
:10195000EF50516F5151120005014C6F000E000104
:10196000955D606F020E965D6011D8A4C4EF0CF017
:101970003EEC0CF00001972BD8B4982BD8B4992BDF
:10198000D8B49A2B956B966B95519611D8A4DEEF2F
:101990000CF097510501A66F000198510501A76F42
:1019A000000199510501A86F00019A510501A96F25
:1019B000AEEC07F0E2EC08F009EC08F0000195B19C
:1019C000F2EF0CF0D890963105014E6F0001953181
:1019D00005014D6F01EE00F04D51E9264C51EF6EBF
:1019E00000EF0DF0D890963105014E6F0001953152
:1019F00005014D6F02EE00F04D51E9264C51EF6E9E
:101A00000001952BD8B4962B120006510711D8B4BB
:101A1000120008510501566F030109510501576F66
:101A200003010A510501586F03010B510501596F5C
:101A300003010C5105015A6F03010D5105015B6F44
:101A4000EBEC0BF0030117510501446F4451ACEC72
:101A50000CF00501446B030118510501456F455118
:101A60000001606F616B60510501466F4651ACEC3F
:101A70000CF0030119510501446F4451ACEC0CF01A
:101A80000501446B03011A510501456F45510001E1
:101A9000606F616B60510501466F4651ACEC0CF014
:101AA00003011B510501446F4451ACEC0CF00501DE
:101AB000446B03011C510501456F45510001606FE6
:101AC000616B60510501466F4651ACEC0CF00301AF
:101AD0001D510501446F4451ACEC0CF00501446B01
:101AE00003011E510501456F45510001606F616B97
:101AF00060510501466F4651ACEC0CF003011F51DB
:101B00000501446F4451ACEC0CF00501446B03013A
:101B100020510501456F466B476B45510001606FD1
:101B2000050146510001616F050147510001626FD7
:101B3000636B60510501486F4851ACEC0CF0050136
:101B4000446B456B030121510501466F476B4651BC
:101B50000001606F050147510001616F626B636BAB
:101B600060510501486F4851ACEC0CF00501446B25
:101B7000456B466B030122510501476F4751000138
:101B8000606F616B626B636B60510501486F485118
:101B9000ACEC0CF0030123510501446F4451ACEC53
:101BA0000CF00501446B030124510501456F466BA0
:101BB000476B45510001606F050146510001616F9F
:101BC000050147510001626F636B60510501486F69
:101BD0004851ACEC0CF00501446B456B03012551F9
:101BE0000501466F476B46510001606F0501475183
:101BF0000001616F626B636B60510501486F485172
:101C0000ACEC0CF00501446B456B466B03012651AF
:101C10000501476F47510001606F616B626B636B39
:101C200060510501486F4851ACEC0CF0030127519D
:101C30000501446F4451ACEC0CF00501446B030109
:101C400028510501456F466B476B45510001606F98
:101C5000050146510001616F050147510001626FA6
:101C6000636B60510501486F4851ACEC0CF0050105
:101C7000446B456B030129510501466F476B465183
:101C80000001606F050147510001616F626B636B7A
:101C900060510501486F4851ACEC0CF00501446BF4
:101CA000456B466B03012A510501476F47510001FF
:101CB000606F616B626B636B60510501486F4851E7
:101CC000ACEC0CF003012B510501446F4451ACEC1A
:101CD0000CF00501446B03012C510501456F466B67
:101CE000476B45510001606F050146510001616F6E
:101CF000050147510001626F636B60510501486F38
:101D00004851ACEC0CF00501446B456B03012D51BF
:101D10000501466F476B46510001606F0501475151
:101D20000001616F626B636B60510501486F485140
:101D3000ACEC0CF00501446B456B466B03012E5176
:101D40000501476F47510001606F616B626B636B08
:101D500060510501486F4851ACEC0CF005014B6B2C
:101D6000D8904B35446FD89044372F0E4425456F9B
:101D700003EE00F04551E926EF500001606FE92ABB
:101D8000EF50616FE92AEF50626FE92AEF50636FFD
:101D900060510501466F4651ACEC0CF0D89005013E
:101DA0004B35446FD89044372F0E4425456F03EED2
:101DB00000F04551E926EF500001606FE92AEF502D
:101DC000616FE92AEF50626FE92AEF50636F0501F6
:101DD000466B000161510501476F486B496B4751E4
:101DE0000001606F050148510001616F0501495113
:101DF0000001626F636B605105014A6F4A51ACECA0
:101E00000CF0D89005014B35446FD89044372F0E15
:101E10004425456F03EE00F04551E926EF500001DF
:101E2000606FE92AEF50616FE92AEF50626FE92A8B
:101E3000EF50636F0501466B476B0001625105016E
:101E4000486F496B48510001606F0501495100011D
:101E5000616F626B636B605105014A6F4A51ACEC74
:101E60000CF0D89005014B35446FD89044372F0EB5
:101E70004425456F03EE00F04551E926EF5000017F
:101E8000606FE92AEF50616FE92AEF50626FE92A2B
:101E9000EF50636F0501466B476B486B0001635160
:101EA0000501496F49510001606F616B626B636BA3
:101EB000605105014A6F4A51ACEC0CF005014B2B07
:101EC000070E4B5DD8A4B0EF0EF00301575105018A
:101ED000446F4451ACEC0CF00501446B03015851C4
:101EE0000501456F466B476B45510001606F050169
:101EF00046510001616F050147510001626F636B3C
:101F000060510501486F4851ACEC0CF00501446B81
:101F1000456B030159510501466F476B465100015E
:101F2000606F050147510001616F626B636B605127
:101F30000501486F4851ACEC0CF00501446B456B52
:101F4000466B03015A510501476F47510001606F0D
:101F5000616B626B636B60510501486F4851ACEC7B
:101F60000CF003014F510501446F4451ACEC0CF0EF
:101F70000501446B030150510501456F466B476BEA
:101F800045510001606F050146510001616F050177
:101F900047510001626F636B60510501486F485102
:101FA000ACEC0CF00501446B456B0301515105018C
:101FB000466F476B46510001606F050147510001B4
:101FC000616F626B636B60510501486F4851ACEC07
:101FD0000CF00501446B456B466B03015251050142
:101FE000476F47510001606F616B626B636B6051BB
:101FF0000501486F4851ACEC0CF03EEF0CF0020EBE
:102000000301005DD8B408EF10F0D8A011EF10F074
:1020100005A111EF10F03EEC0CF00301059105EF66
:102020000DF0120005013D6B3F6BFF0E0001C15D1D
:10203000D8A468EF10F00001BF2BD8B4C02B050165
:102040003F51D8A441EF10F00001BB510501566F7C
:102050000001BC510501576F0001BD510501586FCA
:102060000001BE510501596F0001BF5105015A6FB2
:102070000001C05105015B6FEBEC0BF0010E050197
:102080003F6F54EC0CF00001C16FFF0EC15DD8A48E
:1020900068EF10F0080EC227000EC323000EC42301
:1020A000000EC523000EBF5D606F040EC05D6011A1
:1020B000D8A41BEF10F0BF6BC06BBB2BD8B4BC2BEC
:1020C000D8B4BD2BD8B4BE2B05013F6B1BEF10F06D
:1020D000BB510501566F0001BC510501576F00014E
:1020E000BD510501586F0001BE510501596F000136
:1020F000BF5105015A6F0001C05105015B6FEBEC48
:102100000BF00001C15105013D6F3E6B3D51D8B44C
:1021100092EF10F03DA192EF10F03E2BD8903D339E
:1021200086EF10F03E515E6E010E406F5E509CEFE8
:1021300010F0D89040375E06D8A499EF10F04051C7
:102140000001C113C151ACEC0CF03EEC0CF00001ED
:10215000C25105013E25406F000E5E6E0001C35165
:102160005E200501416F0001C4515E200501426FF0
:102170000001C5515E200501436F40510001A325B8
:10218000C66F050141510001A421C76F000E5E6EAC
:10219000050142515E200001C86F050143515E20D8
:1021A0000001C96FFF0EC15DD8A4DFEF10F0080E6B
:1021B000C227000EC323000EC423000EC523C65140
:1021C000606FC751616FC851626FC951636F120070
:1021D000010E5E6F5F6B606B616BCCEC0BF054ECCF
:1021E0000CF00501246F54EC0CF00501256F24510F
:1021F00000019B6F0501255100019C6F54EC0CF010
:102200000501246F54EC0CF00501256F24510001E9
:102210009D6F0501255100019E6F54EC0CF00501E6
:10222000246F54EC0CF00501256F245100019F6FC1
:10223000050125510001A06F54EC0CF00501246F3D
:1022400054EC0CF00501256F24510001A16F05012C
:1022500025510001A26F54EC0CF00501246F54ECE1
:102260000CF00501256F24510001A36F05012551D4
:102270000001A46F54EC0CF00501246F54EC0CF039
:102280000501256F54EC0CF00501246F54EC0CF0A3
:102290000501256F54EC0CF00501266F54EC0CF091
:1022A0000501276F24510001A56F0501255100018B
:1022B000A66F050126510001A76F050127510001F6
:1022C000A86F54EC0CF00501246F54EC0CF00501E0
:1022D000256F24510001A96F050125510001AA6F46
:1022E000780EA95D606F240EAA5D6011D8B47CEFF2
:1022F00011F0010EB5EC0BF054EC0CF00501246F5D
:1023000054EC0CF00501256F54EC0CF00501246F22
:1023100054EC0CF00501256F54EC0CF00501266F10
:1023200054EC0CF00501276F24510001AB6F05013F
:1023300025510001AC6F050126510001AD6F05016B
:1023400027510001AE6F020EAF6FB06BB16BB26B75
:10235000AF519F25B36FB051A021B46F000E5E6ED8
:10236000B1515E20B56FB2515E20B66FB351A12559
:10237000B76FB451A221B86F000E5E6EB5515E20EA
:10238000B96FB6515E20BA6F05013CA133EF12F070
:1023900000019B510501286F00019C510501296F27
:1023A0002A6B2B6B010E28252C6F000ED8B0010E66
:1023B00029252D6F000ED8B0010E2A252E6F000E94
:1023C000D8B0010E2B252F6FD8902C35306F2D35BE
:1023D000316F2E35326F2F35336F050E5E6ED8900C
:1023E00030373137323733375E2EEFEF11F031515E
:1023F000346F3251356F3351366F376BD890363377
:1024000035333433D8903633353334330001B75154
:1024100005013425386F0001B85105013521396FA8
:102420000001B951050136213A6F0001BA51050189
:1024300037213B6F0001A3510501385D0001606F3A
:10244000A4510501395D0001601305013A510001F5
:10245000601305013B5100016011D8B433EF12F055
:10246000020EB5EC0BF00001B351BB6FB451BC6F61
:10247000B551BD6FB651BE6FFF0EBF6FC06FFF0E7F
:10248000C16FC26BC36BC46BC56BA351C66FA45144
:10249000C76FC86BC96B120012511311D8A454EF47
:1024A00012F0080EB5EF0BF00001B9517F0B0501DA
:1024B000176F0001B8510501166F0001B7510501F2
:1024C000156F146BD8901537163717371537163721
:1024D00017371351196F1205186F1829D8B4190737
:1024E000D89018351A6F19351B6F050E5E6ED8908F
:1024F0001A371B375E2E77EF12F014511A251C6F16
:1025000015511B211D6F000E5E6E16515E201E6F51
:1025100017515E201F6F1D510301086F05011E51E9
:102520000301096F05011F5103010A6F0B6BD8905E
:102530000A3309330833D8900A33093308330A5170
:102540007F0B0501176F030109510501166F030188
:1025500008510501156F146BD890153716371737CA
:10256000153716371737D8801C51145503010C6FD7
:1025700005011D51155503010D6F08510501566FD9
:10258000030109510501576F03010A510501586FF5
:1025900003010B510501596F03010C5105015A6FDD
:1025A00003010D5105015B6FEBEC0BF005011251BE
:1025B0000301066F050113510301076F54EC0CF082
:1025C0000501206F54EC0CF00501216F205103012F
:1025D000176F050121510301186F10910F9111918F
:1025E0001291F00E05012115146F14390F0B030120
:1025F0000E6F080E0E5DD8A401EF13F0108112EFDC
:1026000013F0040E0E5DD8A409EF13F00F8112EF42
:1026100013F00A0E0E5DD8A411EF13F0118112EF22
:1026200013F012810E0E05012115146FD89014318C
:102630000301166FC00E05012015146F010E211540
:10264000156FD89015310001616F0501143100013B
:10265000606F050E626FD89061336033622F2BEF8D
:1026600013F060510301136F380E05012015146F2C
:10267000D89014310301146FD8901433D8901433C8
:10268000070E050120150301156F54EC0CF0050130
:10269000206F54EC0CF00501216F20510301196FDC
:1026A0000501215103011A6F54EC0CF00501206F54
:1026B00054EC0CF00501216F205103011B6F050143
:1026C000215103011C6F54EC0CF00501206F54ECF8
:1026D0000CF00501216F205103011D6F05012151EF
:1026E00003011E6F54EC0CF00501206F54EC0CF04C
:1026F0000501216F54EC0CF00501226F54EC0CF035
:102700000501236F205103011F6F050121510301B2
:10271000206F050122510301216F0501235103019F
:10272000226F54EC0CF00501206F54EC0CF0050105
:10273000216F54EC0CF00501226F54EC0CF00501F4
:10274000236F20510301236F050121510301246FE1
:10275000050122510301256F050123510301266F55
:1027600054EC0CF00501206F54EC0CF00501216FC6
:1027700054EC0CF00501226F54EC0CF00501236FB2
:1027800020510301276F050121510301286F050125
:1027900022510301296F0501235103012A6F54ECD3
:1027A0000CF00501206F54EC0CF00501216F54EC86
:1027B0000CF00501226F54EC0CF00501236F205141
:1027C00003012B6F0501215103012C6F05012251DB
:1027D00003012D6F0501235103012E6F54EC0CF002
:1027E0000501206F54EC0CF00501216F54EC0CF046
:1027F0000501226F54EC0CF00501236F20510301F9
:102800002F6F050121510301306F05012251030192
:10281000316F050123510301326F54EC0CF00501B7
:10282000206F54EC0CF00501216F54EC0CF0050105
:10283000226F54EC0CF00501236F20510301336F1C
:10284000050121510301346F050122510301356F48
:10285000050123510301366F54EC0CF00501206F84
:1028600054EC0CF00501216F54EC0CF00501226FC3
:1028700054EC0CF00501236F20510301376F050163
:1028800021510301386F050122510301396F050100
:10289000235103013A6F54EC0CF00501206F54EC06
:1028A0000CF00501216F54EC0CF00501226F54EC83
:1028B0000CF00501236F205103013B6F05012151ED
:1028C00003013C6F0501225103013D6F05012351B6
:1028D00003013E6F54EC0CF00501206F54EC0CF03A
:1028E0000501216F54EC0CF00501226F54EC0CF043
:1028F0000501236F205103013F6F050121510301A1
:10290000406F050122510301416F0501235103016D
:10291000426F54EC0CF00501206F54EC0CF00501F3
:10292000216F54EC0CF00501226F54EC0CF0050102
:10293000236F20510301436F050121510301446FAF
:10294000050122510301456F050123510301466F23
:1029500054EC0CF00501206F54EC0CF00501216FD4
:1029600054EC0CF00501226F54EC0CF00501236FC0
:1029700020510301476F050121510301486F0501F3
:1029800022510301496F0501235103014A6F54ECA1
:102990000CF00501206F54EC0CF00501216F54EC94
:1029A0000CF00501226F54EC0CF00501236F20514F
:1029B00003014B6F0501215103014C6F05012251A9
:1029C00003014D6F0501235103014E6F0501205195
:1029D0000301576F050121510301586F0501225171
:1029E0000301596F0501235103015A6F54EC0CF098
:1029F0000501206F54EC0CF00501216F54EC0CF034
:102A00000501226F54EC0CF00501236F20510301E6
:102A10004F6F050121510301506F05012251030140
:102A2000516F050123510301526F54EC0CF0050165
:102A3000206F54EC0CF00501216F54EC0CF00501F3
:102A4000226F54EC0CF00501236F20510301536FEA
:102A5000050121510301546F050122510301556FF6
:102A6000050123510301566F010E5B6FFF0E5C6F72
:102A70005D6FFC0E5E6FFF0E5F6F606B040E616F2B
:102A80001200FFEC0FF0010E0301006F1200FFECCB
:102A90000FF00301606B616B010E5B5DD8A464EF06
:102AA00015F0060E5C5D0001606F000E03015D5DB8
:102AB00000016011D8A464EF15F0020E03015B6FF2
:102AC000FC0E5C6FFF0E5D6F020E03015B5DD8A410
:102AD0007DEF15F0FC0E5C5D0001606F030E0301DD
:102AE0005D5D00016011D8A47DEF15F0040E0301B7
:102AF0005B6FFC0E5C6F030E5D6F040E03015B5D8C
:102B0000D8B486EF15F0D8A01DEF16F0FC0E5C5D72
:102B10000001606F030E03015D5D00016011D8A428
:102B20001DEF16F0040E03015E27000E5F23FC0E5E
:102B30005C6FFF0E5D6F050111A1CBEF15F0030176
:102B40004F51501151115211D8A4C0EF15F04F51EF
:102B5000501151115211D8A4C0EF15F012EC10F021
:102B60000001605103014F6F000161510301506F7B
:102B7000000162510301516F000163510301526F63
:102B800012EC10F000016051916F6151926F62512F
:102B9000936F6351946F03014F510501566F030109
:102BA00050510501576F030151510501586F030141
:102BB00052510501596F03015E5105015A6F03011E
:102BC0005F5105015B6FEBEC0BF0050111A1FDEF0F
:102BD00015F000019151ACEC0CF000019251ACECFD
:102BE0000CF000019351ACEC0CF000019451ACECF2
:102BF0000CF03EEC0CF00DEF16F054EC0CF0000174
:102C0000916F54EC0CF00001926F54EC0CF0000149
:102C1000936F54EC0CF00001946F0001915103018B
:102C20004B6F0001925103014C6F0001935103015E
:102C30004D6F0001945103014E6F020E03015B5D65
:102C4000D8B426EF16F0D8A0AFEF16F0040E5C272C
:102C5000000E5D23050111A15BEF16F003014B513E
:102C60004C114D114E11D8A450EF16F012EC10F08B
:102C70000001605103014B6F0001615103014C6F72
:102C80000001625103014D6F0001635103014E6F5A
:102C90004B51576F4C51586F4D51596F4E515A6FA0
:102CA00012EC10F000016051916F6151926F62510E
:102CB000936F6351946F03014B510501566F0301EC
:102CC0004C510501576F03014D510501586F030128
:102CD0004E510501596F03015C5105015A6F030103
:102CE0005D5105015B6FEBEC0BF0050111A18DEF60
:102CF00016F000019151ACEC0CF000019251ACECDB
:102D00000CF000019351ACEC0CF000019451ACECD0
:102D10000CF03EEC0CF09DEF16F054EC0CF00001C2
:102D2000916F54EC0CF00001926F54EC0CF0000128
:102D3000936F54EC0CF00001946F00019151050168
:102D40005E6F0001925105015F6F00019351050113
:102D5000606F000194510501616FCCEC0BF0010E26
:102D600003015B5DD8A414EF17F05C2BD8B45D2B86
:102D7000050111A1E1EF16F0D89003015C350501C2
:102D80000D6F03015D3505010E6FD8900D370E37BD
:102D90002F0E0D250F6F000E0E21106F12EC10F08C
:102DA00003EE00F005010F51E92600016051EF6EBE
:102DB000E92A6151EF6EE92A6251EF6EE92A635107
:102DC000EF6ED89003015C3505010D6F03015D3591
:102DD00005010E6FD8900D370E372F0E0D250F6F92
:102DE000000E0E21106F03EE00F00F51E926EF5098
:102DF0000001916FE92AEF50926FE92AEF50936F2B
:102E0000E92AEF50946F915105015E6F00019251D4
:102E100005015F6F000193510501606F000194513E
:102E20000501616FCCEF0BF01200010E0301005D94
:102E3000D8B41FEF17F0D8B01FEF17F0000C0151F6
:102E40001F5D0001606F03010251205D00016013EE
:102E500003010351215D0001601303010451225D50
:102E600000016011D8A439EF17F0100EB5EC0BF08B
:102E7000000C000E0301605D0001606F040E030191
:102E8000615D00016011D8A44AEF17F005011191AE
:102E900047EC15F00301602BD8B4612B012BD8B49B
:102EA000022BD8B4032BD8B4042B54EF0CF005013B
:102EB0000A6F020E0301005DD8B463EF17F0D8B0BB
:102EC00063EF17F0120005010B91030101511F5D23
:102ED0000001606F03010251205D000160130301D6
:102EE0000351215D0001601303010451225D0001C3
:102EF0006011D8A486EF17F003011F2BD8B4202B44
:102F0000D8B4212BD8B4222B05010B81000E03016C
:102F1000605D0001606F040E0301615D00016011DE
:102F2000D8A499EF17F0050111910BB1118147EC6D
:102F300015F00301602BD8B4612B012BD8B4022B00
:102F4000D8B4032BD8B4042B05010A51ACEC0CF017
:102F5000030105811200FF0EF46FF56FF66FF76F36
:102F6000FF0EF86FF96FFA6FFB6FFC6BFD6BFFECF8
:102F70000FF00401F0510301016F0401F15103014D
:102F8000026F0401F2510301036F0401F3510301C5
:102F9000046F000E0401F35DD8A4DBEF17F0000E00
:102FA000F25DD8A4DBEF17F01C0EF15DD8A4DBEFC7
:102FB00017F0000EF05DD8B4E1EF17F0D8B07BEF5A
:102FC00018F0F151F86FF251F96FF351FA6FFB6B92
:102FD000D890FA33F933F833D890FA33F933F83319
:102FE000FA517F0B0501036F0401F9510501026FCE
:102FF0000401F8510501016F006BD89001370237C9
:103000000337013702370337D8800401F051050137
:1030100000550401FC6FF151050101550401FD6FDC
:10302000FC51FD11D8A420EF18F0010EF85FD8A0D4
:10303000F95FD8A0FA5FD8A0FB5FFC6B040EFD6FB0
:10304000D890F8350501006F0401F9350501016FCD
:103050000401FA350501026F0401FB350501036F18
:10306000D89000370137023703372F0E0025046F41
:10307000000E0121056F000E0221066F000E0321D4
:10308000076F03EE00F00451E926EF500001916F45
:10309000E92AEF50926FE92AEF50936FE92AEF5037
:1030A000946F0401F85103015C6F0401F9510301AD
:1030B0005D6F0401FC510301606F0401FD510301C8
:1030C000616F000191510501566F00019251050198
:1030D000576F000193510501586F0001945105018C
:1030E000596F0401FC5105015A6F0401FD5105019E
:1030F0005B6FEBEF0BF0000EF35DD8A48CEF18F0D4
:10310000040EF25DD8A48CEF18F01C0EF15DD8A46B
:103110008CEF18F0000EF05DD8B4F4EF18F0D8A0E2
:10312000F4EF18F0000EF027E40EF123FB0EF2236B
:10313000FF0EF323F151F86FF251F96FF351FA6F6B
:10314000FB6BD890FA33F933F833D890FA33F9336C
:10315000F833FA517F0B0501036F0401F9510501A2
:10316000026F0401F8510501016F006BD89001371F
:1031700002370337013702370337D8800401F05193
:10318000050100550401FC6FF151050101550401D1
:10319000FD6FF951F46FFA51F56FFB51F66FF76B54
:1031A000F6510501036F0401F5510501026F040199
:1031B000F4510501016F006BD8800401F85105013D
:1031C00000550401F86FF951050101550401F96F2B
:1031D000FA51050102550401FA6FFB51050103552F
:1031E0000401FB6F42EF19F0000EF35DD8A405EF68
:1031F00019F0000EF25DD8A405EF19F01C0EF15D78
:10320000D8A405EF19F0000EF05DD8B442EF19F024
:10321000D8A042EF19F0000EF027E40EF123FF0EC4
:10322000F223FF0EF323F151F86FF251F96FF351CE
:10323000FA6FFB6BD890FA33F933F833D890FA333E
:10324000F933F833FA517F0B0501036F0401F9518B
:103250000501026F0401F8510501016F006BD89060
:10326000013702370337013702370337D8800401AB
:10327000F051050100550401FC6FF15105010155A4
:103280000401FD6FFC51FD11D8A452EF19F0010E9D
:10329000F85FD8A0F95FD8A0FA5FD8A0FB5FFC6BFD
:1032A000040EFD6FFF0EF45D0001606FFF0E040160
:1032B000F55D00016013FF0E0401F65D000160136F
:1032C000FF0E0401F75D00016011D8B4B9EF19F0E9
:1032D000D8900401F4350501006F0401F5350501AE
:1032E000016FD8900037013703014F510501566F28
:1032F000030150510501576F030151510501586FEA
:10330000030152510501596F00515A6F01515B6F12
:10331000EBEC0BF054EC0CF00001916F54EC0CF062
:103320000001926F54EC0CF00001936F54EC0CF020
:103330000001946F040E03015B6F000191510301C2
:103340004B6F0001925103014C6F00019351030137
:103350004D6F0001945103014E6FD8900401F43574
:1033600003015E6F0401F53503015F6FD8905E378E
:103370005F37FF0E0401F85D0001606FFF0E04016E
:10338000F95D00016013FF0E0401FA5D0001601396
:10339000FF0E0401FB5D00016011D8B421EF1AF0AB
:1033A000D8900401F8350501006F0401F9350501D5
:1033B000016FD8900037013703014B510501566F5B
:1033C00003014C510501576F03014D510501586F21
:1033D00003014E510501596F00515A6F01515B6F46
:1033E000EBEC0BF054EC0CF00001916F54EC0CF092
:1033F0000001926F54EC0CF00001936F54EC0CF050
:103400000001946F915105015E6F00019251050119
:103410005F6F000193510501606F00019451050138
:10342000616FCCEC0BF0D8900401F83503015C6FB0
:103430000401F93503015D6FD8905C375D37020EEA
:103440005B6F0401FC51FE6FFD51FF6F0501086BBE
:10345000096B31EF1AF054EC0CF00501082BD8B4CD
:10346000092B08510401FE5D0001606F050109513F
:103470000401FF5D00016011D8A42BEF1AF00401D4
:10348000FC510301606F0401FD510301616F1200E3
:10349000EF6FED510501126F0401EE510501136F3D
:1034A0004CEC12F00301016B026B036B046B040123
:1034B000EF510301006F0591040E005DD8B464EF75
:1034C0001AF0D8A075EF1AF01F510401F06F030134
:1034D00020510401F16F030121510401F26F030136
:1034E00022510401F36FABEF17F012000401C96B16
:1034F000CA6BCB6B15EC17F00401EA6F15EC17F0F3
:103500000401EB6FEA51EB11D8A48BEF1AF041ECF8
:1035100015F0A6EF1AF0EA51C96FEB51CA6FE96BCB
:10352000020EE925EC6F15EC17F00001816F04EE37
:10353000C9F00401EC51E92600018151EF6E04014C
:10354000E92B1E0EE95DD8A490EF1AF00401C951D1
:103550000001606F0401CA510001616F0401CB5189
:103560000001626F0401CC510001636F0401CD5171
:103570000001646F0401CE510001656F0401CF5159
:103580000001666F0401D0510001676F0401D15141
:103590000001686F0401D2510001696F0401D35129
:1035A00000016A6F0401D45100016B6F0401D55111
:1035B00000016C6F0401D65100016D6F0401D751F9
:1035C00000016E6F0401D85100016F6F0401D951E1
:1035D0000001706F0401DA510001716F0401DB51C9
:1035E0000001726F0401DC510001736F0401DD51B1
:1035F0000001746F0401DE510001756F0401DF5199
:103600000001766F0401E0510001776F0401E15180
:103610000001786F0401E2510001796F0401E35168
:1036200000017A6F0401E45100017B6F0401E55150
:1036300000017C6F0401E65100017D6F0401E75138
:1036400000017E6F0401E85100017F6F120000014C
:10365000CA510401ED6F0001CB510401EE6F010E60
:1036600048EC1AF00401C66BC76B76EC1AF0000147
:1036700060510401886F000161510401896F0001EC
:10368000625104018A6F0001635104018B6F0001D4
:10369000645104018C6F0001655104018D6F0001BC
:1036A000665104018E6F0001675104018F6F0001A4
:1036B00068510401906F000169510401916F00018C
:1036C0006A510401926F00016B510401936F000174
:1036D0006C510401946F00016D510401956F00015C
:1036E0006E510401966F00016F510401976F000144
:1036F00070510401986F000171510401996F00012C
:10370000725104019A6F0001735104019B6F000113
:10371000745104019C6F0001755104019D6F0001FB
:10372000765104019E6F0001775104019F6F0001E3
:1037300078510401A06F000179510401A16F0001CB
:103740007A510401A26F00017B510401A36F0001B3
:103750007C510401A46F00017D510401A56F00019B
:103760007E510401A66F00017F510401A76F8851AB
:103770008911D8B4A0EF1CF08A51A86F8B51A96FA2
:103780008C51AA6F8D51AB6F8E51AC6F8F51AD6F55
:103790009051AE6F9151AF6F9251B06F9351B16F25
:1037A0009451B26F9551B36F9651B46F9751B56FF5
:1037B0009851B66F9951B76F9A51B86F9B51B96FC5
:1037C0009C51BA6F9D51BB6F9E51BC6F9F51BD6F95
:1037D000A051BE6FA151BF6FA251C06FA351C16F65
:1037E000A451C26FA551C36FA651C46FA751C56F35
:1037F0001E0E05017B6F7C6BA80E7D6F040E7E6F25
:103800007F6B1E0E806F816B6A0E826F040E836F5A
:10381000846B7EEC09F0000160B113EF1CF0040131
:10382000C89315EF1CF00401C883C8A31CEF1CF05B
:103830008851C66F8951C76F76EC1AF0000160514C
:103840000401886F000161510401896F0001625118
:1038500004018A6F0001635104018B6F0001645100
:1038600004018C6F0001655104018D6F00016651E8
:1038700004018E6F0001675104018F6F00016851D0
:103880000401906F000169510401916F00016A51B8
:103890000401926F00016B510401936F00016C51A0
:1038A0000401946F00016D510401956F00016E5188
:1038B0000401966F00016F510401976F0001705170
:1038C0000401986F000171510401996F0001725158
:1038D00004019A6F0001735104019B6F0001745140
:1038E00004019C6F0001755104019D6F0001765128
:1038F00004019E6F0001775104019F6F0001785110
:103900000401A06F000179510401A16F00017A51F7
:103910000401A26F00017B510401A36F00017C51DF
:103920000401A46F00017D510401A56F00017E51C7
:103930000401A66F00017F510401A76FB7EF1BF0D0
:1039400041EC15F00401C651C711D8A4ABEF1CF02F
:10395000080EB5EC0BF00401C6510001606F0401C4
:10396000C7510001616F1200676F49516A6F4A5178
:103970006B6F4B516C6F4C516D6F4D516E6F4E5163
:103980006F6F4F51706F5051716F5151726F525133
:10399000736F5351746F5451756F5551766F565103
:1039A000776F5751786F5851796F59517A6F5A51D3
:1039B0007B6F5B517C6F5C517D6F5D517E6F5E51A3
:1039C0007F6F5F51806F6051816F6151826F625173
:1039D000836F6351846F6451856F6551866F665143
:1039E000876F27EC1BF0000160510401686F000134
:1039F00061510401696F68516911D8B407EF1DF076
:103A00006851ED6F6951EE6F675148EF1AF012007F
:103A10004751ED6F4851EE6F010E48EC1AF003016B
:103A20000FA11DEF1DF0040147510001CA6F0401F1
:103A300048510001CB6F41EF15F0040EB5EC0BF0CF
:103A400041EF15F027516A6F28516B6F29516C6F48
:103A50002A516D6F2B516E6F2C516F6F2D51706FFE
:103A60002E51716F2F51726F3051736F3151746FCE
:103A70003251756F3351766F3451776F3551786F9E
:103A80003651796F37517A6F38517B6F39517C6F6E
:103A90003A517D6F3B517E6F3C517F6F3D51806F3E
:103AA0003E51816F3F51826F4051836F4151846F0E
:103AB0004251856F4351866F4451876F27EC1BF04D
:103AC000000160510401456F000161510401466F1E
:103AD00045514611D8B473EF1DF04551476F46511B
:103AE000486F08EF1DF01200010E0301006F0591F1
:103AF000040126B180EF1DF005013C9182EF1DF01D
:103B000005013C81E8EC10F0010E0001CA6FCB6B9F
:103B10001200220E0501DE6F170EDF6F000EE06F40
:103B20000B0EE16FE26BDE0EE36F010EE46F000E31
:103B30004009E56FD3EC02F0220E0501EB6F170E82
:103B4000EC6F000EED6FB5EC02F0220E0501DE6F9A
:103B5000170EDF6F000EE06F090EE16FE26BEA0EE9
:103B6000E36F010EE46F000E4009E56FD3EC02F045
:103B7000680E0001606F91EC0BF0220E0501C66F1C
:103B8000170EC76F000EC86F00019B510501C96F6A
:103B900000019C510501CA6FEFEC04F0220E0501F3
:103BA000EB6F170EEC6F000EED6FB5EC02F0220E0E
:103BB0000501DE6F170EDF6F000EE06F0E0EE16F76
:103BC000E26BF40EE36F010EE46F000E4009E56F47
:103BD000D3EC02F0680E0001606F91EC0BF0220E46
:103BE0000501C66F170EC76F000EC86F00019D510B
:103BF0000501C96F00019E510501CA6FEFEC04F089
:103C0000220E0501EB6F170EEC6F000EED6FB5EC99
:103C100002F0220E0501DE6F170EDF6F000EE06F5F
:103C2000170EE16FE26B020EE36F020EE46F000EFF
:103C30004009E56FD3EC02F0680E0001606F91EC73
:103C40000BF0220E0501C66F170EC76F000EC86F6E
:103C500000019F510501C96F0001A0510501CA6F04
:103C6000EFEC04F0220E0501EB6F170EEC6F000E67
:103C7000ED6FB5EC02F0220E0501DE6F170EDF6F5F
:103C8000000EE06F160EE16FE26B1A0EE36F020E8C
:103C9000E46F000E4009E56FD3EC02F0680E0001FE
:103CA000606F91EC0BF0220E0501C66F170EC76F07
:103CB000000EC86F0001A1510501C96F0001A2519A
:103CC0000501CA6FEFEC04F0220E0501EB6F170E31
:103CD000EC6F000EED6FB5EC02F0220E0501DE6F09
:103CE000170EDF6F000EE06F110EE16FE26B300E0A
:103CF000E36F020EE46F000E4009E56FD3EC02F0B3
:103D0000680E0001606F91EC0BF0220E0501C66F8A
:103D1000170EC76F000EC86F0001A3510501C96FD0
:103D20000001A4510501CA6FEFEC04F0220E050159
:103D3000EB6F170EEC6F000EED6FB5EC02F0220E7C
:103D40000501DE6F170EDF6F000EE06F0F0EE16FE3
:103D5000E26B420EE36F020EE46F000E4009E56F66
:103D6000D3EC02F0680E0001606F91EC0BF0220EB4
:103D70000501CF6F170ED06F000ED16F0001A55156
:103D80000501D26F0001A6510501D36F0001A751B3
:103D90000501D46F0001A8510501D56F60EC03F057
:103DA000220E0501EB6F170EEC6F000EED6FB5ECF8
:103DB00002F0220E0501DE6F170EDF6F000EE06FBE
:103DC000090EE16FE26B520EE36F020EE46F000E1C
:103DD0004009E56FD3EC02F0680E0001606F91ECD2
:103DE0000BF0220E0501C66F170EC76F000EC86FCD
:103DF0000001A9510501C96F0001AA510501CA6F4F
:103E0000EFEC04F0220E0501EB6F170EEC6F000EC5
:103E1000ED6FB5EC02F0220E0501DE6F170EDF6FBD
:103E2000000EE06F0E0EE16FE26B5C0EE36F020EB0
:103E3000E46F000E4009E56FD3EC02F0680E00015C
:103E4000606F91EC0BF0220E0501CF6F170ED06F53
:103E5000000ED16F0001AB510501D26F0001AC51D2
:103E60000501D36F0001AD510501D46F0001AE51C2
:103E70000501D56F60EC03F0220E0501EB6F170E04
:103E8000EC6F000EED6FB5EC02F0220E0501DE6F57
:103E9000170EDF6F000EE06F1A0EE16FE26B6A0E15
:103EA000E36F020EE46F000E4009E56FD3EC02F001
:103EB000680E0001606F91EC0BF0220E0501CF6FD0
:103EC000170ED06F000ED16F0001AF510501D26FF8
:103ED0000001B0510501D36F0001B1510501D46F4C
:103EE0000001B2510501D56F60EC03F0220E05010F
:103EF000EB6F170EEC6F000EED6FB5EC02F0220EBB
:103F00000501DE6F170EDF6F000EE06F190EE16F17
:103F1000E26B840EE36F020EE46F000E4009E56F62
:103F2000D3EC02F0680E0001606F91EC0BF0220EF2
:103F30000501CF6F170ED06F000ED16F0001B35186
:103F40000501D26F0001B4510501D36F0001B551D5
:103F50000501D46F0001B6510501D56F60EC03F087
:103F6000220E0501EB6F170EEC6F000EED6FB5EC36
:103F700002F0220E0501DE6F170EDF6F000EE06FFC
:103F8000130EE16FE26B9E0EE36F020EE46F000E04
:103F90004009E56FD3EC02F0680E0001606F91EC10
:103FA0000BF0220E0501CF6F170ED06F000ED16FF0
:103FB0000001B7510501D26F0001B8510501D36F5F
:103FC0000001B9510501D46F0001BA510501D56F47
:103FD00060EC03F0220E0501EB6F170EEC6F000E84
:103FE000ED6FB5EC02F0220E0501DE6F170EDF6FEC
:103FF000000EE06F180EE16FE26BB20EE36F020E7F
:10400000E46F000E4009E56FD3EC02F0680E00018A
:10401000606F91EC0BF0220E0501CF6F170ED06F81
:10402000000ED16F0001BB510501D26F0001BC51E0
:104030000501D36F0001BD510501D46F0001BE51D0
:104040000501D56F60EC03F0220E0501EB6F170E32
:10405000EC6F000EED6FB5EC02F0220E0501DE6F85
:10406000170EDF6F000EE06F170EE16FE26BCA0EE6
:10407000E36F020EE46F000E4009E56FD3EC02F02F
:10408000680E0001606F91EC0BF0220E0501CF6FFE
:10409000170ED06F000ED16F0001BF510501D26F16
:1040A0000001C0510501D36FD46BD56B60EC03F0F8
:1040B000220E0501EB6F170EEC6F000EED6FB5ECE5
:1040C00002F0220E0501DE6F170EDF6F000EE06FAB
:1040D000120EE16FE26BE20EE36F020EE46F000E70
:1040E0004009E56FD3EC02F0220E0501BF6F170EF9
:1040F000C06F000EC16F0001C2510501C26F000107
:10410000C3510501C36F0001C4510501C46F000113
:10411000C5510501C56FB5EC05F0220E0501EB6F29
:10412000170EEC6F000EED6FB5EC02F0220E0501DC
:10413000DE6F170EDF6F000EE06F130EE16FE26BA4
:10414000F40EE36F020EE46F000E4009E56FD3EC4E
:1041500002F0220E0501EE6F170EEF6F000EF06FEA
:104160000001C15109EC03F0220E0501EB6F170E9F
:10417000EC6F000EED6FB5EC02F0220E0501DE6F64
:10418000170EDF6F000EE06F160EE16FE26B080E88
:10419000E36F030EE46F000E4009E56FD3EC02F00D
:1041A000680E0001606F91EC0BF0220E0501CF6FDD
:1041B000170ED06F000ED16F0001C6510501D26FEE
:1041C0000001C7510501D36F0001C8510501D46F2B
:1041D0000001C9510501D56F60EC03F0220E050105
:1041E000EB6F170EEC6F000EED6FB5EF02F0220EC5
:1041F0000501DE6F170EDF6F000EE06F080EE16F36
:10420000E26BD60EE36F010EE46F000E4009E56F1E
:10421000D3EC02F0BBEC0BF00401256F220E05017C
:10422000EE6F170EEF6F000EF06F0401255109ECD1
:1042300003F0220E0501EB6F170EEC6F000EED6F11
:10424000B5EF02F0220E0501DE6F170EDF6F000ED4
:10425000E06F070EE16FE26BC60EE36F000EE46FD6
:10426000000E4009E56FD3EC02F0220E0501BA6F93
:10427000170EBB6F000EBC6F030106510501BD6F29
:10428000030107510501BE6FC6EC05F0220E0501C2
:10429000EB6F170EEC6F000EED6FB5EC02F0220E17
:1042A0000501DE6F170EDF6F000EE06F0A0EE16F83
:1042B000E26BCE0EE36F000EE46F000E4009E56F77
:1042C000D3EC02F0030110A17BEF21F0220E0501D7
:1042D000DE6F170EDF6F000EE06F040EE16FE26B12
:1042E000D80EE36F000EE46F000E4009E56FD3ECCB
:1042F00002F0BEEF21F00FA193EF21F0220E050195
:10430000DE6F170EDF6F000EE06F030EE16FE26BE2
:10431000DC0EE36F000EE46F000E4009E56FD3EC96
:1043200002F0BEEF21F011A1ABEF21F0220E05014A
:10433000DE6F170EDF6F000EE06F070EE16FE26BAE
:10434000E00EE36F000EE46F000E4009E56FD3EC62
:1043500002F0BEEF21F0220E0501DE6F170EDF6FB7
:10436000000EE06F050EE16FE26BE80EE36F000EEA
:10437000E46F000E4009E56FD3EC02F0200E00015F
:10438000606F91EC0BF0280E0001606F91EC0BF068
:10439000220E0501BA6F170EBB6F000EBC6F030132
:1043A0000E510501BD6FBE6BC6EC05F0290E000174
:1043B000606F91EC0BF0220E0501EB6F170EEC6FA6
:1043C000000EED6FB5EC02F0220E0501DE6F170E48
:1043D000DF6F000EE06F0D0EE16FE26BEE0EE36F2C
:1043E000000EE46F000E4009E56FD3EC02F0220EE0
:1043F0000501EB6F170EEC6F000EED6FB5EC02F0E0
:10440000220E0501DE6F170EDF6F000EE06F080E43
:10441000E16FE26BFC0EE36F000EE46F000E4009EB
:10442000E56FD3EC02F0220E0501B66F170EB76FE1
:10443000000EB86F03011651D5EC05F0220E0501F0
:10444000EB6F170EEC6F000EED6FB5EC02F0220E65
:104450000501DE6F170EDF6F000EE06F090EE16FD2
:10446000E26B040EE36F010EE46F000E4009E56F8E
:10447000D3EC02F0220E0501B66F170EB76F000ED7
:10448000B86F03011351D5EC05F0220E0501EB6F57
:10449000170EEC6F000EED6FB5EC02F0220E050169
:1044A000DE6F170EDF6F000EE06F0A0EE16FE26B3A
:1044B0000E0EE36F010EE46F000E4009E56FD3ECC2
:1044C00002F0220E0501B66F170EB76F000EB86F1F
:1044D00003011451D5EC05F0220E0501EB6F170E08
:1044E000EC6F000EED6FB5EC02F0220E0501DE6FF1
:1044F000170EDF6F000EE06F0A0EE16FE26B180E11
:10450000E36F010EE46F000E4009E56FD3EC02F09B
:10451000220E0501B66F170EB76F000EB86F0301BC
:104520001551D5EC05F0220E0501EB6F170EEC6F5F
:10453000000EED6FB5EC02F0220E0501DE6F170ED6
:10454000DF6F000EE06F090EE16FE26B220EE36F8A
:10455000010EE46F000E4009E56FD3EC02F0220E6D
:104560000501BA6F170EBB6F000EBC6F0301195126
:104570000501BD6F03011A510501BE6FC6EC05F0C0
:10458000220E0501EB6F170EEC6F000EED6FB5EC10
:1045900002F0220E0501DE6F170EDF6F000EE06FD6
:1045A000050EE16FE26B2C0EE36F010EE46F000E5F
:1045B0004009E56FD3EC02F0220E0501BA6F170E29
:1045C000BB6F000EBC6F03011B510501BD6F0301E2
:1045D0001C510501BE6FC6EC05F0220E0501EB6F04
:1045E000170EEC6F000EED6FB5EC02F0220E050118
:1045F000DE6F170EDF6F000EE06F050EE16FE26BEE
:10460000320EE36F010EE46F000E4009E56FD3EC4C
:1046100002F0220E0501BA6F170EBB6F000EBC6FC1
:1046200003011D510501BD6F03011E510501BE6F40
:10463000C6EC05F0220E0501EB6F170EEC6F000EB5
:10464000ED6FB5EC02F0220E0501DE6F170EDF6F85
:10465000000EE06F0B0EE16FE26B380EE36F010EA0
:10466000E46F000E4009E56FD3EC02F0220E050165
:10467000BF6F170EC06F000EC16F03011F51050100
:10468000C26F030120510501C36F030121510501D0
:10469000C46F030122510501C56FB5EC05F0220E70
:1046A0000501EB6F170EEC6F000EED6FB5EC02F02D
:1046B000220E0501DE6F170EDF6F000EE06F0C0E8D
:1046C000E16FE26B440EE36F010EE46F000E4009F0
:1046D000E56FD3EC02F0220E0501BF6F170EC06F1D
:1046E000000EC16F030123510501C26F0301245164
:1046F0000501C36F030125510501C46F0301265154
:104700000501C56FB5EC05F0220E0501EB6F170E24
:10471000EC6F000EED6FB5EC02F0220E0501DE6FBE
:10472000170EDF6F000EE06F130EE16FE26B500E9D
:10473000E36F010EE46F000E4009E56FD3EC02F069
:10474000220E0501BF6F170EC06F000EC16F03016F
:1047500027510501C26F030128510501C36F0301F1
:1047600029510501C46F03012A510501C56FB5EC3C
:1047700005F0220E0501EB6F170EEC6F000EED6FCA
:10478000B5EC02F0220E0501DE6F170EDF6F000E92
:10479000E06F140EE16FE26B640EE36F010EE46FE5
:1047A000000E4009E56FD3EC02F0220E0501BF6F49
:1047B000170EC06F000EC16F03012B510501C26FB0
:1047C00003012C510501C36F03012D510501C46F75
:1047D00003012E510501C56FB5EC05F0220E050150
:1047E000EB6F170EEC6F000EED6FB5EC02F0220EC2
:1047F0000501DE6F170EDF6F000EE06F080EE16F30
:10480000E26B780EE36F010EE46F000E4009E56F76
:10481000D3EC02F0680E0001606F91EC0BF0220EF9
:104820000501CF6F170ED06F000ED16F03012F510E
:104830000501D26F030130510501D36F03013151DE
:104840000501D46F030132510501D56F60EC03F00F
:10485000220E0501EB6F170EEC6F000EED6FB5EC3D
:1048600002F0220E0501DE6F170EDF6F000EE06F03
:10487000080EE16FE26B800EE36F010EE46F000E35
:104880004009E56FD3EC02F0680E0001606F91EC17
:104890000BF0220E0501CF6F170ED06F000ED16FF7
:1048A000030133510501D26F030134510501D36F68
:1048B000030135510501D46F030136510501D56F50
:1048C00060EC03F0220E0501EB6F170EEC6F000E8B
:1048D000ED6FB5EC02F0220E0501DE6F170EDF6FF3
:1048E000000EE06F080EE16FE26B880EE36F010EC1
:1048F000E46F000E4009E56FD3EC02F0680E000192
:10490000606F91EC0BF0220E0501CF6F170ED06F88
:10491000000ED16F030137510501D26F03013851E9
:104920000501D36F030139510501D46F03013A51D9
:104930000501D56F60EC03F0220E0501EB6F170E39
:10494000EC6F000EED6FB5EC02F0220E0501DE6F8C
:10495000170EDF6F000EE06F080EE16FE26B900E36
:10496000E36F010EE46F000E4009E56FD3EC02F037
:10497000680E0001606F91EC0BF0220E0501CF6F05
:10498000170ED06F000ED16F03013B510501D26F9E
:1049900003013C510501D36F03013D510501D46F63
:1049A00003013E510501D56F60EC03F0220E0501B5
:1049B000EB6F170EEC6F000EED6FB5EC02F0220EF0
:1049C0000501DE6F170EDF6F000EE06F080EE16F5E
:1049D000E26B980EE36F010EE46F000E4009E56F85
:1049E000D3EC02F0680E0001606F91EC0BF0220E28
:1049F0000501CF6F170ED06F000ED16F03013F512D
:104A00000501D26F030140510501D36F03014151EC
:104A10000501D46F030142510501D56F60EC03F02D
:104A2000220E0501EB6F170EEC6F000EED6FB5EC6B
:104A300002F0220E0501DE6F170EDF6F000EE06F31
:104A4000080EE16FE26BA00EE36F010EE46F000E43
:104A50004009E56FD3EC02F0680E0001606F91EC45
:104A60000BF0220E0501CF6F170ED06F000ED16F25
:104A7000030143510501D26F030144510501D36F76
:104A8000030145510501D46F030146510501D56F5E
:104A900060EC03F0220E0501EB6F170EEC6F000EB9
:104AA000ED6FB5EC02F0220E0501DE6F170EDF6F21
:104AB000000EE06F080EE16FE26BA80EE36F010ECF
:104AC000E46F000E4009E56FD3EC02F0680E0001C0
:104AD000606F91EC0BF0220E0501CF6F170ED06FB7
:104AE000000ED16F030147510501D26F03014851F8
:104AF0000501D36F030149510501D46F03014A51E8
:104B00000501D56F60EC03F0220E0501EB6F170E67
:104B1000EC6F000EED6FB5EC02F0220E0501DE6FBA
:104B2000170EDF6F000EE06F0F0EE16FE26BB00E3D
:104B3000E36F010EE46F000E4009E56FD3EC02F065
:104B4000680E0001606F91EC0BF0220E0501CF6F33
:104B5000170ED06F000ED16F03014B510501D26FBC
:104B600003014C510501D36F03014D510501D46F71
:104B700003014E510501D56F60EC03F0220E0501D3
:104B8000EB6F170EEC6F000EED6FB5EC02F0220E1E
:104B90000501DE6F170EDF6F000EE06F160EE16F7E
:104BA000E26BC00EE36F010EE46F000E4009E56F8B
:104BB000D3EC02F0680E0001606F91EC0BF0220E56
:104BC0000501CF6F170ED06F000ED16F03014F514B
:104BD0000501D26F030150510501D36F03015151FB
:104BE0000501D46F030152510501D56F60EC03F04C
:104BF000220E0501EB6F170EEC6F000EED6FB5EF97
:104C000002F0220E0501BA6F170EBB6F000EBC6FCB
:104C1000040102510501BD6F040103510501BE6F7E
:104C2000C6EC05F0200E0001606F91EC0BF0040162
:104C3000226B020E2225246F04EE02F02451E92695
:104C4000EF50236F2351D8B432EF26F023510001E7
:104C5000606F91EC0BF00401222B1E0E225DD8A494
:104C600019EF26F012000051ED6F0151EE6F010EA9
:104C700048EC1AF0030101511F5D0001606F030150
:104C80000251205D0001601303010351215D000109
:104C9000601303010451225D00016011D8B45CEF80
:104CA00026F015EC17F00301FF6FFF510001606F54
:104CB00091EC0BF03AEF26F041EF15F0DF510401D3
:104CC0006A6F0301E05104016B6F0301E1510401BC
:104CD0006C6F0301E25104016D6F0301E3510401A4
:104CE0006E6F0301E45104016F6F0301E55104018C
:104CF000706F0301E6510401716F0301E751040174
:104D0000726F0301E8510401736F0301E95104015B
:104D1000746F0301EA510401756F0301EB51040143
:104D2000766F0301EC510401776F0301ED5104012B
:104D3000786F0301EE510401796F0301EF51040113
:104D40007A6F0301F05104017B6F0301F1510401FB
:104D50007C6F0301F25104017D6F0301F3510401E3
:104D60007E6F0301F45104017F6F0301F5510401CB
:104D7000806F0301F6510401816F0301F7510401B3
:104D8000826F0301F8510401836F0301F95104019B
:104D9000846F0301FA510401856F0301FB51040183
:104DA000866F0301FC510401876F27EC1BF00001A3
:104DB00060510301FD6F000161510301FE6FFD5160
:104DC000FE11D8B4EDEF26F0FD510401006F030190
:104DD000FE510401016F33EF26F01200DD6BDE6B34
:104DE000DB510401ED6F0301DC510401EE6F010E94
:104DF00048EC1AF0030101511F5D0001606F0301CF
:104E00000251205D0001601303010351215D000187
:104E1000601303010451225D00016011D8B459EF01
:104E200028F015EC17F00301DD6FDD51DE5DD8B41D
:104E3000FAEF26F0DD51DE6F220E0501EE6F170E40
:104E4000EF6F000EF06F03015B5109EC03F07C0E75
:104E50000001606F91EC0BF0680E0001606F91EC47
:104E60000BF0220E0501C66F170EC76F000EC86F3C
:104E700003015C510501C96F03015D510501CA6F52
:104E8000EFEC04F07C0E0001606F91EC0BF0680E0B
:104E90000001606F91EC0BF0220E0501C66F170E3A
:104EA000C76F000EC86F03015E510501C96F030192
:104EB0005F510501CA6FEFEC04F07C0E0001606FDA
:104EC00091EC0BF0680E0001606F91EC0BF0220E7C
:104ED0000501C66F170EC76F000EC86F0301605142
:104EE0000501C96F030161510501CA6FEFEC04F0C0
:104EF0007C0E0001606F91EC0BF0680E0001606F9A
:104F000091EC0BF0220E0501CF6F170ED06F000E43
:104F1000D16F000191510501D26F0001925105013D
:104F2000D36F000193510501D46F00019451050125
:104F3000D56F60EC03F07C0E0001606F91EC0BF01C
:104F4000680E0001606F91EC0BF0220E0501CF6F2F
:104F5000170ED06F000ED16F03014B510501D26FB8
:104F600003014C510501D36F03014D510501D46F6D
:104F700003014E510501D56F60EC03F07C0E00017A
:104F8000606F91EC0BF0680E0001606F91EC0BF01C
:104F9000220E0501CF6F170ED06F000ED16F0301E7
:104FA0004F510501D26F030150510501D36F030129
:104FB00051510501D46F030152510501D56F60ECC9
:104FC00003F07C0E0001606F91EC0BF0220E0501E6
:104FD000BF6F170EC06F000EC16F030101510501B5
:104FE000C26F030102510501C36F030103510501A3
:104FF000C46F030104510501C56FB5EC05F02F0E18
:105000000001606F91EC0BF0220E0501BF6F170ECF
:10501000C06F000EC16F03011F510501C26F030174
:1050200020510501C36F030121510501C46F030124
:1050300022510501C56FB5EC05F07C0E0001606FD3
:1050400091EC0BF0220E0501BA6F170EBB6F000E2C
:10505000BC6F000188510501BD6F00018951050138
:10506000BE6FC6EC05F0200E0001606F91EC0BF0F6
:105070000301DD510001606F91EC0BF03D0E00016A
:10508000606F91EC0BF0220E0501B66F170EB76F33
:10509000000EB86F0301DD51D5EC05F0220E0501BD
:1050A000EB6F170EEC6F000EED6FB5EC02F0FAEF40
:1050B00026F041EF15F0BB5104016A6F0301BC51AA
:1050C00004016B6F0301BD5104016C6F0301BE51FC
:1050D00004016D6F0301BF5104016E6F0301C051E4
:1050E00004016F6F0301C1510401706F0301C251CC
:1050F0000401716F0301C3510401726F0301C451B4
:105100000401736F0301C5510401746F0301C6519B
:105110000401756F0301C7510401766F0301C85183
:105120000401776F0301C9510401786F0301CA516B
:105130000401796F0301CB5104017A6F0301CC5153
:1051400004017B6F0301CD5104017C6F0301CE513B
:1051500004017D6F0301CF5104017E6F0301D05123
:1051600004017F6F0301D1510401806F0301D2510B
:105170000401816F0301D3510401826F0301D451F3
:105180000401836F0301D5510401846F0301D651DB
:105190000401856F0301D7510401866F0301D851C3
:1051A0000401876F27EC1BF0000160510301D96FE8
:1051B000000161510301DA6FD951DA11D8B4E7EF78
:1051C00028F0D951DB6FDA51DC6FEEEF26F01200D8
:1051D00099510401ED6F03019A510401EE6F010E24
:1051E00048EC1AF003010FA18BEF2AF076EC1AF0CD
:1051F0000001605103019B6F0001615103019C6F2D
:105200000001625103019D6F0001635103019E6F14
:105210000001645103019F6F000165510301A06FFC
:10522000000166510301A16F000167510301A26FE4
:10523000000168510301A36F000169510301A46FCC
:1052400000016A510301A56F00016B510301A66FB4
:1052500000016C510301A76F00016D510301A86F9C
:1052600000016E510301A96F00016F510301AA6F84
:10527000000170510301AB6F000171510301AC6F6C
:10528000000172510301AD6F000173510301AE6F54
:10529000000174510301AF6F000175510301B06F3C
:1052A000000176510301B16F000177510301B26F24
:1052B000000178510301B36F000179510301B46F0C
:1052C00000017A510301B56F00017B510301B66FF4
:1052D00000017C510301B76F00017D510301B86FDC
:1052E00000017E510301B96F00017F510301BA6FC4
:1052F0009B519C11D8B48DEF2AF09B510401026F91
:1053000003019C510401036F03019D510401046FCB
:1053100003019E510401056F03019F510401066FB3
:105320000301A0510401076F0301A1510401086F9B
:105330000301A2510401096F0301A35104010A6F83
:105340000301A45104010B6F0301A55104010C6F6B
:105350000301A65104010D6F0301A75104010E6F53
:105360000301A85104010F6F0301A9510401106F3B
:105370000301AA510401116F0301AB510401126F23
:105380000301AC510401136F0301AD510401146F0B
:105390000301AE510401156F0301AF510401166FF3
:1053A0000301B0510401176F0301B1510401186FDB
:1053B0000301B2510401196F0301B35104011A6FC3
:1053C0000301B45104011B6F0301B55104011C6FAB
:1053D0000301B65104011D6F0301B75104011E6F93
:1053E0000301B85104011F6F0301B9510401206F7B
:1053F0000301BA510401216F01EC26F0220E0501D0
:10540000EB6F170EEC6F000EED6FB5EC02F076EC63
:105410001AF00001605103019B6F0001615103010B
:105420009C6F0001625103019D6F000163510301F4
:105430009E6F0001645103019F6F000165510301DC
:10544000A06F000166510301A16F000167510301C4
:10545000A26F000168510301A36F000169510301AC
:10546000A46F00016A510301A56F00016B51030194
:10547000A66F00016C510301A76F00016D5103017C
:10548000A86F00016E510301A96F00016F51030164
:10549000AA6F000170510301AB6F0001715103014C
:1054A000AC6F000172510301AD6F00017351030134
:1054B000AE6F000174510301AF6F0001755103011C
:1054C000B06F000176510301B16F00017751030104
:1054D000B26F000178510301B36F000179510301EC
:1054E000B46F00017A510301B56F00017B510301D4
:1054F000B66F00017C510301B76F00017D510301BC
:10550000B86F00017E510301B96F00017F510301A3
:10551000BA6F78EF29F022EC21F041EF15F07951C4
:10552000D8B41FEF2BF0795104016A6F03017A514F
:1055300004016B6F03017B5104016C6F03017C510B
:1055400004016D6F03017D5104016E6F03017E51F3
:1055500004016F6F03017F510401706F03018051DB
:105560000401716F030181510401726F03018251C3
:105570000401736F030183510401746F03018451AB
:105580000401756F030185510401766F0301865193
:105590000401776F030187510401786F030188517B
:1055A0000401796F0301895104017A6F03018A5163
:1055B00004017B6F03018B5104017C6F03018C514B
:1055C00004017D6F03018D5104017E6F03018E5133
:1055D00004017F6F03018F510401806F030190511B
:1055E0000401816F030191510401826F0301925103
:1055F0000401836F030193510401846F03019451EB
:105600000401856F030195510401866F03019651D2
:105610000401876F27EC1BF0000160510301976FB5
:10562000000161510301986F97519811D8B429EF87
:105630002BF09751996F98519A6FE8EF28F000017D
:10564000CA510301996F0001CB5103019A6FE8EF32
:1056500028F01200220E0501EB6F170EEC6F000E02
:10566000ED6FB5EC02F0220E0501DE6F170EDF6F55
:10567000000EE06F160EE16FE26B3C0EE36F000E62
:10568000E46F000E4009E56FD3EC02F0220E050135
:10569000EB6F170EEC6F000EED6FB5EC02F004012E
:1056A000268174EC1DF057EF2BF000EF00F0220E76
:1056B0000501DE6F170EDF6F000EE06F070EE16F62
:1056C000E26B520EE36F000EE46F000E4009E56FCF
:1056D000D3EC02F00001CC6BDC6BFB6B97EC0BF0B6
:1056E0000001FA6FFA51606F91EC0BF00A0E0001A5
:1056F000FA5D03016295D8B462850D0E0001FA5D72
:1057000003016297D8B46287629962A562B7628921
:10571000200E0001FA5D0301629BD8B4628B629D8A
:1057200062A962BB628D62AD9EEF2BF000EECCF001
:105730000001FB51E926EF6AA8EF2BF000EECCF058
:105740000001FB51E926FA51EF6EFB2B6EEF2BF0B7
:10575000200EFA5DD8A4DDEF2BF0FB6B97EC0BF07D
:105760000001FA6FFA51606F91EC0BF00A0E000124
:10577000FA5D03016391D8B463810D0E0001FA5DF7
:1057800003016393D8B46383639563A163B36385B3
:1057900063A5D3EF2BF000EEDCF00001FB51E9260E
:1057A000EF6ADDEF2BF000EEDCF00001FB51E926A3
:1057B000FA51EF6EFB2BAEEF2BF00A0EFA5D0301F0
:1057C0006397D8B463870D0E0001FA5D03016399F6
:1057D000D8B46389639B63A763B9638B200E000110
:1057E000FA5D0301639DD8B4638D639F63AB63BDB2
:1057F000638F63AF05EF2CF0220E0501EB6F170EE0
:10580000EC6F000EED6FB5EC02F00001CC51D8B496
:1058100057EF2BF0100E05017B6F7C6BCC0E7D6F6C
:105820007E6B7F6B050E806F816B6C0E826F000E3E
:10583000836F000E4009846F7EEC09F0000160B1B7
:1058400026EF2CF00301649328EF2CF0030164830E
:1058500064A32FEF2CF089EC1DF057EF2BF0100E06
:1058600005017B6F7C6BCC0E7D6F7E6B7F6B030EB7
:10587000806F816B720E826F000E836F000E400985
:10588000846F7EEC09F0000160B14BEF2CF0030156
:1058900064954DEF2CF00301648564A554EF2CF062
:1058A000F7EC20F057EF2BF0100E05017B6F7C6BAF
:1058B000CC0E7D6F7E6B7F6B030E806F816B800ED5
:1058C000826F000E836F000E4009846F7EEC09F03A
:1058D000000160B170EF2CF00301649772EF2CF0BF
:1058E0000301648764A7F1EF2CF00001DC5104018F
:1058F000276F0001DD510401286F0001DE51040112
:10590000296F0001DF5104012A6F0001E0510401F9
:105910002B6F0001E15104012C6F0001E2510401E1
:105920002D6F0001E35104012E6F0001E4510401C9
:105930002F6F0001E5510401306F0001E6510401B1
:10594000316F0001E7510401326F0001E851040199
:10595000336F0001E9510401346F0001EA51040181
:10596000356F0001EB510401366F0001EC51040169
:10597000376F0001ED510401386F0001EE51040151
:10598000396F0001EF5104013A6F0001F051040139
:105990003B6F0001F15104013C6F0001F251040121
:1059A0003D6F0001F35104013E6F0001F451040109
:1059B0003F6F0001F5510401406F0001F6510401F1
:1059C000416F0001F7510401426F0001F8510401D9
:1059D000436F0001F9510401446F22EC1DF057EFB1
:1059E0002BF0100E05017B6F7C6BCC0E7D6F7E6BF8
:1059F0007F6B040E806F816B760E826F000E836F5B
:105A0000000E4009846F7EEC09F0000160B10DEFDB
:105A10002DF0030164990FEF2DF00301648964A94F
:105A20008EEF2DF00001DC510301DF6F0001DD512D
:105A30000301E06F0001DE510301E16F0001DF515E
:105A40000301E26F0001E0510301E36F0001E15146
:105A50000301E46F0001E2510301E56F0001E3512E
:105A60000301E66F0001E4510301E76F0001E55116
:105A70000301E86F0001E6510301E96F0001E751FE
:105A80000301EA6F0001E8510301EB6F0001E951E6
:105A90000301EC6F0001EA510301ED6F0001EB51CE
:105AA0000301EE6F0001EC510301EF6F0001ED51B6
:105AB0000301F06F0001EE510301F16F0001EF519E
:105AC0000301F26F0001F0510301F36F0001F15186
:105AD0000301F46F0001F2510301F56F0001F3516E
