:020000040000FA
:1000000078EF00F030313233343536373839414209
:10001000434445462D2D2053442043617264207291
:1000200065706F7274202D2D5344204361726420DB
:100030007265706C793A2000435344204349443A36
:100040002000494620434F4E443A43616C6C696E30
:10005000672073645F696E69742829005365742092
:100060007364206361726420746F2075736520531C
:1000700050495265736574206361726420746F2007
:1000800069646C652073746174652C207265706C92
:10009000793A2000576169742074696C6C2073642C
:1000A00020636172642069732072656164795344CE
:1000B00020636172642072656164792C20696E69C5
:1000C0007420697320646F6E650057616974696E8E
:1000D0006720666F7220726573706F6E7365203073
:1000E0007830303A2000FB6E6451FA6E6351F96E3D
:1000F0009B8C0001A10E606F300E616F612F7EEF4F
:1001000000F0602F7CEF00F00001010E606F602FA7
:1001100087EF00F000000000FF0E0F01486FFF0E98
:10012000496FC26AC16AD26AD16A256BB4EF00F026
:100130007E86AD84E10EB06E040E7F6E120098ECE8
:1001400000F09D9A9D98AD8A900EAC6E1200676F7C
:100150009EA8A8EF00F06751AE6E1200000160513A
:10016000666F6651A7EF00F09FEC00F0210E0001D2
:10017000606FAEEC00F000016991F2BE6981DDEFC5
:1001800000F0A3A1D2EF00F00E01550EA76EAA0E4B
:10019000A76EBF81000169B1D0EF00F0F29E12009E
:1001A000F28E12006991F2BE69810E01F29E550E27
:1001B000A76EAA0EA76EBF911200A391C1EC00F02A
:1001C000E00E0E01FE150309FE6FE00EC2150B09CD
:1001D000C26FE00EFD150209FD6FE00EFC1505096A
:1001E000FC6FE00EC6150A09C66F0001A381C1ECC1
:1001F00000F02FEF01F00001A26FA251756E72AEF8
:1002000003EF01F0FF0C73A003EF01F07550120033
:100210000001A16FA151FBEF00F0FF0EFBEC00F01D
:100220000001A06FA05112009F6F9F51D8A41CEF36
:1002300001F07298738C1200010E9F5DD8A424EF18
:1002400001F07298739C1200020E9F5DD8A42CEFEF
:1002500001F07288738C12007288739C1200938470
:100260009396929A030E00016A6F6B6B726A739E8B
:100270006A5114EC01F00F0E00016B15606FF00E67
:1002800072146011726E728A93908A80699336EF4D
:1002900003F00D0E606F9C51636F9D51646F9E5112
:1002A00073EC00F00A0E0001606F9C51636F9D516A
:1002B000646F9E5173EF00F09251976F9351986F56
:1002C00097519A6F98519B6F996B7FEF01F0945102
:1002D0009925F66E000E5E6E95515E20F76E965172
:1002E0005E20F86EF89C0900F550606F8F51636FC7
:1002F0009051646F915173EC00F00001992B99516A
:100300009A5D606F9B516011D8A467EF01F01200F5
:100310008C6F69A39FEF01F0300E606F8951636F9E
:100320008A51646F8B5173EC00F0780E0001606F9E
:100330008951636F8A51646F8B5173EC00F0000137
:100340008C390F0B8D6F0F0E8D158E6F040EF66EA0
:10035000000EF76E000EF86E8E51F626000E5E6EE1
:100360005E50F7225E50F8220900F550606F895107
:10037000636F8A51646F8B5173EC00F00F0E0001B4
:100380008C158D6F040EF66E000EF76E000EF86E73
:100390008D51F626000E5E6E5E50F7225E50F822FA
:1003A0000900F550606F8951636F8A51646F8B51FA
:1003B00073EF00F0826F8251D8A4E3EF01F0950E45
:1003C000886FE5EF01F0FF0E886F400E8227FF0E69
:1003D00008EC01F00001825108EC01F000018651A7
:1003E00008EC01F00001855108EC01F00001845196
:1003F00008EC01F00001835108EC01F00001885184
:1004000008EC01F0FF0E08EC01F00DEC01F000012A
:10041000876FFF0E08EC01F00001875112005C0E9F
:1004200000018F6F010E906F000E916F1B0E926F87
:10043000936BCA0E946F000E956F000E4009966F75
:100440005CEC01F0010E0001816F00018151D8B414
:1004500048EF02F0836B846B856B866B010EDAECE0
:1004600001F00001816F3C0E606FAEEC00F05C0E9D
:100470000001896F010E8A6F000E8B6F815188EC2D
:1004800001F03E0E0001606FAEEC00F025EF02F0CF
:100490005C0E9C6F010E9D6F000E9E6F49EF01F088
:1004A0005C0E8F6F010E906F000E916F110E926FA8
:1004B000936B4A0E946F000E956F000E4009966F75
:1004C0005CEC01F05C0E00019C6F010E9D6F000E54
:1004D0009E6F49EC01F00001686B5C0E8F6F010E9E
:1004E000906F000E916F160E926F936B5C0E946F6F
:1004F000000E956F000E4009966F5CEC01F05C0EEB
:1005000000019C6F010E9D6F000E9E6F49EC01F083
:100510008A900001430E606F3A0E616F612F8EEF7B
:1005200002F0602F8CEF02F00000000000000000DD
:100530008A807E6BFF0E08EC01F000017E2B0A0E14
:100540007E5DD8A49AEF02F07F6B00016851808332
:10055000D8A48093640E7F5D8095D8B4B2EF02F08A
:10056000D8A08085808780B380A5809780A735EF4D
:1005700003F00001430E606F3A0E616F612FBEEF12
:1005800002F0602FBCEF02F000000000000000004D
:100590008A905C0E8F6F010E906F000E916F210E8E
:1005A000926F936B720E946F000E956F000E400960
:1005B000966F5CEC01F00001836B846B856B866B3E
:1005C000000EDAEC01F00001686F5C0E896F010E1D
:1005D0008A6F000E8B6F685188EC01F05C0E000191
:1005E0009C6F010E9D6F000E9E6F49EC01F05C0E3A
:1005F00000018F6F010E906F000E916F1A0E926FB7
:10060000936B940E946F000E956F000E4009966FD9
:100610005CEC01F05C0E00019C6F010E9D6F000E02
:100620009E6F49EC01F00FEC02F08A8000017F2BF5
:100630005C0E8F6F010E906F000E916F1B0E926F0C
:10064000936BAE0E946F000E956F000E4009966F7F
:100650005CEC01F05C0E00019C6F010E9D6F000EC2
:100660009E6F49EC01F0A5EF02F0120050EC02F091
:1006700082EF03F078517A6F79517B6F7C6B7D6BE1
:1006800050EF03F00001FF0E606F0E0E616F612FDF
:1006900047EF03F0602F45EF03F07C2BD8B47D2BA0
:1006A0007C517A5D606F7D517B5D6011D8A442EF13
:1006B00003F012007251746F7351756F766B776B24
:1006C00078EF03F00001720E606F9F0E616FDB0E1A
:1006D000626F622F69EF03F0612F67EF03F0602F05
:1006E00065EF03F0000000000000762BD8B4772BF4
:1006F0007651745D606F7751755D6011D8A462EFBB
:1007000003F0120094948B84C80E0001786F796B0B
:100710003AEC03F08B945C0E00019C6F010E9D6F10
:10072000000E9E6F49EC01F05C0E00018F6F010E10
:10073000906F000E916F140E926F936B140E946F66
:10074000000E956F000E4009966F5CEC01F05C0E98
:1007500000019C6F010E9D6F000E9E6F49EC01F031
:100760005C0E00018F6F010E906F000E916F0F0EE7
:10077000926F936B280E946F000E956F000E4009D8
:10078000966F5CEC01F05C0E0001896F010E8A6FC0
:10079000000E8B6F685188EC01F05C0E00019C6FBD
:1007A000010E9D6F000E9E6F49EC01F05EEF04F0AC
:1007B00000016E6F8A90836B846B856B866B6E51C4
:1007C000DAEC01F00DEC01F00001716FFE0E715DCD
:1007D000D8A4E2EF03F0706B0DEC01F000016F6F35
:1007E0005C0E896F010E8A6F000E8B6F6F5188EC63
:1007F00001F0200E0001606FAEEC00F00001702BE4
:10080000100E705DD8A4ECEF03F00DEC01F00001C8
:100810006F6F0DEC01F000016F6F8A8012008A90FB
:10082000AA0E0001836F010E846F856B866B080E24
:10083000DAEC01F000016C6F5C0E896F010E8A6FBB
:10084000000E8B6F6C5188EC01F00DEC01F0000193
:100850006D6F5C0E896F010E8A6F000E8B6F6D518C
:1008600088EC01F00DEC01F000016D6F5C0E896FFA
:10087000010E8A6F000E8B6F6D5188EC01F00DEC4C
:1008800001F000016D6F5C0E896F010E8A6F000E22
:100890008B6F6D5188EC01F00DEC01F000016D6F74
:1008A0005C0E896F010E8A6F000E8B6F6D5188ECA4
:1008B00001F0FF0E08EC01F08A8012008B845C0EC0
:1008C00000018F6F010E906F000E916F090E926FF5
:1008D000936B380E946F000E956F000E4009966F63
:1008E0005CEC01F0090ED8EC03F05C0E00019C6F8B
:1008F000010E9D6F000E9E6F49EC01F05C0E000131
:100900008F6F010E906F000E916F090E926F936BB7
:10091000380E946F000E956F000E4009966F5CECD8
:1009200001F0090ED8EC03F05C0E00019C6F010E83
:100930009D6F000E9E6F49EC01F05C0E00018F6F01
:10094000010E906F000E916F080E926F936B420E26
:10095000946F000E956F000E4009966F5CEC01F0ED
:100960000FEC04F05C0E00019C6F010E9D6F000EF9
:100970009E6F49EC01F05C0E00019C6F010E9D6FB3
:10098000000E9E6F49EC01F08B94050E0001726F12
:0A099000736B5AEC03F05EEF04F005
:020000040001F9
:08FFF800F8F7DDFFFFF000F057
:00000001FF
