:020000040000FA
:1000000010EF00F048656C6C6F2073657269616C6D
:1000100020776F726C64FB6E0B51FA6E0A51F96EA9
:100020009B8C0001A10E086F300E096F092F16EF8F
:1000300000F0082F14EF00F00001010E086F082FE8
:100040001FEF00F000000000FF0E0F01486FFF0ED1
:10005000496FC26AC16AD26AD16A256B949466EF0D
:1000600000F07E86AD84E10EB06E040E7F6E12004D
:1000700031EC00F09D9A9D98AD8A900EAC6E120006
:1000800000010E6F9EA842EF00F00E51AE6E1200FE
:100090009EAA51EF00F0AF500001206F9E9A55EFDD
:1000A00000F0000121915BEF00F0ACA25AEF00F0EC
:1000B000AC98AC882181089121B1088120511200AF
:1000C000000108510D6F0D5140EF00F038EC00F0C9
:1000D00096EF00F016511B6F17511C6F1B511E6FCE
:1000E0001C511F6F1D6B8DEF00F018511D25F66E12
:1000F000000E006E19510020F76E1A510020F86EA4
:10010000F89C0900F550086F13510A6F14510B6FDA
:1001100015510BEC00F000011D2B1D511E5D086FE9
:100120001F510811D8A475EF00F01200C00E000195
:10013000136F000E146F000E156F120E166F176BF3
:10014000040E186F000E196F000E40091A6F6AEC4A
:1001500000F0210E40EC00F08B940A0E0001106FAD
:10016000116B48EC00F000010F6F129108B1128181
:1001700012A1C5EF00F00F5140EC00F08BA4C4EFCA
:1001800000F08B94C5EF00F08B840001100710295C
:10019000D8B4110710511111D8A4B1EF00F0500ECE
:1001A000106FC30E116F2E0E086F60EC00F0B1EFF0
:0201B00000F05D
:020000040001F9
:08FFF800F8F7DDFFFFF000F057
:00000001FF
