:020000040000FA
:1000000090EF00F0010000000A0000006400000012
:10001000E803000010270000A086010040420F0006
:100020008096980000E1F50500CA9A3B2D2D2044EA
:10003000485431312073616D706C65202D2D5265EF
:100040006164696E67207374617475733A204F4BF5
:10005000434845434B53554D204552524F52544906
:100060004D454F555400556E6B6E6F776E20287757
:10007000656972642021290054656D706572617430
:100080007572653A200048756D69646974793A2023
:10009000526177206275666665723A20200E706F35
:1000A000646B656B666B676BD8906C376D376E37BA
:1000B0006F37D89060376137623763376437653799
:1000C0006637673767516B5DD8A473EF00F06651F0
:1000D0006A5DD8A473EF00F06551695DD8A473EF31
:1000E00000F06451685DD8B479EF00F0D8B087EFC4
:1000F00000F0D88064516855646F65516955656F2B
:1001000066516A55666F67516B55676F6C81702FCA
:1001100054EF00F01200FB6E7351FA6E7251F96EDB
:100120009B8C0001A10E606F300E616F612F96EF06
:1001300000F0602F94EF00F00001010E606F602F5F
:100140009FEF00F000000000FF0E0F01486FFF0E50
:10015000496FC26AC16AD26AD16A256B22EF01F087
:100160000001B36FB351D8B41200010EB35DD8A42F
:10017000C1EF00F00001230E606F602FBDEF00F0B3
:100180001200B30700011F0E606F602FC5EF00F073
:10019000B351B46FB56BD4EF00F00001270E606F60
:1001A000602FD0EF00F0B52BB551B45DD8A4CDEFE2
:1001B00000F01200AD51AF6FAE51B06FB16BB26BCA
:1001C000F0EF00F00001FF0E606F0E0E616F612F07
:1001D000E7EF00F0602FE5EF00F0B12BD8B4B22BC1
:1001E000B151AF5D606FB251B05D6011D8A4E2EF64
:1001F00000F01200A751A96FA851AA6FAB6BAC6BAE
:1002000018EF01F00001720E606F9F0E616FDB0E40
:10021000626F622F09EF01F0612F07EF01F0602F8D
:1002200005EF01F0000000000000AB2BD8B4AC2BB0
:10023000AB51A95D606FAC51AA5D6011D8A402EF0B
:1002400001F0120094940001776B786B796B7A6BF4
:100250007B6B7C6B7D6BF3EF01F00001A06BA16BFE
:10026000A26B070EA36FA26B00EE79F0A251E926F4
:10027000EF6AA22B050EA25DD8A434EF01F0A26BA9
:1002800092968996120EAD6FAE6BDAEC00F089860D
:10029000040EB0EC00F0928680B65DEF01F0000134
:1002A000A02BD8B4A12BE80EA05D606F030EA15D5A
:1002B0006011D8A44CEF01F0020C0001A06BA16BFF
:1002C00080A670EF01F0A02BD8B4A12BE80EA05DA2
:1002D000606F030EA15D6011D8A460EF01F0020C05
:1002E000A56BA06BA16B80B683EF01F0A02BD8B4F7
:1002F000A12BE80EA05D606F030EA15D6011D8A474
:1003000073EF01F0020C040EB0EC00F080A6A6EF33
:1003100001F00001A3515E6E010EA46F5E5094EFD8
:1003200001F0D890A4375E06D8A491EF01F000EE5A
:1003300079F0A251E926EF50606FA4516011616F0E
:1003400000EE79F0A251E9266151EF6E0001A35150
:10035000D8A4B0EF01F0070EA36FA22BB1EF01F00C
:10036000A307A06BA16B80A6C3EF01F0A02BD8B4AC
:10037000A12BE80EA05D606F030EA15D6011D8A4F3
:10038000B3EF01F0020CA52B280EA55DD8A471EFE8
:1003900001F079517B25A66F7D51A65DD8B4D2EFCF
:1003A00001F0010C7951786F7B51776F000C7E86DC
:1003B000AD84E10EB06E040E7F6E1200D7EC01F03A
:1003C0009D9A9D98AD8A900EAC6E1200766F9EA895
:1003D000E7EF01F07651AE6E120000016051756FCB
:1003E0007551E6EF01F0DEEC01F01FEF03F00D0EAA
:1003F000606F9151726F9251736F93518BEC00F05B
:100400000A0E0001606F9151726F9251736F935198
:100410008BEF00F087518C6F88518D6F8C518F6FEF
:100420008D51906F8E6B2DEF02F089518E25F66EF7
:10043000000E5E6E8A515E20F76E8B515E20F86E64
:10044000F89C0900F550606F8451726F8551736F8D
:1004500086518BEC00F000018E2B8E518F5D606F0A
:1004600090516011D8A415EF02F01200836F8051F3
:10047000946F8151956F8251966F8351976F986BEE
:10048000996B9A6B020E45EF02F09B6F9751981192
:1004900099119A11D8A456EF02F0300E606F945162
:1004A000726F9551736F96518BEF00F09F819B5146
:1004B000800A606F800E605DD8B462EF02F0D8A051
:1004C0001EEF03F0D8909B359D6FD8909D37040E9A
:1004D000F66E000EF76E000EF86E9D51F626000EB9
:1004E0009DBFFF0E5E6E5E50F7225E50F82209003F
:1004F000F550606F0900F550616F0900F550626FAB
:100500000900F550636F9A51635DD8A494EF02F02F
:100510009951625DD8A494EF02F09851615DD8A41E
:1005200094EF02F09751605DD8B49AEF02F0D8B022
:10053000FEEF02F0D8909B359E6FD8909E37040E48
:10054000F66E000EF76E000EF86E9E51F626000E47
:100550009EBFFF0E5E6E5E50F7225E50F8220900CD
:10056000F550686F0900F550696F0900F5506A6F22
:100570000900F5506B6F9751606F9851616F9951F9
:10058000626F9A51636F4EEC00F000016C519C6FEA
:10059000D8909B359D6FD8909D37040EF66E000E57
:1005A000F76E000EF86E9D51F626000E9DBFFF0EF1
:1005B0005E6E5E50F7225E50F8220900F550686FBB
:1005C0000900F550696F0900F5506A6F0900F55090
:1005D0006B6F9751606F9851616F9951626F9A512B
:1005E000636F4EEC00F000016451976F6551986F96
:1005F0006651996F67519A6FFFEF02F09C6B9B07F2
:100600009C519F89D8B49F999F9B9FA19F8B9F9D31
:100610009FA99FBB9F8D9FAD57EF02F0300E9C119D
:100620009D6F9D51606F9451726F9551736F96518C
:100630008BEC00F000019F9157EF02F01200DA0EF0
:100640000001846F030E856F000E866F120E876F98
:10065000886B2C0E896F000E8A6F000E40098B6F1D
:100660000AEC02F0DA0E0001916F030E926F000E99
:10067000936FF7EC01F0DA0E0001916F030E926FA9
:10068000000E936FF7EC01F08B842DEC01F000016C
:100690007E6FDA0E846F030E856F000E866F100E6C
:1006A000876F886B3E0E896F000E8A6F000E4009BF
:1006B0008B6F0AEC02F000017E51D8A474EF03F0B6
:1006C000DA0E846F030E856F000E866F020E876F41
:1006D000886B4E0E896F000E8A6F000E40098B6F7B
:1006E0000AEC02F0B8EF03F0010E7E5DD8A48DEFA6
:1006F00003F0DA0E846F030E856F000E866F0E0E08
:10070000876F886B500E896F000E8A6F000E40094C
:100710008B6F0AEC02F0B8EF03F0020E7E5DD8A4F6
:10072000A6EF03F0DA0E846F030E856F000E866F5E
:10073000070E876F886B5E0E896F000E8A6F000E42
:1007400040098B6F0AEC02F0B8EF03F0DA0E846F09
:10075000030E856F000E866F110E876F886B660E15
:10076000896F000E8A6F000E40098B6F0AEC02F051
:10077000DA0E0001916F030E926F000E936FF7EC8B
:1007800001F0DA0E0001846F030E856F000E866F94
:100790000D0E876F886B780E896F000E8A6F000EC2
:1007A00040098B6F0AEC02F0DA0E0001806F030E35
:1007B000816F000E826F775136EC02F0DA0E000185
:1007C000916F030E926F000E936FF7EC01F0DA0E4B
:1007D0000001846F030E856F000E866F0A0E876F0F
:1007E000886B860E896F000E8A6F000E40098B6F32
:1007F0000AEC02F0DA0E0001806F030E816F000E2A
:10080000826F785136EC02F0DA0E0001916F030E20
:10081000926F000E936FF7EC01F0DA0E0001846F17
:10082000030E856F000E866F0C0E876F886B900E1F
:10083000896F000E8A6F000E40098B6F0AEC02F080
:1008400000017F6BDA0E806F030E816F000E826FE6
:1008500000EE79F07F51E926EF5036EC02F0200EE1
:100860000001606FEDEC01F000017F2B050E7F5D54
:10087000D8A422EF04F0DA0E916F030E926F000EEF
:10088000936FF7EC01F0DA0E0001916F030E926F97
:10089000000E936FF7EC01F08B94050E0001A76F2B
:0A08A000A86BFAEC00F044EF03F03F
:020000040001F9
:08FFF800F8F7DDFFFFF000F057
:00000001FF
