:020000040000FA
:1000000083EF00F01201000202000008D8040A0089
:1000100001000102000109024300020100803209CF
:100020000400000102020100052400100104240262
:1000300002052406000105240100010705820308CA
:10004000000209040100020A00000007050302087B
:1000500000000705830208000000040309043603BA
:100060004D006900630072006F0063006800690062
:100070007000200054006500630068006E006F008F
:100080006C006F00670079002C00200049006E00B2
:1000900063002E001E034A0041004C004C00490042
:1000A00042002000530065007200690061006C008E
:1000B0002E004A414C4C4942205553422053657210
:1000C00069616C2044656D6F206170700A0066BFC5
:1000D0007DEF00F066BD73EF00F06551EA6E64518C
:1000E000E96EEF5012006451F66E6551F76E66517D
:1000F0003F0BF86E0800F55012001200FB6E6551C0
:10010000FA6E6451F96E9B8C0001A10E606F300E87
:10011000616F612F89EF00F0602F87EF00F0000121
:10012000010E606F602F92EF00F000000000FF0EE4
:100130000F01486FFF0E496FC26AC16AD26AD16A65
:10014000256BCBEF00F0DB51DF6FDC51E06FE36B31
:10015000E46BC1EF00F00001720E606F9F0E616FE3
:10016000DB0E626F622FB2EF00F0612FB0EF00F094
:10017000602FAEEF00F0000000000000E32BD8B4C9
:10018000E42BE351DF5D606FE451E05D6011D8A4C2
:10019000ABEF00F0120094948B84010E0001DB6F32
:1001A000DC6BA3EC00F08B94A8EF01F0E151EA6F57
:1001B000E251EB6FEA51ED6FEB51EE6FEC6BF9EF43
:1001C00000F0E551EC25F66E000E5E6EE6515E2005
:1001D000F76EE7515E20F86EF89C0900F550606FED
:1001E000DB51646FDC51656FDD517EEC00F0000186
:1001F000EC2BEC51ED5D606FEE516011D8A4E1EF96
:1002000000F012008F6F8A51E16E8B51E26E8F51B8
:10021000916F906B1CEF01F08C519025646F000E74
:100220005E6E8D515E20656F8E515E20666F67EC4D
:1002300000F0E66E0001902B9051915DD8A40CEF78
:1002400001F012000D0104BF12000001A451A15DD4
:10025000D8B430EF01F0D8B030EF01F0A151A46F65
:10026000D880A451A255926F9251A35DD8B43EEFAD
:1002700001F0D8B03EEF01F0A351926F780EA225A5
:100280000D01066F000E5E6E0D0E5E20076F000101
:1002900092510D01056F04AD52EF01F0880E046F0D
:1002A00054EF01F0C80E046F00019251A227A25131
:1002B000A45D1200080EA36FA26BA46BA16B0D01CD
:1002C000049D22EF01F0936F93510D01786F080E9A
:1002D0000001A36FA26B010EA46F010EA16F0D01AF
:1002E000049D22EF01F0840E0D0100131200080E90
:1002F0000D01016F200E026F0D0E036F030E000142
:10030000A65DD8A48AEF01F08C0E866F0D01046BF8
:100310008CEF01F0C80E866F000186510D01006F51
:1003200012009B6FD8909B359E6FD8909E37D890C7
:100330009E379E299D6F0DEE00F09D51E9269C5140
:10034000EF6E0DEE00F09E51E926800EEF6E12006A
:100350000001A86BDA916E6B6F6B706B716B100E96
:10036000726FE6EF05F00D01F9510001946F210E57
:10037000945DD8A4BEEF01F0050EA66F12000D012A
:100380001CBFC7EF01F000019A91C9EF01F0000115
:100390009A819AB112006E516F5DD8A4D5EF01F029
:1003A000DAA11200956BE7EF01F06E516F5DD8B4E2
:1003B000E3EF01F0D8B0E3EF01F0D8806E516F5554
:1003C000956FE7EF01F0D880200E6F55956F080EFE
:1003D000955DD8B4F1EF01F0D8A0F1EF01F0080E6F
:1003E000956F9551986F976B06EF02F06F519725B7
:1003F000966F00EEA9F09651E926EF50606F0DEE72
:1004000058F09751E9266051EF6E972B9751985D00
:10041000D8A4F6EF01F0580E0D011E6F0D0E1F6FE0
:10042000000195510D011D6F1CAD1BEF02F0880EF0
:100430001C6F1DEF02F0C80E1C6F00016F51952557
:10044000996F1F0E995DD8B42AEF02F0D8A02AEF59
:1004500002F0996B99516F6F080E955DDA91D8B4DF
:10046000DA8112009F6F6E29A06F200EA05DD8A4C4
:100470003BEF02F0A06B00EEA9F06E51E9269F5110
:10048000EF6EA0516E6F120000EEC9F07151E926B7
:10049000EF50E96F722B7129EA6F100EEA5DD8A454
:1004A00053EF02F0EA6BEA51716FE951120071519A
:1004B000705DE991D8A4E9816091E9B16081120091
:1004C000BFEC01F0080E0001725DD8B46BEF02F0D2
:1004D000D8A075EF02F00D0118BF75EF02F0080EFD
:1004E00000019C6F030E91EF01F012000001676B99
:1004F000C20E686F010E696F6A6B6B6B080E6D6FD1
:100500006C6B12000D01F9510001876F060E875DBB
:10051000D8A428EF03F00D01FB510001886F0D01F5
:10052000FA510001896FA46B010E885DD8A4ABEF6E
:1005300002F0120EA46F780E8A6F0D0E8B6F040EF0
:100540008C6F000E8D6F000E40098E6FA45102EC6F
:1005500001F00BEF03F0020E885DD8A4C2EF02F0A9
:10056000430EA46F780E8A6F0D0E8B6F160E8C6F74
:10057000000E8D6F000E40098E6FA45102EC01F049
:100580000BEF03F0030E885DD8A409EF03F0895147
:10059000D8A4DBEF02F0040EA46F780E8A6F0D0E64
:1005A0008B6F5A0E8C6F000E8D6F000E40098E6F90
:1005B000A45102EC01F0010E0001895DD8A4F1EF15
:1005C00002F0360EA46F780E8A6F0D0E8B6F5E0EE2
:1005D0008C6F000E8D6F000E40098E6FA45102ECDF
:1005E00001F0020E0001895DD8A40BEF03F01E0E8E
:1005F000A46F780E8A6F0D0E8B6F940E8C6F000EA9
:100600008D6F000E40098E6FA45102EC01F00BEFCC
:1006100003F0220E885D0001A451D8B426EF03F048
:10062000080EA36F0D01FF51D8A41CEF03F0FE517B
:100630000001A16F1FEF03F0FF0E0001A16F030E79
:10064000A66FA26B0D01049D22EF01F073EF01F084
:10065000050E875DD8A439EF03F00D01FA510001B2
:10066000A76F010EA56F5AEC01F0060E0001A66FF0
:100670001200090E875DD8A473EF03F0060EA66F73
:100680005AEC01F00F012789278527832787400E21
:100690000D010C6F080E096F300E0A6F0D0E0B6FF7
:1006A000800E086F0F012889288528832887400E2F
:1006B0000D01146F080E116F400E126F0D0E136FA7
:1006C000800E106F0F012989298529832987400E03
:1006D0000D011C6F080E196F500E1A6F0D0E1B6F57
:1006E000800E186F12000A0E875DD8A47DEF03F00C
:1006F000030EA66F010E63EF01F08751D8A484EFBB
:1007000003F0000E63EF01F01200D8906430796FAF
:10071000D8907933D890793364A49BEF03F0D890C4
:100720000D01043100017B6FD8907B330F0E7B15D8
:100730007A6FA5EF03F0D8900D01003100017B6FB7
:10074000D8907B330F0E7B157A6F7951D8A49CEF2C
:1007500004F00D0E7A5DD8A41BEF04F07C6B0DEE57
:1007600020F07C51E926EF50606F0DEEF8F07C51DF
:10077000E9266051EF6E7C2B080E7C5DD8A4AFEFAC
:1007800003F0659877EC01F0300E0D01F8150001CB
:100790007B6F7B51D8A4CFEF03F082EF02F0200EE5
:1007A0007B5DD8A415EF04F00D01F95100017D6FB8
:1007B000230E7D5DD8A4E1EF03F0060EA66F5AEF7D
:1007C00001F0200E7D5DD8A4E9EF03F0020EA66FC4
:1007D0001200210E7D5DD8A407EF04F0FF0EA16F7B
:1007E000070EA46F780E8A6F0D0E8B6F670E8C6FDD
:1007F0008D6B8E6BA45102EC01F0080E0001A36F0B
:10080000030EA66FA26B0D01049D22EF01F0220ED4
:100810007D5DD8A414EF04F0060EA66F5AEC01F02B
:100820000D01FA510001A86F1200400E7B5DD8A4A3
:1008300014EF05F01200090E7A5DD8A442EF04F01F
:10084000030EA65DD8A427EF04F022EF01F0060EF8
:10085000A65DD8A438EF04F0A66B010EA55DD8A460
:1008600014EF05F0A7510F01386F0001A56B1200BE
:10087000050EA65DD8B41200040EA65DD8B4B3EF81
:1008800001F01200020E7A5DD8A45CEF04F0030EB2
:10089000A65DD8A44EEF04F022EF01F0040EA65D91
:1008A000D8A455EF04F0B3EF01F0060EA65DD8A46E
:1008B00014EF05F0A66B1200010E7A5DD8A414EFB8
:1008C00005F0050EA65DD8A469EF04F0A66B77EFDE
:1008D00001F0020EA65DD8A490EF04F00D01F951CD
:1008E00000017C6F200E7C5DD8A48EEF04F07D6B40
:1008F0000DEE20F07D51E926EF50606F00EE67F0BD
:100900007D51E9266051EF6E7D2B070E7D5DD8A4E9
:1009100078EF04F0060EA66F5AEC01F077EF01F0C5
:10092000030EA65DD8A49AEF04F077EC01F0000165
:10093000A66B120077EF01F064A4C3EF04F0D89027
:1009400079357C6FD8907C37D8907C37040E7C2723
:10095000020E7C257B6F0DEE00F07B51E926EF50F7
:100960007D6F030E7C257B6F0DEE00F07B51E92639
:10097000EF507E6F7C297B6F030E795DD8A414EF56
:1009800005F0BFEF01F0D89079357C6FD8907C37B7
:10099000D8907C37020E7C257B6F0DEE00F07B51EA
:1009A000E926EF507D6F030E7C257B6F0DEE00F086
:1009B0007B51E926EF507E6F7C297B6F0DEE00F0B6
:1009C0007B51E926EF507F6F7D51806F7E51816FA3
:1009D000030E795DD8A414EF05F08051E16E8151CA
:1009E000E26E7F51836F846B0FEF05F07029826F89
:1009F000100E825DD8A4FEEF04F0826B8251715D0F
:100A0000D8B40EEF05F0E650856F00EEC9F07051D6
:100A1000E9268551EF6E8251706F7207842B8451E5
:100A2000835DD8A4F6EF04F01200A1A86AEF05F0E8
:100A3000A1980001786B62A621EF05F085EC03F028
:100A400062960001782B040E785DD8A41BEF05F0A8
:100A500062A05CEF05F0636A626AA76B0F01276B07
:100A6000286B296B2A6B2B6B2C6B2D6B2E6B2F6BD2
:100A7000100E306F316B326B336B346B356B160E7F
:100A8000266F62A647EF05F0629641EF05F0000180
:100A9000A66BA56B6598080E0D01056F280E066FF5
:100AA0000D0E076F046B080E016F200E026F0D0E06
:100AB000036F8C0E006F629062BA629A62B862989D
:100AC00062AC66EF05F060EC02F0629C62A26AEF35
:100AD00005F06292120015EC05F0BFEF01F0656AB7
:100AE000140E0F01396F6B0E366FA09876EC02F082
:100AF000626A656A65861200756FA851766F7651D5
:100B0000D8B412006E29776F200E775DD8A48AEFD3
:100B100005F0776B000177516F5DD8A494EF05F075
:100B20006BEC05F08AEF05F0755132EF02F0000131
:100B3000A851E56FE551D8A4A1EF05F06091B2EF9F
:100B400005F057EC02F00001E89360B1E883E8B3E8
:100B5000ADEF05F06091B2EF05F044EC02F000015A
:100B6000E36F6081E35112000001A851DB6FDB519C
:100B7000D8A4BDEF05F06091120057EC02F000011F
:100B8000DE9360B1DE83DEB3C8EF05F06091120042
:100B90006081120097EC05F00001DF6FDF51120059
:100BA00000016051746F74517CEF05F0CAEC05F0E0
:100BB0000001DB6FDE9160B1DE81DEB1E4EF05F0B4
:100BC0006BEC05F0D6EF05F0DB5112006FEC05F091
:100BD0000001DA836BEC05F00001A851D96FD951FF
:100BE000D8B40CEF06F0DAB30EEF06F0DA83A00EFD
:100BF000DB6F0B0EDC6F000EDD6F1B0EE16FE26B27
:100C0000B20EE56F000EE66F000E4009E76FD6ECFE
:100C100000F08B840EEF06F0DA938B94B4EC05F0C1
:100C20000001DA9960B1DA89DAA9EAEF05F0D6ECC9
:100C300005F00001D96FD951606FD0EC05F0EAEFF3
:020C400005F0BD
:020000040001F9
:08FFF800F8F7DDFFFFF000F057
:00000001FF
