:020000040000FA
:040000007FEF00F09E
:080008000001E950196FEA50F4
:100010001A6F0851106F0951116F70EF0AF02146E5
:100020006C6173683A202154656D706572617475F6
:1000300072653A2021526F75676854656D706572FC
:1000400061747572653A20002148756D6964697440
:10005000793A2000214C696768743A20506F7765BF
:1000600072204D65746572003F6461746574696DDA
:100070006520214F4B000003020500030501040623
:100080000204100E146FD8900C370D37D890083733
:100090000937D8A050EF00F00A510C270B510D235F
:1000A000142F43EF00F01200100E146F0A6B0B6B4D
:1000B000D8900E370F37D890083709370A370B37E3
:1000C0000B510D5DD8A467EF00F00A510C5DD8B458
:1000D0006DEF00F0D8B075EF00F0D8800A510C55E4
:1000E0000A6F0B510D550B6F0E81142F58EF00F056
:1000F0001200FB6E00011751FA6E1651F96E0101E4
:100100001E6BB00E00011B6F0E0E1C6F9B8C00014E
:10011000A10E086F300E096F092F8CEF00F0082F29
:100120008AEF00F00001010E086F082F95EF00F034
:1001300000000000FF0E0F01486FFF0E496FC26AFA
:10014000C16AD26AD16A256B01011D91F2BE1D817F
:1001500080EF01F0D2A1BBEF00F00E01550EA76EAB
:10016000AA0EA76EBF8101011DB1B9EF00F0F29E8A
:100170001200F28E12001D91F2BE1D810E01F29E40
:10018000550EA76EAA0EA76EBF9112000101CF6F88
:10019000CF51D8B41200010ECF5DD8A4D7EF00F034
:1001A0000001230E086F082FD3EF00F01200CF07D5
:1001B00000011F0E086F082FDBEF00F00101CF5187
:1001C000D06FD16BECEF00F00001270E086F082F05
:1001D000E7EF00F00101D12BD151D05DD8A4E4EFBD
:1001E00000F0120001011E2B1E2DF9EF00F012EF9E
:1001F00001F000011C51EA6E1B51E96E06081B6FED
:10020000E9062651EF6EE9062751EF6EE9062851FF
:10021000EF6EE9062951EF6EE9062A51EF6EE90605
:100220002B51EF6E00010851266F0951276F26519F
:10023000286F2751296F2A6B2B6B2DEF01F00001DE
:10024000FF0E086F0E0E096F092F24EF01F0082F23
:1002500022EF01F02A2BD8B42B2B2A51285D086FEE
:100260002B51295D0811D8A41FEF01F001011E2FA9
:100270003BEF01F0120000011C51EA6E1B51E96EC8
:10028000EF502B6FE92AEF502A6FE92AEF50296FC0
:10029000E92AEF50286FE92AEF50276FE92AEF503B
:1002A000266FE9281B6F1200C951CB6FCA51CC6F62
:1002B000CD6BCE6B73EF01F00001720E086F9F0ED5
:1002C000096FDB0E0A6F0A2F63EF01F0092F61EF50
:1002D00001F0082F5FEF01F00000000000000101B5
:1002E000CD2BD8B4CE2BCD51CB5D0001086F0101D1
:1002F000CE51CC5D00010811D8A45CEF01F01200D2
:100300001D936EEF03F00D0E0001086F0101C65141
:100310000001166F0101C7510001176F0101C8519B
:1003200079EC00F00A0E0001086F0101C6510001CE
:10033000166F0101C7510001176F0101C85179EF14
:1003400000F0BC51C16FBD51C26FC151C46FC251E9
:10035000C56FC36BCBEF01F00101BE51C325F66E33
:10036000000E006EBF510020F76EC0510020F86EE5
:10037000F89C0900F5500001086F0101B951000116
:10038000166F0101BA510001176F0101BB5179ECE1
:1003900000F00101C32BC351C45D0001086F0101CE
:1003A000C55100010811D8A4ACEF01F01200B16FE3
:1003B0001DA3F9EF01F0300E0001086F0101AE51ED
:1003C0000001166F0101AF510001176F0101B0511B
:1003D00079EC00F0780E0001086F0101AE510001C8
:1003E000166F0101AF510001176F0101B05179EC97
:1003F00000F00101B1390F0BB26F0F0EB215000101
:10040000086FF00E0101B315000108110101B36F6F
:100410000F0EB315B46F300EB425B66F390EB65D3E
:10042000D8B418EF02F0D8A018EF02F0070EB627E4
:10043000B651B26FB2510001086F0101AE51000117
:10044000166F0101AF510001176F0101B05179EC36
:1004500000F00F0E0101B1150001086FF00E01014F
:10046000B315000108110101B36F0F0EB315B76F7B
:10047000300EB725B86F390EB85DD8B445EF02F02D
:10048000D8A045EF02F0070EB827B851B26FB251AD
:100490000001086F0101AE510001166F0101AF515B
:1004A0000001176F0101B05179EF00F0D890000101
:1004B0002C372D372E372F37D8902C350101AA6FC6
:1004C00000012D350101AB6F00012E350101AC6F2C
:1004D00000012F350101AD6FD890AA37AB37AC378B
:1004E000AD37AA5100012C270101AB5100012D238A
:1004F0000101AC5100012E230101AD5100012F2358
:100500001200010E00012C6F2D6B2E6B2F6B010161
:10051000A26BA36B00012F510101A15DD8A4A3EF31
:1005200002F000012E510101A05DD8A4A3EF02F05A
:1005300000012D5101019F5DD8A4A3EF02F000013D
:100540002C5101019E5DA591D8A4D8B0A581000EC3
:10055000A35DD8A4AEEF02F00A0EA25DA593D8B4B5
:10056000B4EF02F0D8A0A583A585A5B1A5A3A59554
:10057000A5A5C3EF02F056EC02F00101A22BD8B4FE
:10058000A32B8AEF02F0A251A311D8A4CBEF02F063
:10059000010EA26FA36BA207A229D8B4A307010E74
:1005A00000012C6F2D6B2E6B2F6B0101A251A66FDA
:1005B000A351A76FA86BA96BE4EF02F056EC02F011
:1005C0000101A82BD8B4A92BA851A65D0001086F82
:1005D0000101A951A75D00010811D8A4DEEF02F0C6
:1005E000300E0101A46FA15100012F5DD8A40BEFC3
:1005F00003F00101A05100012E5DD8A40BEF03F020
:1006000001019F5100012D5DD8A40BEF03F0010102
:100610009E5100012C5DD8B411EF03F0D8B02AEF41
:1006200003F0D88001019E5100012C5501019E6FFD
:100630009F5100012D5501019F6FA05100012E55C2
:100640000101A06FA15100012F550101A16FA42B41
:10065000F3EF02F00101A4510001086F01019B5169
:100660000001166F01019C510001176F01019D519E
:1006700079EC00F00101A251A311D8A4CBEF02F054
:1006800012009551976F9651986F996B9A6B925192
:100690009B6F93519C6F94519D6F97519E6F985192
:1006A0009F6F9951A06F9A51A16F81EF02F00101E4
:1006B0008D6F8D518E6F8F6B906B916B8A519B6F8D
:1006C0008B519C6F8C519D6F8E519E6F8F519F6F80
:1006D0009051A06F9151A16F81EF02F094948B849F
:1006E000010EC96FCA6B54EC01F08B94010E01012D
:1006F000C96FCA6B54EC01F00101D291AAEC00F071
:10070000E00E0E01E1150109E16F0101D281AAECB1
:1007100000F0BFEF03F07E86AD84E10EB06E040EF4
:100720007F6E1200AD6AAC6A8BEC03F09D9A9D98C7
:10073000948E948CAD8AAC8EAC881200896F9EA882
:100740009FEF03F08951AE6E1200886F88519EEFC3
:1007500003F09EAAB1EF03F0AF50866F9E9AB4EFFC
:1007600003F08791BAEF03F0ACA2B9EF03F0AC98B5
:10077000AC88878187A1A9EF03F08651120092EC23
:1007800003F00001EB6B5DEF06F03E0C806F816BB8
:100790008051D8A4D7EF03F00001AE510101826F60
:1007A000836B846B856B8251816F8AEF04F0010E3D
:1007B000805DD8A4EAEF03F00001AD510101826F22
:1007C0000001AE510101836F846B856B8251816F93
:1007D0008AEF04F0020E805DD8A400EF04F000015F
:1007E000AC510101826F0001AD510101836F000125
:1007F000AE510101846F856B8251816F8AEF04F0E5
:10080000030E805DD8A40BEF04F00001AB51010191
:10081000816F8AEF04F0040E805DD8A41BEF04F012
:100820000001B2510101826F836B846B856B825131
:10083000816F8AEF04F0050E805DD8A42EEF04F0DE
:100840000001B1510101826F0001B2510101836FBA
:10085000846B856B8251816F8AEF04F0060E805D98
:10086000D8A444EF04F00001B0510101826F0001EF
:10087000B1510101836F0001B2510101846F856B99
:100880008251816F8AEF04F0070E805DD8A44FEF8C
:1008900004F00001AF510101816F8AEF04F0080EEE
:1008A000805DD8A45DEF04F00001B4510101826FB6
:1008B000836B8251816F8AEF04F0090E805DD8A4AA
:1008C00068EF04F00001B3510101816F8AEF04F079
:1008D0000A0E805DD8A473EF04F00001B551010148
:1008E000816F8AEF04F00B0E805DD8A47EEF04F0D8
:1008F0000001B6510101816F8AEF04F0F40E8025EA
:10090000826F0E0E8225836F00EEABF08351E926D5
:10091000EF50816F8151120001017C6F7E0E7C5D72
:100920007E93D8B47E837D0E7C5D7E95D8B47E8523
:100930007E977EA37EB57E87110E7C5D7E99D8B4AE
:100940007E897E9B7EA77EB97E8B130E7C5D7E9D0D
:10095000D8B47E8D7E9F7EAB7EBD7E8F7F817EB143
:100960007EAF7F917FA1BFEF04F07D0EA5EC03F079
:10097000200E01017C197D6F7D51A5EF03F07C51A4
:10098000A5EF03F001017E917E0E8CEC04F03E0E8B
:100990000101766F020E7625746F756B7551776F56
:1009A000020E7625746F7451786F7E8177518CECCE
:1009B00004F001017E8178518CEC04F001017E810C
:1009C0000001B7518CEC04F001017E810001B851A7
:1009D0008CEC04F00101796B0001B751010179271A
:1009E0000001B8510101792776517B6F7A6B0BEFCB
:1009F00005F07A51C6EC03F00101746F7E817451E9
:100A00008CEC04F001017A51C6EC03F00101746F23
:100A1000745179277A2B7A517B5DD8A4F9EF04F0D1
:100A2000D880FF0E79577E8179518CEC04F000015B
:100A3000EB6B1200A891A96BA66BAA6B12001AECC3
:100A400005F00001346BA46BA56BA76B0101726B01
:100A5000020E7225736F00EE34F07351E926EF6ACF
:100A6000722B6E0E725DD8A428EF05F01200000103
:100A7000306B31911FEF05F001016E6B6E516F6F9E
:100A80000001A5510101706F6F517025716F715197
:100A900012000B0E0001AA2501016B6F020E6B25DF
:100AA0006C6F00EE34F06C51E926EF506D6F000171
:100AB000AA2B01016D51120000010851246F0E0E86
:100AC000EB25256F00EEABF02551E9262451EF6EA2
:100AD000EB2B12000001A95101016881D8B4689183
:100AE00068830001A8B17AEF05F0010168B17AEFDF
:100AF00005F06893010168B337EC05F001016A85E0
:100B0000A9EC03F00101646F000130510101688517
:100B1000D8B468957E0E645D6897D8B46887688994
:100B200068B568A7689968A99AEF05F0030E0001F7
:100B3000A96F1200000130510101688BD8B4689B85
:100B40007D0E645D689DD8B4688D688F68BB68ADA4
:100B5000689F68AFB0EF05F00001318101016A952F
:100B60006AA57EEF05F0000131A1C0EF05F03191DB
:100B7000010164ABBFEF05F0649BC0EF05F0648B2F
:100B8000030E0001305DD8B4C9EF05F0D8A0CDEF59
:100B900005F001016451000132273051D8A4DBEF88
:100BA00005F07E0E0101645DD8A47EEF05F0000122
:100BB000302B7EEF05F0010E305DD8A4E7EF05F095
:100BC000010164510001A46F302B7EEF05F0020E8D
:100BD000305DD8A4F3EF05F0010164510001A56F69
:100BE000302B7EEF05F0030E305DD8A4FFEF05F04B
:100BF000010164510001346F302B7EEF05F06E0E61
:100C0000305DD8B40AEF06F0D8A00AEF06F0020E65
:100C1000A96F12003CEC05F00101656F030E65251C
:100C2000666F000130510101665DD8A431EF06F016
:100C3000000132510101676FFF0E675DD8A428EFF4
:100C400006F064510001A66FA881A96B2BEF06F096
:100C5000010E0001A96FFC0E3025A76F306B326BBF
:100C60001200FC0E000130250101656F020E6525A2
:100C7000666F00EE34F06651E9266451EF6E0001B4
:100C8000302B7EEF05F0900E0001345DD8B44DEFAF
:100C900006F06AEC05F043EF06F01200C2EC04F037
:100CA0006AEC05F00001A951D8A44EEF06F012003D
:100CB000306B3191326B336B120058EC06F000014F
:100CC000EC6BA20EED6F130EEE6FEF6B090EF06F73
:100CD000110EF16F300EF26F400EF36FFE0EF46FD7
:100CE000FF0EF56FEC51AB6FED51AC6FEE51AD6F88
:100CF000EF51AE6FF051AF6FF151B06FF251B16F74
:100D0000F351B26FF451B36FF551B46F100EB76F6A
:100D1000010EB86FB56BB66BF66BF76BF86BF96BD2
:100D2000FA6BFB6BFC6B70EF07F001015D6B5E6BA8
:100D30005F6B070E606F5F6B00EEF8F05F51E926A6
:100D4000EF6A5F2B050E5F5DD8A49CEF06F05F6B2A
:100D500092968996120E0001086F096BF2EC00F072
:100D60008986040EC6EC00F0928680B6C9EF06F0C4
:100D700001015D2BD8B45E2BE80E5D5D0001086FAC
:100D8000030E01015E5D00010811D8A4B5EF06F065
:100D9000020C01015D6B5E6B80A6E0EF06F00101C5
:100DA0005D2BD8B45E2BE80E5D5D0001086F030E6D
:100DB00001015E5D00010811D8A4CCEF06F0020C21
:100DC0000101626B5D6B5E6B80B6F8EF06F00101AE
:100DD0005D2BD8B45E2BE80E5D5D0001086F030E3D
:100DE00001015E5D00010811D8A4E4EF06F0020CD9
:100DF000040EC6EC00F080A620EF07F00101605160
:100E0000006E010E616F005009EF07F0D890613756
:100E10000006D8A406EF07F000EEF8F05F51E926CF
:100E2000EF500001086F0101615100010811096FC5
:100E300000EEF8F001015F51E92600010951EF6E63
:100E400001016051D8A42AEF07F0070E606F5F2BF5
:100E50002BEF07F060075D6B5E6B80A641EF07F03C
:100E600001015D2BD8B45E2BE80E5D5D0001086FBB
:100E7000030E01015E5D00010811D8A42DEF07F0FB
:100E8000020C0101622B280E625DD8A4E2EF06F08D
:100E90000001F851FA250101636F0001FC510101C5
:100EA000635DD8B455EF07F0010C0001F851F76FFE
:100EB000FA51F66F000C586FD89058315A6F780E6F
:100EC0005A15596FD880585159555A6FD890593181
:100ED0005B6FD8905B335A515B255C6F5C5112009D
:100EE000FD6B010EFE6F010EFF6F0101016B026BC6
:100EF000036B010E046F010E056F066B076B086B29
:100F0000096B8CEF09F057A18DEF07F00F01550E1B
:100F1000A76EAA0EA76E3F8B12000F01550EA76E8B
:100F2000AA0EA76E3F9B12000F013FAF9DEF07F087
:100F30003FA99DEF07F098EF07F03F833F813A51BB
:100F40000001FD6F0F013F913A510001FF6F0F014A
:100F50003B510001FE6F0F013A510101016F0F017A
:100F60003B510101006F0F013A510101036F0F0165
:100F70003B510101026F12000F013FBFC4EF07F0A8
:100F800001015691C6EF07F0010156810F013FAFF5
:100F9000CFEF07F03FA9CFEF07F0CAEF07F001014D
:100FA000578183EC07F00F013F9F3F833F81000192
:100FB000FD510F013A6F3F910001FF510F013A6F50
:100FC0000001FE510F013B6F010101510F013A6F0A
:100FD000010100510F013B6F010103510F013A6FF5
:100FE000010102510F013B6F010156B1FCEF07F007
:100FF0000F013F9FFEEF07F00F013F8F0101579157
:1010000083EF07F00F014783479144510101056FBA
:101010000F0145510101046F0F0144510101076F98
:101020000F0145510101066F0F0144510101096F84
:101030000F0145510101086F12000F0147BF25EF55
:1010400008F00101559127EF08F0010155810F01CA
:10105000479F47834791010105510F01446F0101EB
:1010600004510F01456F010107510F01446F010148
:1010700006510F01456F010109510F01446F010134
:1010800008510F01456F010155B14AEF08F00F01FA
:10109000479F12000F01478F1200496F49515BECC7
:1010A00007F00101526F4A515BEC07F00101536FE9
:1010B0004B515BEC07F00101546F030E535DD8B444
:1010C0006EEF08F0D8B06EEF08F05251D8B46CEF64
:1010D00008F052076EEF08F0040E526FD8905231AC
:1010E0004C6FD8904C3352514C254D6F53054E6F79
:1010F000760EF66E000EF76E000EF86E4E51F62666
:10110000000E006E0050F7220050F8220900F55042
:101110000001086F01014D510001082501014F6FC9
:101120004F515425506F070E00010C6F0D6B0101DC
:1011300050510001086F096B54EC00F000010A5196
:101140000101516F51511200476F0F013FBFADEFC9
:1011500008F001014891AFEF08F001014881578183
:1011600083EC07F00F013F9F010147510F013E6FD4
:10117000010148B1C0EF08F00F013F9FC2EF08F036
:101180000F013F8F0101579183EF07F04693F2BEA5
:101190004683F29E578183EC07F0010146B1D4EFFC
:1011A00008F0CD96D5EF08F0CD8646B1DCEF08F01B
:1011B0000F013F9FDEEF08F00F013F8F01015791B4
:1011C00083EC07F0010146B3E8EF08F0F29E12004D
:1011D000F28E120094EC07F001010151436F0251AD
:1011E000446F0351456F43511200406F4051016FEE
:1011F0004151026F4251036FBCEF07F094EC07F0CE
:101200000001FD5101013D6F0001FE5101013E6FE2
:101210000001FF5101013F6F3D5112003A6F94EC04
:1012200007F001013A510001FD6F01013B5100013E
:10123000FE6F01013C510001FF6F01013B514A6FFC
:101240003C514B6F3A514DEC08F00101006FBCEF7F
:1012500007F00101396F090E395DD8B433EF09F099
:10126000D8B04AEF09F00F013FAF3CEF09F03FA9BA
:101270003CEF09F037EF09F0010139350001086F43
:1012800008373C0E0817C30E0F014715000108115F
:101290000F01476F12000101386F0F013FAF56EF8A
:1012A00009F03FA956EF09F051EF09F0FF0E0101D7
:1012B000385DD8A460EF09F00F01478D62EF09F0A7
:1012C0000F01479D010138510F01466F1200356F24
:1012D00002EC08F001013551076F3651086F3751A4
:1012E000096F1DEC08F0060E29EC09F0FF0E4BEF1C
:1012F00009F00F013FAF82EF09F03FA982EF09F03B
:101300007DEF09F0010134B189EF09F00F01479F2A
:1013100012000F01478F1200000EA4EC08F0F086B7
:10132000F090F19AA380F28EF28C0101126B136B94
:10133000146B156B166B176B186B196B1D954AEFB9
:101340000AF012000101336F3351D8A4ABEF09F05A
:101350000F0148919280010E0101335DD8A4B4EFD2
:1013600009F00F0148939282020E0101335DD8A467
:10137000BDEF09F00F0148959284030E0101335D22
:10138000D8A4C6EF09F00F0148979286040E010118
:10139000335DD8A4CFEF09F00F014899928A080E67
:1013A0000101335DD8A4D8EF09F00F01499193846E
:1013B000090E0101335DD8A4E1EF09F00F01499353
:1013C00093860A0E0101335DD8A4EAEF09F00F01FC
:1013D000499593820B0E0101335DD8A4F3EF09F018
:1013E0000F01499794840C0E0101335DD8A4FCEFE2
:1013F00009F00F014999938012002F6F32B104EF69
:101400000AF0C19E05EF0AF0C18E2F350001086F6A
:1014100008373C0E0817C30EC2140811C26EC280F2
:1014200001011B51C6EC00F0C282C2B215EF0AF0F6
:10143000C4500101316FC350306F810E1A5DD8B4B2
:1014400025EF0AF0D8A034EF0AF000010B0E086F68
:10145000B40E096F092F2AEF0AF0082F28EF0AF0BF
:10146000000000003AEF0AF000013F0E086F082F5D
:1014700037EF0AF0C290010130510001086F0101FD
:1014800031510001096F120001012C6F32812C5182
:10149000FDEF09F01F6B1F310001086F08330831A1
:1014A000086FC00E08173F0EC2140811C26E080E56
:1014B0000101206F216B0D0E206F216BF80EC114FE
:1014C0000609C16E20511A6FC70EC1160E0E1B6F92
:1014D000040EA2EC09F0000EA2EC09F079EF0BF07B
:1014E000F0A08CEF0AF082A479EF0AF01D917AEF58
:1014F0000AF01D811DB180EF0AF08B9481EF0AF094
:101500008B840101102BD8B4112B0A0E0001086F37
:10151000096BF2EC00F0F090A4A092EF0AF0010148
:101520001D85A49000011051086F1151096F1951C8
:10153000E96E1A51EA6E110049EC05F00101286FBD
:10154000D00E2825296F2939F00B276F49EC05F0BB
:101550000101286FD00E2825296F295127272751EF
:10156000120043EC06F09CEC0AF001010A6F49EC12
:1015700005F09CEC0AF001010B6F49EC05F09CECC6
:101580000AF001010C6F49EC05F09CEC0AF0010136
:101590000D6F49EC05F09CEC0AF001010E6F49EC6F
:1015A00005F09CEC0AF001010F6F0B513B6F0C51E1
:1015B0003C6F0A510EEC09F001010E51416F0E51C2
:1015C000426F0D51F5EC08F001010E51366F0F51CD
:1015D000376F0D5167EC09F0030E29EC09F0FF0E8F
:1015E0004BEC09F00101348179EC09F001014681ED
:1015F000C6EC08F0B80E0101B96F0A0EBA6F000E02
:10160000BB6F030EBC6FBD6B720EBE6F000EBF6F63
:10161000000E4009C06FA1EC01F0B80E0101C66FC9
:101620000A0EC76F000EC86F83EC01F04EEF06F094
:10163000000E44EC0AF0000108510101256F000181
:1016400009510101266F25510001086F0101265142
:101650000001096FB50E0A6F010E0B6F41EC00F02F
:1016600000010C510101226F00010D510101236F96
:10167000140E2225146F690E2321156F100E000120
:101680000C6F270E0D6F010114510001086F01014D
:1016900015510001096F54EC00F000010E510101D9
:1016A000166F640E00010C6F0D6B010114510001E7
:1016B000086F010115510001096F54EC00F00001A1
:1016C0000E510101226F00010F510101236F1651CC
:1016D0000001086F096B640E0A6F0B6B41EC00F0A0
:1016E00000010C510101246FD88022512455176F3D
:1016F0001200B80E0101B96F0A0EBA6F000EBB6F6F
:101700000C0EBC6FBD6B5C0EBE6F000EBF6F000E8B
:101710004009C06FA1EC01F0B80E0101C66F0A0EBE
:10172000C76F000EC86F83EC01F04EEC06F0B80EE8
:101730000101B96F0A0EBA6F000EBB6F0A0EBC6FC3
:10174000BD6B680EBE6F000EBF6F000E4009C06F0C
:10175000A1EC01F0B80E0101C66F0A0EC76F000EB2
:10176000C86F83EC01F04EEC06F0B1EC0AF0010119
:101770001DA513EF0DF01D95FEEC08F001010A6F99
:101780003E510B6F3F510C6FEAEC08F001010D6FF9
:1017900044510E6F45510F6FB80EB96F0A0EBA6FF4
:1017A000000EBB6F080EBC6FBD6B1E0EBE6F000E31
:1017B000BF6F000E4009C06FA1EC01F0B80E01012F
:1017C000AE6F0A0EAF6F000EB06F0A51D7EC01F08A
:1017D0002D0E0001086F5CEC05F0B80E0101AE6F34
:1017E0000A0EAF6F000EB06F0B51D7EC01F02D0E4B
:1017F0000001086F5CEC05F0B80E0101AE6F0A0E37
:10180000AF6F000EB06F0C51D7EC01F0200E00014D
:10181000086F5CEC05F0B80E0101AE6F0A0EAF6FF9
:10182000000EB06F0D51D7EC01F03A0E0001086FB9
:101830005CEC05F0B80E0101AE6F0A0EAF6F000E42
:10184000B06F0E51D7EC01F03A0E0001086F5CEC5E
:1018500005F0B80E0101AE6F0A0EAF6F000EB06F4B
:101860000F51D7EC01F07C0E0001086F5CEC05F025
:10187000B80E0101926F0A0E936F000E946F105113
:10188000956F1151966F41EC03F0B80E0101C66FD0
:101890000A0EC76F000EC86F83EC01F00101106BD8
:1018A000116B4EEC06F095EC06F001011C6F1C511B
:1018B000D8A4ACEF0CF0B80EB96F0A0EBA6F000ED8
:1018C000BB6F0B0EBC6FBD6B480EBE6F000EBF6FC3
:1018D000000E4009C06FA1EC01F0B80E01018A6F43
:1018E0000A0E8B6F000E8C6F0001F75157EC03F05E
:1018F000B80E0101C66F0A0EC76F000EC86F83ECE9
:1019000001F04EEC06F0B80E0101B96F0A0EBA6F85
:10191000000EBB6F130EBC6FBD6B340EBE6F000E9E
:10192000BF6F000E4009C06FA1EC01F0B80E0101BD
:101930008A6F0A0E8B6F000E8C6F0001F65157EC08
:1019400003F0B80E0101C66F0A0EC76F000EC86F14
:1019500083EC01F04EEC06F0B80E0101B96F0A0EEF
:10196000BA6F000EBB6F080EBC6FBD6B540EBE6F1E
:10197000000EBF6F000E4009C06FA1EC01F0B80E61
:101980000101926F0A0E936F000E946F1851956FBC
:101990001951966F41EC03F0B80E0101C66F0A0EA3
:1019A000C76F000EC86F83EC01F00101186B196B53
:1019B0004EEC06F018EC0BF0B80E0101B96F0A0EF0
:1019C000BA6F000EBB6F0E0EBC6FBD6B260EBE6FE6
:1019D000000EBF6F000E4009C06FA1EC01F0B80E01
:1019E00001018A6F0A0E8B6F000E8C6F165157EC37
:1019F00003F02E0E0001086F5CEC05F0B80E01013B
:101A00008A6F0A0E8B6F000E8C6F175157EC03F024
:101A1000B80E0101C66F0A0EC76F000EC86F83ECC7
:101A200001F04EEC06F0040E44EC0AF000010851FF
:101A30000101126F000109510101136F1351195D6A
:101A4000D8A425EF0DF01251185DD8B42BEF0DF08E
:101A5000D8B02FEF0DF01251186F1351196F8B84FE
:101A6000140E0001086F096BF2EC00F08B94050E68
:101A70000101C96FCA6B54EC01F00400B7EF0BF021
:020000040001F9
:08FFF800F9F7FDFBFFFAFFFB26
:00000001FF
