:020000040000FA
:0400000080EF00F09D
:0800080000016051706F6151AD
:10001000716F17EF05F030313233343536373839F8
:10002000414243444546010000000A0000006400CC
:100030000000E803000010270000A08601004042F5
:100040000F008096980000E1F50500CA9A3B214414
:100050006174613A2000506F776572204D65746558
:1000600072003F6461746574696D6520214F4B00B7
:10007000000302050003050104060204200E746F4C
:10008000646B656B666B676BD8906C376D376E37DA
:100090006F37D890603761376237633764376537B9
:1000A0006637673767516B5DD8A463EF00F0665120
:1000B0006A5DD8A463EF00F06551695DD8A463EF71
:1000C00000F06451685DD8B469EF00F0D8B077EF04
:1000D00000F0D88064516855646F65516955656F4B
:1000E00066516A55666F67516B55676F6C81742FE7
:1000F00044EF00F01200FB6E7751FA6E7651F96E04
:100100009B8C0001A10E606F300E616F612F86EF36
:1001100000F0602F84EF00F00001010E606F602F8F
:100120008FEF00F000000000FF0E0F01486FFF0E80
:10013000496FC26AC16AD26AD16A256B0001979180
:10014000F2BE978108EF01F0F4A1B5EF00F00E01C7
:10015000550EA76EAA0EA76EBF81000197B1B3EF2F
:1001600000F0F29E1200F28E12009791F2BE97817B
:100170000E01F29E550EA76EAA0EA76EBF91120039
:100180007A517C6F7B517D6F7E6B7F6BD6EF00F079
:100190000001FF0E606F0E0E616F612FCDEF00F05A
:1001A000602FCBEF00F07E2BD8B47F2B7E517C5D8F
:1001B000606F7F517D5D6011D8A4C8EF00F0120020
:1001C000EE51F06FEF51F16FF26BF36BFEEF00F059
:1001D0000001720E606F9F0E616FDB0E626F622F07
:1001E000EFEF00F0612FEDEF00F0602FEBEF00F08C
:1001F000000000000000F22BD8B4F32BF251F05DA8
:10020000606FF351F15D6011D8A4E8EF00F01200C7
:10021000979385EF02F00D0E606FDF51766FE0511E
:10022000776FE1517BEC00F00A0E0001606FDF5147
:10023000766FE051776FE1517BEF00F0D551DA6FC7
:10024000D651DB6FDA51DD6FDB51DE6FDC6B41EFD6
:1002500001F0D751DC25F66E000E5E6ED8515E209F
:10026000F76ED9515E20F86EF89C0900F550606F6A
:10027000D251766FD351776FD4517BEC00F00001EF
:10028000DC2BDC51DD5D606FDE516011D8A429EFFD
:1002900001F01200CF6F97A361EF01F0300E606F95
:1002A000CC51766FCD51776FCE517BEC00F0780E4C
:1002B0000001606FCC51766FCD51776FCE517BECE2
:1002C00000F00001CF390F0BD06F0F0ED015D16F9A
:1002D000160EF66E000EF76E000EF86ED151F62671
:1002E000000E5E6E5E50F7225E50F8220900F55057
:1002F000606FCC51766FCD51776FCE517BEC00F0B3
:100300000F0E0001CF15D06F160EF66E000EF76EB1
:10031000000EF86ED051F626000E5E6E5E50F7228B
:100320005E50F8220900F550606FCC51766FCD51C8
:10033000776FCE517BEF00F0C751E26FC851E36F8A
:10034000C951E46FCA51E56FCB51E66FE76BE86BBB
:10035000040EABEF01F0E96FE551E611E711E8118A
:10036000D8A4BCEF01F0300E606FE251766FE3511C
:10037000776FE4517BEF00F0ED81E951800A606F07
:10038000800E605DD8B4C8EF01F0D8A084EF02F011
:10039000D890E935EB6FD890EB37260EF66E000E4D
:1003A000F76E000EF86EEB51F626000EEBBFFF0E57
:1003B0005E6E5E50F7225E50F8220900F550606FC5
:1003C0000900F550616F0900F550626F0900F550A2
:1003D000636FE851635DD8A4FAEF01F0E751625D05
:1003E000D8A4FAEF01F0E651615DD8A4FAEF01F06C
:1003F000E551605DD8B400EF02F0D8B064EF02F0D0
:10040000D890E935EC6FD890EC37260EF66E000EDA
:10041000F76E000EF86EEC51F626000EECBFFF0EE4
:100420005E6E5E50F7225E50F8220900F550686F4C
:100430000900F550696F0900F5506A6F0900F55021
:100440006B6FE551606FE651616FE751626FE85184
:10045000636F3EEC00F000016C51EA6FD890E93513
:10046000EB6FD890EB37260EF66E000EF76E000E8F
:10047000F86EEB51F626000EEBBFFF0E5E6E5E507F
:10048000F7225E50F8220900F550686F0900F55018
:10049000696F0900F5506A6F0900F5506B6FE551FF
:1004A000606FE651616FE751626FE851636F3EEC38
:1004B00000F000016451E56F6551E66F6651E76F2A
:1004C0006751E86F65EF02F0EA6BE907EA51ED89E1
:1004D000D8B4ED99ED9BEDA1ED8BED9DEDA9EDBBB4
:1004E000ED8DEDADBDEF01F0300EEA11EB6FEB518C
:1004F000606FE251766FE351776FE4517BEC00F06F
:100500000001ED91BDEF01F0120094948B94F491F1
:10051000A4EC00F0E00E0E01E1150109E16F00010D
:10052000F481A4EC00F0C9EF02F07E86AD84E10E08
:10053000B06E040E7F6E120095EC02F09D9A9D98AD
:10054000AD8A900EAC6E1200816F9EA8A5EF02F0EE
:100550008151AE6E120000016051806F8051A4EF96
:1005600002F09EAABAEF02F0AF500001C56F9E9A4A
:10057000BEEF02F00001C691C4EF02F0ACA2C3EFDF
:1005800002F0AC98AC88C681C6A1B1EF02F0C551AB
:1005900012009CEC02F0560E0001D26F050ED36FD4
:1005A000000ED46F0B0ED56FD66B560ED76F000EA4
:1005B000D86F000E4009D96F1EEC01F0560E0001F5
:1005C000DF6F050EE06F000EE16F0BEC01F0FEEF48
:1005D00002F0C06FD890C031C26F780EC215C16FE3
:1005E000D880C051C155C26FD890C131C36FD89067
:1005F000C333C251C325C46FC45112000001826BC2
:10060000010E836F010E846F866B876B886B010E02
:10061000896F010E8A6F8B6B8C6B8D6B8E6B0AEF03
:1006200005F0BFA11BEF03F00F01550EA76EAA0E38
:10063000A76E3F8B12000F01550EA76EAA0EA76E74
:100640003F9B12000F013FAF2BEF03F03FA92BEFB1
:1006500003F026EF03F03F833F813A510001826FA0
:100660000F013F913A510001846F0F013B5100018E
:10067000836F0F013A510001866F0F013B5100015A
:10068000856F0F013A510001886F0F013B51000146
:10069000876F12000F013FBF52EF03F00001BE91C0
:1006A00054EF03F00001BE810F013FAF5DEF03F097
:1006B0003FA95DEF03F058EF03F00001BF8111EC9B
:1006C00003F00F013F9F3F833F81000182510F01E3
:1006D0003A6F3F91000184510F013A6F000183513D
:1006E0000F013B6F000186510F013A6F00018551E8
:1006F0000F013B6F000188510F013A6F00018751D4
:100700000F013B6F0001BEB18AEF03F00F013F9F65
:100710008CEF03F00F013F8F0001BF9111EF03F049
:100720000F0147834791445100018A6F0F014551E2
:100730000001896F0F01445100018C6F0F01455179
:1007400000018B6F0F01445100018E6F0F01455165
:1007500000018D6F12000F0147BFB3EF03F00001DE
:10076000BD91B5EF03F00001BD810F01479F4783A5
:10077000479100018A510F01446F000189510F0117
:10078000456F00018C510F01446F00018B510F0127
:10079000456F00018E510F01446F00018D510F0113
:1007A000456F0001BDB1D8EF03F00F01479F120064
:1007B0000F01478F1200B16FB151E9EC02F0000157
:1007C000BA6FB251E9EC02F00001BB6FB351E9EC32
:1007D00002F00001BC6F030EBB5DD8B4FCEF03F068
:1007E000D8B0FCEF03F0BA51D8B4FAEF03F0BA076F
:1007F000FCEF03F0040EBA6FD890BA31B46FD89002
:10080000B433BA51B425B56FBB05B66F700EF66E32
:10081000000EF76E000EF86EB651F626000E5E6EF4
:100820005E50F7225E50F8220900F550606FB55116
:100830006025B76FB751BC25B86F070E686F696B3D
:100840006A6B6B6BB851606F616B626B636B3EEC94
:1008500000F000016451B96FB9511200AF6F0F0180
:100860003FBF37EF04F00001B09139EF04F0000111
:10087000B081BF8111EC03F00F013F9F0001AF5128
:100880000F013E6F0001B0B14AEF04F00F013F9F2E
:100890004CEF04F00F013F8F0001BF9111EF03F007
:1008A000AE93F2BEAE83F29EBF8111EC03F0000165
:1008B000AEB15EEF04F0CD965FEF04F0CD86AEB141
:1008C00066EF04F00F013F9F68EF04F00F013F8FC8
:1008D0000001BF9111EC03F00001AEB372EF04F020
:1008E000F29E1200F28E120022EC03F000018651FB
:1008F000AB6F8751AC6F8851AD6FAB511200A86FD1
:10090000A851866FA951876FAA51886F4AEF03F0EB
:1009100022EC03F000018251A56F8351A66F845130
:10092000A76FA5511200A26F22EC03F00001A251A3
:10093000826FA351836FA451846FA351B26FA451EE
:10094000B36FA251DBEC03F00001856F4AEF03F0B7
:100950000001A16F090EA15DD8B4B2EF04F0D8B0C8
:10096000C8EF04F00F013FAFBBEF04F03FA9BBEFAE
:1009700004F0B6EF04F00001A135606F60373C0E63
:100980006017C30E0F014715000160110F01476F7B
:1009900012000001A06F0F013FAFD4EF04F03FA998
:1009A000D4EF04F0CFEF04F0FF0E0001A05DD8A457
:1009B000DEEF04F00F01478DE0EF04F00F01479DDB
:1009C0000001A0510F01466F12009D6F90EC03F0E3
:1009D00000019D518C6F9E518D6F9F518E6FABECBE
:1009E00003F0060EA8EC04F0FF0EC9EF04F00F01AF
:1009F0003FAF00EF05F03FA900EF05F0FBEF04F07B
:100A000000019CB107EF05F00F01479F12000F0195
:100A1000478F1200000E2EEC04F0F086F090F19A51
:100A2000A380F28EF28C0001979501EF06F0F0A002
:100A300031EF05F082A420EF05F0799121EF05F068
:100A4000798179B127EF05F08B9428EF05F08B843D
:100A5000952BD8B4962B0A0E7A6F7B6BC0EC00F006
:100A6000F090A4A037EF05F000019785A490000155
:100A70007051606F7151616F1100B1EC02F00001B3
:100A80009A6F9A51606FABEC02F0D00E00019A257C
:100A90009B6F9B39F00B996FB1EC02F000019A6FDC
:100AA0009A51606FABEC02F0D00E00019A259B6F5B
:100AB0009B51992799511200560ED26F050ED36F94
:100AC000000ED46F0A0ED56FD66B620ED76F000E74
:100AD000D86F000E4009D96F1EEC01F0560E0001D0
:100AE000DF6F050EE06F000EE16F0BEC01F03DECE7
:100AF00005F000018F6FB1EC02F00001986F985182
:100B0000606FABEC02F03DEC05F00001906FB1ECD2
:100B100002F00001986F9851606FABEC02F03DEC71
:100B200005F00001916FB1EC02F00001986F98514F
:100B3000606FABEC02F03DEC05F00001926FB1ECA0
:100B400002F00001986F9851606FABEC02F03DEC41
:100B500005F00001936FB1EC02F00001986F98511D
:100B6000606FABEC02F03DEC05F00001946F90512A
:100B7000A36F9151A46F8F5193EC04F00001935136
:100B8000A96F9351AA6F92517FEC04F00001935129
:100B90009E6F94519F6F9251E5EC04F0030EA8EC08
:100BA00004F0FF0EC9EC04F000019C81F7EC04F0A6
:100BB0000001AE8150EC04F0560E0001DF6F050E0F
:100BC000E06F000EE16F0BEC01F0560E0001D26FEA
:100BD000050ED36F000ED46F030ED56FD66B6C0E5F
:100BE000D76F000ED86F000E4009D96F1EEC01F0D0
:100BF000560E0001DF6F050EE06F000EE16F0BEF88
:100C000001F05CEC05F0000197A5A5EF06F09795C3
:100C1000560EDF6F050EE06F000EE16F0BEC01F07A
:100C200088EC04F000018F6FA651906FA751916F6F
:100C300074EC04F00001926FAC51936FAD51946F5E
:100C4000560ED26F050ED36F000ED46F070ED56F00
:100C5000D66B4E0ED76F000ED86F000E4009D96FBD
:100C60001EEC01F0560E0001CC6F050ECD6F000E8C
:100C7000CE6F8F514AEC01F02D0E0001606FABEC8E
:100C800002F0560E0001CC6F050ECD6F000ECE6F38
:100C900090514AEC01F02D0E0001606FABEC02F0B8
:100CA000560E0001CC6F050ECD6F000ECE6F915128
:100CB0004AEC01F0200E0001606FABEC02F0560E22
:100CC0000001CC6F050ECD6F000ECE6F92514AEC35
:100CD00001F03A0E0001606FABEC02F0560E00011D
:100CE000CC6F050ECD6F000ECE6F93514AEC01F024
:100CF0003A0E0001606FABEC02F0560E0001CC6FB3
:100D0000050ECD6F000ECE6F94514AEC01F07C0EB3
:100D10000001606FABEC02F0560E0001C76F050ECC
:100D2000C86F000EC96F9551CA6F9651CB6F9CEC7E
:100D300001F0560E0001DF6F050EE06F000EE16F4F
:100D40000BEC01F00001956B966B010EEE6FEF6BF3
:100D5000E0EC00F02E0E0001606FABEC02F004003E
:040D600003EF06F0A7
:020000040001F9
:08FFF800F9F7DDFAFFF000F05B
:00000001FF
