:020000040000FA
:0400000064EF00F0B9
:080008000001E9501A6FEA50F3
:100010001B6F0951116F0A51126FCEEF0BF0214681
:100020006C6173683A002154656D70657261747516
:1000300072653A002148756D69646974793A214C9A
:10004000696768743A0021416972513A506F776567
:1000500072204D65746572003F6461746574696DEA
:100060006500214F4B000003020500030501040653
:100070000204100E156F0B6B0C6BD8900F371037F6
:10008000D89009370A370B370C370C510E5DD8A4BE
:100090004CEF00F00B510D5DD8B452EF00F0D8B02A
:1000A0005AEF00F0D8800B510D550B6F0C510E55C7
:1000B0000C6F0F81152F3DEF00F01200FB6E000159
:1000C0001851FA6E1751F96E0101206BB00E000144
:1000D0001C6F0E0E1D6F9B8C0001A10E096F300E60
:1000E0000A6F0A2F71EF00F0092F6FEF00F0000187
:1000F000010E096F092F7AEF00F000000000FF0EDB
:100100000F01486FFF0E496FC26AC16AD26AD16A95
:10011000256B01011F91F2BE1F8165EF01F0DFA188
:10012000A0EF00F00E01550EA76EAA0EA76EBF81BC
:1001300001011FB19EEF00F0F29E1200F28E12003C
:100140001F91F2BE1F810E01F29E550EA76EAA0EE0
:10015000A76EBF9112000101DC6FDC51D8B4120010
:10016000010EDC5DD8A4BCEF00F00001230E096F86
:10017000092FB8EF00F01200DC0700011F0E096F15
:10018000092FC0EF00F00101DC51DD6FDE6BD1EF14
:1001900000F00001270E096F092FCCEF00F00101DC
:1001A000DE2BDE51DD5DD8A4C9EF00F012000101A5
:1001B000202B202DDEEF00F0F7EF00F000011D51A5
:1001C000EA6E1C51E96E06081C6FE9062651EF6EB7
:1001D000E9062751EF6EE9062851EF6EE90629512D
:1001E000EF6EE9062A51EF6EE9062B51EF6E000122
:1001F0000951266F0A51276F2651286F2751296F01
:100200002A6B2B6B12EF01F00001FF0E096F0E0E2F
:100210000A6F0A2F09EF01F0092F07EF01F02A2BCF
:10022000D8B42B2B2A51285D096F2B51295D091158
:10023000D8A404EF01F00101202F20EF01F01200FB
:1002400000011D51EA6E1C51E96EEF502B6FE92A37
:10025000EF502A6FE92AEF50296FE92AEF50286FF3
:10026000E92AEF50276FE92AEF50266FE9281C6F23
:100270001200D651D86FD751D96FDA6BDB6B58EFBC
:1002800001F00001720E096F9F0E0A6FDB0E0B6FFB
:100290000B2F48EF01F00A2F46EF01F0092F44EF32
:1002A00001F00000000000000101DA2BD8B4DB2BC4
:1002B000DA51D85D0001096F0101DB51D95D000100
:1002C0000911D8A441EF01F012001F933CEF03F095
:1002D0000D0E0001096F0101D3510001176F0101DB
:1002E000D4510001186F0101D5515EEC00F00A0EE7
:1002F0000001096F0101D3510001176F0101D451B1
:100300000001186F0101D5515EEF00F0C951CE6FA9
:10031000CA51CF6FCE51D16FCF51D26FD06BB0EFEA
:1003200001F00101CB51D025F66E000E006ECC51CC
:100330000020F76ECD510020F86EF89C0900F550B2
:100340000001096F0101C6510001176F0101C7517A
:100350000001186F0101C8515EEC00F00101D02BC3
:10036000D051D15D0001096F0101D2510001091185
:10037000D8A491EF01F01200BE6F1FA3DEEF01F0D1
:10038000300E0001096F0101BB510001176F01011F
:10039000BC510001186F0101BD515EEC00F0780EF8
:1003A0000001096F0101BB510001176F0101BC5130
:1003B0000001186F0101BD515EEC00F00101BE3972
:1003C0000F0BBF6F0F0EBF150001096FF00E01017B
:1003D000C015000109110101C06F0F0EC015C16FDA
:1003E000300EC125C36F390EC35DD8B4FDEF01F0E7
:1003F000D8A0FDEF01F0070EC327C351BF6FBF5157
:100400000001096F0101BB510001176F0101BC51CF
:100410000001186F0101BD515EEC00F00F0E0101EB
:10042000BE150001096FF00E0101C0150001091190
:100430000101C06F0F0EC015C46F300EC425C56F0B
:10044000390EC55DD8B42AEF02F0D8A02AEF02F029
:10045000070EC527C551BF6FBF510001096F0101CC
:10046000BB510001176F0101BC510001186F010160
:10047000BD515EEF00F0D89000012C372D372E379C
:100480002F37D8902C350101B76F00012D350101B0
:10049000B86F00012E350101B96F00012F35010140
:1004A000BA6FD890B737B837B937BA37B7510001F4
:1004B0002C270101B85100012D230101B951000180
:1004C0002E230101BA5100012F231200010E000159
:1004D0002C6F2D6B2E6B2F6B0101AF6BB06B00017E
:1004E0002F510101AE5DD8A488EF02F000012E511A
:1004F0000101AD5DD8A488EF02F000012D5101018A
:10050000AC5DD8A488EF02F000012C510101AB5D75
:10051000B291D8A4D8B0B281000EB05DD8A493EF48
:1005200002F00A0EAF5DB293D8B499EF02F0D8A0F2
:10053000B283B285B2B1B2A3B295B2A5A8EF02F070
:100540003BEC02F00101AF2BD8B4B02B6FEF02F0FF
:10055000AF51B011D8A4B0EF02F0010EAF6FB06B85
:10056000AF07AF29D8B4B007010E00012C6F2D6B77
:100570002E6B2F6B0101AF51B36FB051B46FB56BE0
:10058000B66BC9EF02F03BEC02F00101B52BD8B419
:10059000B62BB551B35D0001096F0101B651B45DD1
:1005A00000010911D8A4C3EF02F0300E0101B16FB0
:1005B000AE5100012F5DD8A4F0EF02F00101AD5162
:1005C00000012E5DD8A4F0EF02F00101AC51000152
:1005D0002D5DD8A4F0EF02F00101AB5100012C5DBC
:1005E000D8B4F6EF02F0D8B00FEF03F0D8800101D5
:1005F000AB5100012C550101AB6FAC5100012D55E1
:100600000101AC6FAD5100012E550101AD6FAE512E
:1006100000012F550101AE6FB12BD8EF02F001019F
:10062000B1510001096F0101A8510001176F0101CB
:10063000A9510001186F0101AA515EEC00F00101FF
:10064000AF51B011D8A4B0EF02F01200A251A46FC4
:10065000A351A56FA66BA76B9F51A86FA051A96F5F
:10066000A151AA6FA451AB6FA551AC6FA651AD6F4C
:10067000A751AE6F66EF02F01F95A8EF04F01FA51B
:1006800052EF03F00001096B01019A510001176F4D
:1006900001019B510001186F01019C515EEC00F0BB
:1006A00001011F950A0E0001315DD8B470EF03F00F
:1006B000D8B070EF03F0300E312501019D6F9D51D0
:1006C0000001096F01019A510001176F01019B514F
:1006D0000001186F01019C515EEC00F086EF03F001
:1006E000410E312501019D6FF60E9D259E6F9E5195
:1006F0000001096F01019A510001176F01019B511F
:100700000001186F01019C515EEC00F0300E0001F9
:10071000306F1200986F98510001316F010199A15B
:10072000A9EF03F095519A6F96519B6F97519C6F6B
:100730003FEC03F02E0E0001096F010195510001FD
:10074000176F010196510001186F010197515EEF7B
:1007500000F000013151D8A4BCEF03F03051096F13
:10076000010195510001176F010196510001186FA9
:10077000010197515EEF00F0010195519A6F96517A
:100780009B6F97519C6F3FEF03F0916F200E00011C
:10079000306F050E0101915DD8B4D2EF03F0D8A0FF
:1007A000FEEF03F0100E00010D6F270E0E6F01011A
:1007B0008F510001096F0101905100010A6F39EC5E
:1007C00000F000010F510101936F00010B51010175
:1007D0008F6F00010C510101906F040E925D949394
:1007E000D8B494838C51956F8D51966F8E51976FBD
:1007F000999194B3998193518AEC03F0040E01010D
:10080000915DD8B407EF04F0D8A033EF04F0E80E00
:1008100000010D6F030E0E6F01018F510001096F72
:100820000101905100010A6F39EC00F000010F51F5
:100830000101936F00010B5101018F6F00010C51F9
:100840000101906F030E925D9497D8B494878C51F8
:10085000956F8D51966F8E51976F999194B799813D
:1008600093518AEC03F0030E0101915DD8B43CEF83
:1008700004F0D8A067EF04F0640E00010D6F0E6B5A
:1008800001018F510001096F0101905100010A6FB0
:1008900039EC00F000010F510101936F00010B5181
:1008A00001018F6F00010C510101906F020E925DEA
:1008B000949BD8B4948B8C51956F8D51966F8E51BB
:1008C000976F999194BB998193518AEC03F0020E32
:1008D0000101915DD8B470EF04F0D8A09BEF04F053
:1008E0000A0E00010D6F0E6B01018F510001096F9F
:1008F0000101905100010A6F39EC00F000010F5125
:100900000101936F00010B5101018F6F00010C5128
:100910000101906F010E925D949FD8B4948F8C5119
:10092000956F8D51966F8E51976F999194BF998164
:1009300093518AEC03F001018F510001316F0101E5
:100940008C519A6F8D519B6F8E519C6F3FEF03F0CE
:1009500094948B84010ED66FD76B39EC01F08B9495
:10096000010E0101D66FD76B39EC01F00101DF9167
:100970008FEC00F0E00E0E01E1150109E16F0101BD
:10098000DF818FEC00F0F9EF04F07E86AD84E10E9C
:10099000B06E040E7F6E1200AD6AAC6AC5EC04F056
:1009A0009D9A9D98948E948CAD8AAC8EAC881200E2
:1009B0008B6F9EA8D9EF04F08B51AE6E12008A6F38
:1009C0008A51D8EF04F09EAAEBEF04F0AF50886F85
:1009D0009E9AEEEF04F08991F4EF04F0ACA2F3EFED
:1009E00004F0AC98AC88898189A1E3EF04F08851C8
:1009F0001200CCEC04F00001ED6B97EF07F03E0C19
:100A0000826F836B8251D8A411EF05F00001B051C1
:100A10000101846F856B866B876B8451836FC4EF94
:100A200005F0010E825DD8A424EF05F00001AF515E
:100A30000101846F0001B0510101856F866B876BE6
:100A40008451836FC4EF05F0020E825DD8A43AEFA3
:100A500005F00001AE510101846F0001AF510101A9
:100A6000856F0001B0510101866F876B8451836FE0
:100A7000C4EF05F0030E825DD8A445EF05F0000138
:100A8000AD510101836FC4EF05F0040E825DD8A45F
:100A900055EF05F00001B4510101846F856B866B41
:100AA000876B8451836FC4EF05F0050E825DD8A477
:100AB00068EF05F00001B3510101846F0001B451EA
:100AC0000101856F866B876B8451836FC4EF05F0DE
:100AD000060E825DD8A47EEF05F00001B25101013F
:100AE000846F0001B3510101856F0001B451010110
:100AF000866F876B8451836FC4EF05F0070E825DAC
:100B0000D8A489EF05F00001B1510101836FC4EF52
:100B100005F0080E825DD8A497EF05F00001B651EC
:100B20000101846F856B8451836FC4EF05F0090E5A
:100B3000825DD8A4A2EF05F00001B5510101836FD9
:100B4000C4EF05F00A0E825DD8A4ADEF05F00001F8
:100B5000B7510101836FC4EF05F00B0E825DD8A47D
:100B6000B8EF05F00001B8510101836FC4EF05F043
:100B7000F40E8225846F0E0E8425856F00EEADF095
:100B80008551E926EF50836F8351120001017E6F7A
:100B90007E0E7E5D8093D8B480837D0E7E5D8095D1
:100BA000D8B48085809780A380B58087110E7E5D44
:100BB0008099D8B48089809B80A780B9808B130EE0
:100BC0007E5D809DD8B4808D809F80AB80BD808FFE
:100BD000818180B180AF819181A1F9EF05F07D0E17
:100BE000DFEC04F0200E01017E197F6F7F51DFEFF3
:100BF00004F07E51DFEF04F0010180917E0EC6EC1F
:100C000005F03E0E0101786F020E7825766F776B46
:100C10007751796F020E7825766F76517A6F8081E1
:100C20007951C6EC05F0010180817A51C6EC05F0DE
:100C3000010180810001B951C6EC05F001018081FC
:100C40000001BA51C6EC05F001017B6B0001B951FE
:100C500001017B270001BA5101017B2778517D6F8B
:100C60007C6B45EF06F07C5100EC05F00101766FDE
:100C700080817651C6EC05F001017C5100EC05F055
:100C80000101766F76517B277C2B7C517D5DD8A44A
:100C900033EF06F0D880FF0E7B5780817B51C6EC86
:100CA00005F00001ED6B1200AA91AB6BA86BAC6B69
:100CB000120054EC06F00001366BA66BA76BA96B13
:100CC0000101746B020E7425756F00EE36F07551DC
:100CD000E926EF6A742B6E0E745DD8A462EF06F0FD
:100CE00012000001326B339159EF06F00101706B75
:100CF0007051716F0001A7510101726F715172251E
:100D0000736F735112000B0E0001AC2501016D6F62
:100D1000020E6D256E6F00EE36F06E51E926EF5033
:100D20006F6F0001AC2B01016F51120000010951DE
:100D3000246F0E0EED25256F00EEADF02551E9264E
:100D40002451EF6EED2B12000001AB5101016A81BD
:100D5000D8B46A916A830001AAB1B4EF06F0010128
:100D60006AB1B4EF06F06A9301016AB371EC06F060
:100D700001016C85E3EC04F00101666F0001325162
:100D800001016A85D8B46A957E0E665D6A97D8B40B
:100D90006A876A896AB56AA76A996AA9D4EF06F070
:100DA000030E0001AB6F12000001325101016A8B8A
:100DB000D8B46A9B7D0E665D6A9DD8B46A8D6A8FD1
:100DC0006ABB6AAD6A9F6AAFEAEF06F00001338141
:100DD00001016C956CA5B8EF06F0000133A1FAEFA4
:100DE00006F03391010166ABF9EF06F0669BFAEF6E
:100DF00006F0668B030E0001325DD8B403EF07F0F6
:100E0000D8A007EF07F001016651000134273251E5
:100E1000D8A415EF07F07E0E0101665DD8A4B8EFE7
:100E200006F00001322BB8EF06F0010E325DD8A4B7
:100E300021EF07F0010166510001A66F322BB8EFD8
:100E400006F0020E325DD8A42DEF07F001016651C5
:100E50000001A76F322BB8EF06F0030E325DD8A465
:100E600039EF07F0010166510001366F322BB8EF00
:100E700006F06E0E325DD8B444EF07F0D8A044EF10
:100E800007F0020EAB6F120076EC06F00101676FFF
:100E9000030E6725686F000132510101685DD8A417
:100EA0006BEF07F0000134510101696FFF0E695DBE
:100EB000D8A462EF07F066510001A86FAA81AB6B5E
:100EC00065EF07F0010E0001AB6FFC0E3225A96F34
:100ED000326B346B1200FC0E000132250101676F8A
:100EE000020E6725686F00EE36F06851E9266651FC
:100EF000EF6E0001322BB8EF06F0900E0001365D68
:100F0000D8B487EF07F0A4EC06F07DEF07F01200ED
:100F1000FCEC05F0A4EC06F00001AB51D8A488EF7E
:100F200007F01200326B3391346B356B120092EC88
:100F300007F00001EE6BA20EEF6F130EF06FF16B76
:100F4000090EF26F110EF36F300EF46F400EF56F55
:100F5000FE0EF66FFF0EF76FEE51AD6FEF51AE6FF5
:100F6000F051AF6FF151B06FF251B16FF351B26FF9
:100F7000F451B36FF551B46FF651B56FF751B66FC9
:100F8000100EB96F010EBA6FB76BB86BF86BF96BD7
:100F9000FA6BFB6B0101006B016B026B036B046B63
:100FA000CFEF08F001015A6B5B6B5C6B070E5D6F56
:100FB0005C6B01EE00F05C51E926EF6A5C2B050EDC
:100FC0005C5DD8A4D9EF07F05C6B92968996120EFF
:100FD0000001096F0A6BD7EC00F08986040EABECB8
:100FE00000F0928680B606EF08F001015A2BD8B4C3
:100FF0005B2BE80E5A5D0001096F030E01015B5D7A
:1010000000010911D8A4F2EF07F0020C01015A6B9C
:101010005B6B80A61DEF08F001015A2BD8B45B2B47
:10102000E80E5A5D0001096F030E01015B5D0001CE
:101030000911D8A409EF08F0020C0101646B5A6B86
:101040005B6B80B635EF08F001015A2BD8B45B2BEF
:10105000E80E5A5D0001096F030E01015B5D00019E
:101060000911D8A421EF08F0020C040EABEC00F03B
:1010700080A65DEF08F001015D51006E010E5E6F0C
:10108000005046EF08F0D8905E370006D8A443EF32
:1010900008F001EE00F05C51E926EF500001096F05
:1010A00001015E51000109110A6F01EE00F001011A
:1010B0005C51E92600010A51EF6E01015D51D8A48F
:1010C00067EF08F0070E5D6F5C2B68EF08F05D07B7
:1010D0005A6B5B6B80A67EEF08F001015A2BD8B4E7
:1010E0005B2BE80E5A5D0001096F030E01015B5D89
:1010F00000010911D8A46AEF08F0020C0101642B69
:10110000280E645DD8A41FEF08F0005101255E6F22
:101110005E5102255F6F5F510325656F0451655D68
:10112000D8B494EF08F0010C00515E6F5F6B5E5114
:10113000616F606B0151626F636B605162250001EA
:10114000FA6F0101615163210001FB6F010102513E
:101150005E6F5F6B5E51616F606B0351626F636BBB
:10116000605162250001F86F0101615163210001A6
:10117000F96F000C556FD8905531576F780E571591
:10118000566FD88055515655576FD8905631586F75
:10119000D890583357515825596F595112000001B2
:1011A000FC6B010EFD6F010EFE6F0101056B066BFE
:1011B000076B010E086F010E096F0A6B0B6B0C6B4E
:1011C0000D6BECEF0AF054A1EDEF08F00F01550E96
:1011D000A76EAA0EA76E3F8B12000F01550EA76EC9
:1011E000AA0EA76E3F9B12000F013FAFFDEF08F064
:1011F0003FA9FDEF08F0F8EF08F03F833F813A5137
:101200000001FC6F0F013F913A510001FE6F0F0189
:101210003B510001FD6F0F013A510101056F0F01B4
:101220003B510001FF6F0F013A510101076F0F01A0
:101230003B510101066F12000F013FBF24EF09F07F
:101240000101539126EF09F0010153810F013FAFD6
:101250002FEF09F03FA92FEF09F02AEF09F0010164
:101260005481E3EC08F00F013F9F3F833F81000171
:10127000FC510F013A6F3F910001FE510F013A6F8F
:101280000001FD510F013B6F010105510F013A6F44
:101290000001FF510F013B6F010107510F013A6F30
:1012A000010106510F013B6F010153B15CEF09F0E1
:1012B0000F013F9F5EEF09F00F013F8F0101549135
:1012C000E3EF08F00F014783479144510101096F93
:1012D0000F0145510101086F0F01445101010B6FCE
:1012E0000F01455101010A6F0F01445101010D6FBA
:1012F0000F01455101010C6F12000F0147BF85EF2F
:1013000009F00101529187EF09F0010152810F01AB
:10131000479F47834791010109510F01446F010124
:1013200008510F01456F01010B510F01446F01017D
:101330000A510F01456F01010D510F01446F010169
:101340000C510F01456F010152B1AAEF09F00F01D5
:10135000479F12000F01478F1200466F4651BAECAB
:1013600008F001014F6F4751BAEC08F00101506FCE
:101370004851BAEC08F00101516F030E505DD8B42A
:10138000CEEF09F0D8B0CEEF09F04F51D8B4CCEF82
:1013900009F04F07CEEF09F0040E4F6FD8904F3190
:1013A000496FD89049334F5149254A6F50054B6FCB
:1013B000660EF66E000EF76E000EF86E4B51F626B6
:1013C000000E006E0050F7220050F8220900F55080
:1013D0000001096F01014A510001092501014C6F0B
:1013E0004C5151254D6F070E00010D6F0E6B010121
:1013F0004D510001096F0A6B39EC00F000010B51EF
:1014000001014E6F4E511200446F0F013FBF0DEFAF
:101410000AF0010145910FEF0AF001014581548165
:10142000E3EC08F00F013F9F010144510F013E6FB3
:10143000010145B120EF0AF00F013F9F22EF0AF0B2
:101440000F013F8F01015491E3EF08F04393F2BE87
:101450004383F29E5481E3EC08F0010143B134EF81
:101460000AF0CD9635EF0AF0CD8643B13CEF0AF095
:101470000F013F9F3EEF0AF00F013F8F0101549192
:10148000E3EC08F0010143B348EF0AF0F29E1200CA
:10149000F28E1200F4EC08F001010551406F065184
:1014A000416F0751426F405112003D6F3D51056F32
:1014B0003E51066F3F51076F1CEF09F0F4EC08F046
:1014C0000001FC5101013A6F0001FD5101013B6F28
:1014D0000001FE5101013C6F3A511200376FF4ECEC
:1014E00008F0010137510001FC6F01013851000182
:1014F000FD6F010139510001FE6F01013851476F45
:101500003951486F3751ADEC09F00001FF6F1CEF06
:1015100009F00101366F090E365DD8B493EF0AF079
:10152000D8B0AAEF0AF00F013FAF9CEF0AF03FA935
:101530009CEF0AF097EF0AF0010136350001096FC0
:1015400009373C0E0917C30E0F0147150001091199
:101550000F01476F12000101356F0F013FAFB6EF6A
:101560000AF03FA9B6EF0AF0B1EF0AF0FF0E010151
:10157000355DD8A4C0EF0AF00F01478DC2EF0AF025
:101580000F01479D010135510F01466F1200326F67
:1015900062EC09F0010132510B6F33510C6F345181
:1015A0000D6F7DEC09F0060E89EC0AF0FF0EABEF33
:1015B0000AF00F013FAFE2EF0AF03FA9E2EF0AF0B5
:1015C000DDEF0AF0010131B1E9EF0AF00F01479FA9
:1015D00012000F01478F1200000E04EC0AF0F08693
:1015E000F090F19AA380F28EF28C0101166B176BCA
:1015F000186B196B1A6B1B6B1F97A8EF0BF012007F
:101600000101306F3051D8A409EF0BF00F01489160
:101610009280010E0101305DD8A412EF0BF00F0192
:1016200048939282020E0101305DD8A41BEF0BF0AB
:101630000F0148959284030E0101305DD8A424EF78
:101640000BF00F0148979286040E0101305DD8A47B
:101650002DEF0BF00F014899928A080E0101305DC1
:10166000D8A436EF0BF00F0149919384090E0101C4
:10167000305DD8A43FEF0BF00F01499393860A0E1B
:101680000101305DD8A448EF0BF00F01499593821A
:101690000B0E0101305DD8A451EF0BF00F014997FB
:1016A00094840C0E0101305DD8A45AEF0BF00F01A9
:1016B0004999938012002C6F2FB162EF0BF0C19EFD
:1016C00063EF0BF0C18E2C350001096F09373C0E1A
:1016D0000917C30EC2140911C26EC28001011D5147
:1016E000ABEC00F0C282C2B273EF0BF0C450010148
:1016F0002E6FC3502D6F810E1C5DD8B483EF0BF09D
:10170000D8A092EF0BF000010B0E096FB40E0A6F18
:101710000A2F88EF0BF0092F86EF0BF00000000076
:1017200098EF0BF000013F0E096F092F95EF0BF0BA
:10173000C29001012D510001096F01012E510001DC
:101740000A6F12000101296F2F8129515BEF0BF005
:10175000216B21310001096F09330931096FC00E76
:1017600009173F0EC2140911C26E080E0101226F43
:10177000236B0D0E226F236BF80EC1140609C16E88
:1017800022511C6FC70EC1160E0E1D6F040E00EC09
:101790000BF0000E00EC0BF0BFEF0CF0F0A0DEEF52
:1017A0000BF08B840101142BD8B4152B0A0E000109
:1017B000096F0A6BD7EC00F08B94F090A4A0E4EFD3
:1017C0000BF001011F87A49000011151096F125104
:1017D0000A6F1A51E96E1B51EA6E110083EC06F094
:1017E0000101256FD00E2525266F2639F00B246FB9
:1017F00083EC06F00101256FD00E2525266F2651BA
:101800002427245112002C0E0101BB6F0D0EBC6F5A
:10181000000EBD6F0E51BCEC01F02D0E0001096FE2
:1018200096EC06F02C0E0101BB6F0D0EBC6F000E86
:10183000BD6F0F51BCEC01F02D0E0001096F96EC4D
:1018400006F02C0E0101BB6F0D0EBC6F000EBD6FBC
:101850001051BCEC01F0200E0001096F96EC06F06F
:101860002C0E0101BB6F0D0EBC6F000EBD6F115130
:10187000BCEC01F03A0E0001096F96EC06F02C0E5C
:101880000101BB6F0D0EBC6F000EBD6F1251BCECA1
:1018900001F03A0E0001096F96EC06F02C0E0101E2
:1018A000BB6F0D0EBC6F000EBD6F1351BCEF01F08E
:1018B0007DEC07F0EEEC0BF001010E6F83EC06F00F
:1018C000EEEC0BF001010F6F83EC06F0EEEC0BF089
:1018D0000101106F83EC06F0EEEC0BF00101116FCB
:1018E00083EC06F0EEEC0BF00101126F83EC06F0D6
:1018F000EEEC0BF00101136F0F51386F1051396F7F
:101900000E516EEC0AF0010112513E6F12513F6F01
:10191000115155EC0AF001011251336F1351346F1C
:101920001151C7EC0AF0030E89EC0AF0FF0EABEC84
:101930000AF001013181D9EC0AF00101438126EC62
:101940000AF02C0E0101C66F0D0EC76F000EC86F96
:10195000030EC96FCA6B620ECB6F000ECC6F000E08
:101960004009CD6F86EC01F02C0E0101D36F0D0EF6
:10197000D46F000ED56F68EC01F088EF07F02C0EE5
:101980000101C66F0D0EC76F000EC86F0C0EC96F38
:10199000CA6B4C0ECB6F000ECC6F000E4009CD6FA2
:1019A00086EC01F02C0E0101D36F0D0ED46F000EEA
:1019B000D56F68EC01F088EC07F02C0E0101C66FC2
:1019C0000D0EC76F000EC86F090EC96FCA6B580E97
:1019D000CB6F000ECC6F000E4009CD6F86EC01F08E
:1019E0002C0E0101D36F0D0ED46F000ED56F68EC75
:1019F00001F088EC07F058EC0CF001011FA730EF64
:101A00000EF01F975EEC0AF001010E6F3B510F6F55
:101A10003C51106F4AEC0AF00101116F4151126FF5
:101A20004251136F2C0EC66F0D0EC76F000EC86F9C
:101A3000070EC96FCA6B1E0ECB6F000ECC6F000E67
:101A40004009CD6F86EC01F003EC0CF07C0E000138
:101A5000096F96EC06F02C0E01019F6F0D0EA06F22
:101A6000000EA16F1451A26F1551A36F26EC03F065
:101A70002C0E0101D36F0D0ED46F000ED56F68ECE4
:101A800001F00101146B156B88EC07F0D2EC07F044
:101A900001011E6F1E51D8A4BFEF0DF02C0EC66FB2
:101AA0000D0EC76F000EC86F0A0EC96FCA6B340ED9
:101AB000CB6F000ECC6F000E4009CD6F86EC01F0AD
:101AC00003EC0CF07C0E0001096F96EC06F02C0E76
:101AD00001018C6F0D0E8D6F000E8E6F0001FA519B
:101AE00001018F6F0001FB510101906F010E926F98
:101AF000030EC5EC03F02C0E0101D36F0D0ED46F55
:101B0000000ED56F68EC01F088EC07F02C0E010197
:101B1000C66F0D0EC76F000EC86F0D0EC96FCA6B72
:101B2000260ECB6F000ECC6F000E4009CD6F86ECF9
:101B300001F003EC0CF07C0E0001096F96EC06F04E
:101B40002C0E01018C6F0D0E8D6F000E8E6F00013B
:101B5000F85101018F6F0001F9510101906F010EE1
:101B6000926F030EC5EC03F02C0E0101D36F0D0E26
:101B7000D46F000ED56F68EC01F088EC07F02C0EE6
:101B80000101C66F0D0EC76F000EC86F070EC96F3B
:101B9000CA6B3E0ECB6F000ECC6F000E4009CD6FAE
:101BA00086EC01F003EC0CF07C0E0001096F96EC62
:101BB00006F02C0E01019F6F0D0EA06F000EA16F9D
:101BC0001851A26F1951A36F26EC03F02C0E0101DE
:101BD000D36F0D0ED46F000ED56F68EC01F00101CC
:101BE000186B196B88EC07F0000EA2EC0BF00001EB
:101BF000095101011A6F00010A5101011B6F2C0EDE
:101C0000C66F0D0EC76F000EC86F060EC96FCA6B88
:101C1000460ECB6F000ECC6F000E4009CD6F86ECE8
:101C200001F003EC0CF07C0E0001096F96EC06F05D
:101C30002C0E01019F6F0D0EA06F000EA16F1A51A7
:101C4000A26F1B51A36F26EC03F02C0E0101D36F82
:101C50000D0ED46F000ED56F68EC01F088EC07F024
:101C6000040EA2EC0BF0000109510101166F0001F6
:101C70000A510101176F1751195DD8A442EF0EF0F8
:101C80001651185DD8B448EF0EF0D8B04CEF0EF0F6
:101C90001651186F1751196F010ED66FD76B39ECAB
:081CA00001F00400FDEF0CF05F
:020000040001F9
:08FFF800F9F7FDFBFFFAFFFB26
:00000001FF
