:020000040000FA
:0400000022EF00F0FB
:080008000001ADEF03F012014D
:10001000000200000008D8040B00010000000001ED
:1000200009022000010100806409040000020000B0
:1000300000000705810240000007050102400000A2
:1000400004030904B0EF03F0836F7D51E16E7E512C
:10005000E26E846B42EF00F080518425606F000EE9
:100060005E6E81515E20616F82515E20626F6051D1
:10007000F66E6151F76E6251F86EF89C0900F5500A
:10008000E66E842B8451835DD8A42CEF00F012001F
:10009000040104BF120000016C516A5DD8B456EF30
:1000A00000F0D8B056EF00F06A516C6FD8806C51F8
:1000B0006B557F6F080E7F5DD8B464EF00F0D8A059
:1000C00064EF00F0080E7F6F780E6B25606F000EF6
:1000D0005E6E040E5E20616F60510401066F0001C8
:1000E00061510401076F00017F510401056F04ADE8
:1000F0007EEF00F0880E046F80EF00F0C80E046FF2
:1001000000017F516B2712006B6B6C6B6A6B0401F3
:10011000049D48EF00F07D6F7D510401786F000170
:100120006B6B010E6C6F010E6A6F0401049D48EF4A
:1001300000F0840E040100131200080E0401016F88
:10014000100E026F040E036F030E00016E5DD8A443
:10015000B0EF00F08C0E7A6F0401046BB2EF00F088
:10016000C80E7A6F00017A510401006F12007A6F95
:10017000D8907A357D6FD8907D37D8907D377D299E
:100180007C6F04EE00F07C51E926400EEF6E04EE29
:1001900000F07D51E926800EEF6E12000CADD4EF19
:1001A00000F0880E0C6F1200C80E0C6F1200550E76
:1001B000A76EAA0EA76EA68212002451F86E2351D4
:1001C000F76E2251F66E1200FF0E00017A6F7B6F00
:1001D000CD6A6D6A7A517B11D8B4F5EF00F07A07D9
:1001E0007A29D8B47B07EAEF00F012000401F95134
:1001F0000001696F060E695DD8A46AEF01F0040181
:10020000FB5100017A6F0401FA5100017C6F6C6BA5
:10021000010E7A5DD8A41FEF01F0120E6C6F780EFC
:100220007D6F040E7E6F0E0E806F000E816F000ECC
:100230004009826F6C5124EC00F04FEF01F0020E88
:100240007A5DD8A436EF01F0200E6C6F780E7D6FCA
:10025000040E7E6F200E806F000E816F000E40092D
:10026000826F6C5124EC00F04FEF01F0030E7A5DC9
:10027000D8A44FEF01F07C51D8A44FEF01F0040E49
:100280006C6F780E7D6F040E7E6F400E806F000ED7
:10029000816F000E4009826F6C5124EC00F0000168
:1002A0006C51D8B468EF01F00401FF51D8A45EEF9F
:1002B00001F0FE5100016A6F61EF01F0FF0E0001D5
:1002C0006A6F030E6E6F6B6B0401049D48EF00F0C4
:1002D00099EF00F0050E695DD8A47BEF01F00401F1
:1002E000FA5100016F6F010E6D6F84EC00F0060E85
:1002F00000016E6F1200090E695DD8A494EF01F041
:10030000060E6E6F84EC00F07188718471827186C4
:10031000400E04010C6F400E096F200E0A6F040E90
:100320000B6F800E086F12000A0E695DD8A49EEF55
:1003300001F0030E6E6F010E8BEF00F06951D8A42F
:10034000A5EF01F0000E8BEF00F01200D8906C309A
:10035000726FD8907233D89072336CA4BCEF01F0F6
:10036000D890040104310001746FD89074330F0EDB
:100370007415736FC6EF01F0D890040100310001CD
:10038000746FD89074330F0E7415736F7251D8A4B4
:100390003EEF02F00D0E735DD8A4EFEF01F0756B28
:1003A00004EE10F07551E926EF50606F04EEF8F09E
:1003B0007551E9266051EF6E752B080E755DD8A456
:1003C000D0EF01F06D989DEC00F0300E0401F815AF
:1003D0000001746F7451D8B4F6EF00F01200090EEA
:1003E000735DD8A40DEF02F0030E6E5DD8B448EF34
:1003F00000F0060E6E5DD8A408EF02F06E6B010EE1
:100400006D5DD8A40CEF02F06F516E6E6D6B120033
:10041000050E6E5DD8B412001200020E735DD8A4F2
:1004200020EF02F0030E6E5DD8B448EF00F0040E2A
:100430006E5DD8B41200060E6E5DD8B46E6B1200FD
:10044000010E735DD8A45CEF03F0050E6E5DD8A4B9
:100450002DEF02F06E6B9DEF00F0020E6E5DD8B4D2
:100460009DEF00F0030E6E5DD8A43CEF02F09DEC12
:1004700000F000016E6B12009DEF00F06CB41200F2
:10048000D8907235756FD8907537D8907537020E41
:100490007525746F04EE00F07451E926EF50766F05
:1004A000030E7525746F04EE00F07451E926EF50C9
:1004B000776F7529746F04010D6B2051D8A46AEF12
:1004C00002F0140E226F010E236F040E0D6FCD6A21
:1004D00054EF03F0040E205DD8A48CEF02F0A69E2A
:1004E000A69C0001796B81EF02F022510001792571
:1004F000A96EA68004EE25F07951E926A850EF6E8A
:10050000792B79510401215DD8A475EF02F0050E15
:1005100021250D6F54EF03F0010E205DD8B496EF46
:1005200002F0060E205DD8A4B0EF02F0DDEC00F082
:100530000001796BA5EF02F0090004EE25F000013F
:100540007951E926F550EF6E792B79510401215D3F
:10055000D8A49CEF02F0050E21250D6F54EF03F097
:10056000020E205DD8A4DEEF02F0840EA66EDDEC54
:1005700000F0F00EF6160001686BD4EF02F004EE06
:1005800025F000016851E926EF50F56E0D000F0EC1
:100590006815786F0F0E785DD8A4D2EF02F00A00CC
:1005A000D7EC00F00001682B68510401215DD8A44C
:1005B000BFEF02F0010E0D6F54EF03F0030E205D4C
:1005C000D8A4FEEF02F0940EA66EDDEC00F0000160
:1005D000796BF4EF02F0D7EC00F0200EF626F6501F
:1005E000D8B4F72A0001792B79510401215DD8A4F0
:1005F000EBEF02F0010E0D6F54EF03F0050E205DDE
:10060000D8A422EF03F00001796B18EF03F0225118
:1006100000017925A96E04EE25F07951E926EF5005
:10062000A86ED7EC00F0A6B213EF03F00001792B0F
:1006300079510401215DD8A407EF03F0010E0D6F7D
:1006400054EF03F0070E205DD8A446EF03F0840EAC
:10065000A66EDDEC00F00001796B3CEF03F004EED8
:1006600025F000017951E926EF50F56E0C00D7EC2A
:1006700000F00D000001792B79510401215DD8A40F
:100680002FEF03F0010E0D6F54EF03F0320E205DDB
:10069000D8B454EF03F0FF0E205DD8A454EF03F05C
:1006A000E4EC00F000EF04F00D51D8A4CEEC00F023
:1006B00000017251B7EF00F01200A1AAACEF03F0F5
:1006C000A19A0001716B68A669EF03F0A6EC01F036
:1006D00068960001712B040E715DD8A463EF03F0DE
:1006E00068A0A2EF03F06A6A686A6F6B716A726A47
:1006F000736A746A756A766A776A786A796A100EBC
:100700007A6E7B6A7C6A7D6A7E6A7F6A160E706E7C
:1007100068A68EEF03F0689688EF03F06E6B6D6B42
:100720006D98080E0401056F180E066F040E076F12
:10073000046B080E016F100E026F040E036F8C0E17
:10074000006F689068BA689A68B8689868BC689CD6
:1007500068A2ACEF03F06892120004EF04F01100FD
:100760006D6A140E6F6E6B0E696EA09A686A6D6A80
:100770006D86200E04010E6F040E0F6F310ECD6ECC
:10078000F86A080EF76E030EF66E0900FF0EF55CB0
:10079000D8B4CD6A0001706B5DEC03F09EA0CCEF85
:1007A00003F00001702B9E90DC0E705DD8B4CCEF8E
:1007B00003F0D8A0CCEF03F0E4EC00F000EF04F07D
:020000040030CA
:0E000000240E391E0085E0000FC00FE00F40F7
:00000001FF
