:020000040000FA
:0400000022EF00F0FB
:0800080000015AEF03F01201A0
:10001000000200000008D8040B00010000000001ED
:1000200009022000010100806409040000020000B0
:1000300000000705810240000007050102400000A2
:1000400004030904C26A0F0EC16EC06A070EB46EC3
:1000500094945DEF03F0866F8051E16E8151E26E02
:10006000876B49EF00F083518725606F000E5E6E4D
:1000700084515E20616F85515E20626F6051F66E23
:100080006151F76E6251F86EF89C0900F550E66E0A
:10009000872B8751865DD8A433EF00F0120004014E
:1000A00004BF120000016C516A5DD8B45DEF00F02E
:1000B000D8B05DEF00F06A516C6FD8806C516B5511
:1000C000826F080E825DD8B46BEF00F0D8A06BEFA2
:1000D00000F0080E826F780E6B25606F000E5E6E6A
:1000E000040E5E20616F60510401066F00016151D2
:1000F0000401076F000182510401056F04AD85EF13
:1001000000F0880E046F87EF00F0C80E046F000146
:1001100082516B276B516C5D12006B6B6C6B6A6B61
:100120000401049D4FEF00F0806F80510401786F4F
:1001300000016B6B010E6C6F010E6A6F0401049D70
:100140004FEF00F0840E040100131200080E0401AA
:10015000016F100E026F040E036F030E00016E5D3F
:10016000D8A4B9EF00F08C0E7D6F0401046BBBEFD7
:1001700000F0C80E7D6F00017D510401006F120078
:100180007D6FD8907D35806FD8908037D89080373C
:1001900080297F6F04EE00F07F51E926400EEF6E5C
:1001A00004EE00F08051E926800EEF6E12000CADD7
:1001B000DDEF00F0880E0C6F1200C80E0C6F1200FD
:1001C000550EA76EAA0EA76EA68212002451F86ED5
:1001D0002351F76E2251F66E1200FF0E00017D6F63
:1001E0007E6FCD6A6D6A8B9494847D517E11D8B4F4
:1001F00000EF01F07D077D29D8B47E07F5EF00F010
:1002000012000401F9510001696F060E695DD8A45E
:1002100079EF01F00401FB5100017D6F0401FA51F7
:1002200000017F6F6C6B010E7D5DD8A42AEF01F099
:10023000120E6C6F780E806F040E816F0E0E836F3E
:10024000000E846F000E4009856F6C512BEC00F09E
:100250005EEF01F0020E7D5DD8A441EF01F0200EAB
:100260006C6F780E806F040E816F200E836F000E0E
:10027000846F000E4009856F6C512BEC00F05EEF2F
:1002800001F0030E7D5DD8A45CEF01F07F51D8A48E
:100290005EEF01F0040E6C6F780E806F040E816FBC
:1002A000400E836F000E846F000E4009856F6C5105
:1002B0002BEC00F05EEF01F0220E7D5D00016C5131
:1002C000D8B477EF01F00401FF51D8A46DEF01F02D
:1002D000FE5100016A6F70EF01F0FF0E00016A6FBE
:1002E000030E6E6F6B6B0401049D4FEF00F0A2EFE5
:1002F00000F0050E695DD8A48AEF01F00401FA51FF
:1003000000016F6F010E6D6F8DEC00F0060E0001A5
:100310006E6F1200090E695DD8A4A3EF01F0060EFE
:100320006E6F8DEC00F07188718471827186400E61
:1003300004010C6F400E096F200E0A6F040E0B6F44
:10034000800E086F12000A0E695DD8A4ADEF01F0AF
:10035000030E6E6F010E94EF00F06951D8A4B4EF54
:1003600001F0000E94EF00F01200D8906C30756F21
:10037000D8907533D89075336CA4CBEF01F0D8903A
:10038000040104310001776FD89077330F0E771591
:10039000766FD5EF01F0D890040100310001776F3E
:1003A000D89077330F0E7715766F7551D8A45FEF1D
:1003B00002F00D0E765DD8A406EF02F0786B04EE25
:1003C00010F07851E926EF50606F04EEF8F07851A4
:1003D000E9266051EF6E782B080E785DD8A4DFEF28
:1003E00001F06D98A6EC00F0300E0401F815000144
:1003F000776F7751D8A4FFEF01F001EF01F0200EE5
:10040000775DD8B41200400E775D1200090E765D5C
:10041000D8A428EF02F0030E6E5DD8A412EF02F00C
:100420004FEF00F0060E6E5DD8A421EF02F06E6B68
:10043000010E6D5DD8A427EF02F06F516E6E6D6BEB
:100440001200050E6E5DD8B41200040E6E5D12002F
:10045000020E765DD8A43FEF02F0030E6E5DD8A4C5
:1004600034EF02F04FEF00F0040E6E5DD8B41200CE
:10047000060E6E5DD8A43EEF02F06E6B1200010E08
:10048000765DD8A40AEF03F0050E6E5DD8A44CEF9C
:1004900002F06E6BA6EF00F0020E6E5DD8A453EF73
:1004A00002F0A6EF00F0030E6E5DD8A45DEF02F03F
:1004B000A6EC00F000016E6B1200A6EF00F06CB429
:1004C0001200D8907535786FD8907837D8907837F3
:1004D000020E7825776F04EE00F07751E926EF5091
:1004E000796F030E7825776F04EE00F07751E926D7
:1004F000EF507A6F7829776F04010D6B8B84205150
:10050000D8A48CEF02F0140E226F010E236F040E9C
:100510000D6FCD6A02EF03F0010E205DD8A4ABEFA2
:1005200002F0E6EC00F000017C6BA0EF02F00900A5
:1005300004EE25F000017C51E926F550EF6E7C2B8E
:100540007C510401215DD8A497EF02F0050E21250E
:100550000D6F02EF03F0020E205DD8A4D9EF02F078
:10056000840EA66EE6EC00F0F00EF6160001686B45
:10057000CFEF02F004EE25F000016851E926EF50BC
:10058000F56E0D000F0E68157B6F0F0E7B5DD8A406
:10059000CDEF02F00A00E0EC00F00001682B68519A
:1005A0000401215DD8A4BAEF02F0010E0D6F02EF35
:1005B00003F0030E205DD8A4F9EF02F0940EA66EAE
:1005C000E6EC00F000017C6BEFEF02F0E0EC00F0F5
:1005D000200EF626F650D8B4F72A00017C2B7C5169
:1005E0000401215DD8A4E6EF02F0010E0D6F02EFC9
:1005F00003F0FF0E205DD8A402EF03F0EDEC00F055
:1006000000EF04F00D51D8A4D7EC00F000017551B3
:10061000C0EF00F01200A1AA59EF03F0A19A746B89
:1006200068A616EF03F0B5EC01F068960001742B94
:10063000040E745DD8A410EF03F068A04FEF03F030
:100640006A6A686A6F6B716A726A736A746A756AD9
:10065000766A776A786A796A100E7A6E7B6A7C6A43
:100660007D6A7E6A7F6A160E706E68A63BEF03F0A5
:10067000689635EF03F06E6B6D6B6D98080E040194
:10068000056F180E066F040E076F046B080E016FDE
:10069000100E026F040E036F8C0E006F689068BA24
:1006A000689A68B8689868BC689C68A259EF03F0BB
:1006B0006892120004EF04F011006D6A140E6F6E60
:1006C0006B0E696EA09A686A6D6A6D86200E0401D1
:1006D0000E6F040E0F6F310ECD6EF86A080EF76EB6
:1006E000030EF66E0900FF0EF55CD8B4CD6A00016A
:1006F000706B716B726B0BEC03F000017151721136
:10070000D8A491EF03F082A489EF03F073958AEFE8
:1007100003F0738573B590EF03F08B9491EF03F0C2
:100720008B84712BD8B4722B9EA07BEF03F0702BBF
:100730009E90DC0E705DD8B47BEF03F0D8A07BEF09
:0A07400003F0EDEC00F000EF04F010
:020000040030CA
:0E0000002CCE3F1E0087E1000FC00FE00F4026
:00000001FF
