:020000040000FA
:0400000022EF00F0FB
:0800080000015BEF03F012019F
:10001000000200000008D8040B00010000000001ED
:1000200009022000010100806409040000020000B0
:1000300000000705810240000007050102400000A2
:1000400004030904C26A0F0EC16EC06A070EB46EC3
:1000500096945EEF03F0846F7E51E16E7F51E26E05
:10006000856B49EF00F081518525606F000E5E6E53
:1000700082515E20616F83515E20626F6051F66E27
:100080006151F76E6251F86EF89C0900F550E66E0A
:10009000852B8551845DD8A433EF00F01200040154
:1000A00004BF120000016C516A5DD8B45DEF00F02E
:1000B000D8B05DEF00F06A516C6FD8806C516B5511
:1000C000806F080E805DD8B46BEF00F0D8A06BEFA6
:1000D00000F0080E806F780E6B25606F000E5E6E6C
:1000E000040E5E20616F60510401066F00016151D2
:1000F0000401076F000180510401056F04AD85EF15
:1001000000F0880E046F87EF00F0C80E046F000146
:1001100080516B276B516C5D12006B6B6C6B6A6B63
:100120000401049D4FEF00F07E6F7E510401786F53
:1001300000016B6B010E6C6F010E6A6F0401049D70
:100140004FEF00F0840E040100131200080E0401AA
:10015000016F100E026F040E036F030E00016E5D3F
:10016000D8A4B9EF00F08C0E7B6F0401046BBBEFD9
:1001700000F0C80E7B6F00017B510401006F12007C
:100180007B6FD8907B357E6FD8907E37D8907E3746
:100190007E297D6F04EE00F07D51E926400EEF6E62
:1001A00004EE00F07E51E926800EEF6E12000CADD9
:1001B000DDEF00F0880E0C6F1200C80E0C6F1200FD
:1001C000550EA76EAA0EA76EA68212002451F86ED5
:1001D0002351F76E2251F66E1200FF0E00017B6F65
:1001E0007C6FCD6A6D6A8D9496847B517C11D8B4F6
:1001F00000EF01F07B077B29D8B47C07F5EF00F016
:1002000012000401F9510001696F060E695DD8A45E
:1002100079EF01F00401FB5100017B6F0401FA51F9
:1002200000017D6F6C6B010E7B5DD8A42AEF01F09D
:10023000120E6C6F780E7E6F040E7F6F0E0E816F44
:10024000000E826F000E4009836F6C512BEC00F0A2
:100250005EEF01F0020E7B5DD8A441EF01F0200EAD
:100260006C6F780E7E6F040E7F6F200E816F000E14
:10027000826F000E4009836F6C512BEC00F05EEF33
:1002800001F0030E7B5DD8A45CEF01F07D51D8A492
:100290005EEF01F0040E6C6F780E7E6F040E7F6FC0
:1002A000400E816F000E826F000E4009836F6C510B
:1002B0002BEC00F05EEF01F0220E7B5D00016C5133
:1002C000D8B477EF01F00401FF51D8A46DEF01F02D
:1002D000FE5100016A6F70EF01F0FF0E00016A6FBE
:1002E000030E6E6F6B6B0401049D4FEF00F0A2EFE5
:1002F00000F0050E695DD8A48AEF01F00401FA51FF
:1003000000016F6F010E6D6F8DEC00F0060E0001A5
:100310006E6F1200090E695DD8A4A3EF01F0060EFE
:100320006E6F8DEC00F07188718471827186400E61
:1003300004010C6F400E096F200E0A6F040E0B6F44
:10034000800E086F12000A0E695DD8A4ADEF01F0AF
:10035000030E6E6F010E94EF00F06951D8A4B4EF54
:1003600001F0000E94EF00F01200D8906C30736F23
:10037000D8907333D89073336CA4CBEF01F0D8903E
:10038000040104310001756FD89075330F0E751597
:10039000746FD5EF01F0D890040100310001756F42
:1003A000D89075330F0E7515746F7351D8A45FEF25
:1003B00002F00D0E745DD8A406EF02F0766B04EE29
:1003C00010F07651E926EF50606F04EEF8F07651A8
:1003D000E9266051EF6E762B080E765DD8A4DFEF2C
:1003E00001F06D98A6EC00F0300E0401F815000144
:1003F000756F7551D8A4FFEF01F001EF01F0200EE9
:10040000755DD8B41200400E755D1200090E745D62
:10041000D8A428EF02F0030E6E5DD8A412EF02F00C
:100420004FEF00F0060E6E5DD8A421EF02F06E6B68
:10043000010E6D5DD8A427EF02F06F516E6E6D6BEB
:100440001200050E6E5DD8B41200040E6E5D12002F
:10045000020E745DD8A43FEF02F0030E6E5DD8A4C7
:1004600034EF02F04FEF00F0040E6E5DD8B41200CE
:10047000060E6E5DD8A43EEF02F06E6B1200010E08
:10048000745DD8A40AEF03F0050E6E5DD8A44CEF9E
:1004900002F06E6BA6EF00F0020E6E5DD8A453EF73
:1004A00002F0A6EF00F0030E6E5DD8A45DEF02F03F
:1004B000A6EC00F000016E6B1200A6EF00F06CB429
:1004C0001200D8907335766FD8907637D8907637FB
:1004D000020E7625756F04EE00F07551E926EF5097
:1004E000776F030E7625756F04EE00F07551E926DF
:1004F000EF50786F7629756F04010D6B8D84205154
:10050000D8A48CEF02F0140E226F010E236F040E9C
:100510000D6FCD6A02EF03F0010E205DD8A4ABEFA2
:1005200002F0E6EC00F000017A6BA0EF02F00900A7
:1005300004EE25F000017A51E926F550EF6E7A2B92
:100540007A510401215DD8A497EF02F0050E212510
:100550000D6F02EF03F0020E205DD8A4D9EF02F078
:10056000840EA66EE6EC00F0F00EF6160001686B45
:10057000CFEF02F004EE25F000016851E926EF50BC
:10058000F56E0D000F0E6815796F0F0E795DD8A40A
:10059000CDEF02F00A00E0EC00F00001682B68519A
:1005A0000401215DD8A4BAEF02F0010E0D6F02EF35
:1005B00003F0030E205DD8A4F9EF02F0940EA66EAE
:1005C000E6EC00F000017A6BEFEF02F0E0EC00F0F7
:1005D000200EF626F650D8B4F72A00017A2B7A516D
:1005E0000401215DD8A4E6EF02F0010E0D6F02EFC9
:1005F00003F0FF0E205DD8A402EF03F0EDEC00F055
:1006000000EF04F00D51D8A4D7EC00F000017351B5
:10061000C0EF00F01200A1AA5AEF03F0A19A000166
:10062000726B68A617EF03F0B5EC01F06896000155
:10063000722B040E725DD8A411EF03F068A050EF86
:1006400003F06A6A686A6F6B716A726A736A746AC5
:10065000756A766A776A786A796A100E7A6E7B6A4A
:100660007C6A7D6A7E6A7F6A160E706E68A63CEFB1
:1006700003F0689636EF03F06E6B6D6B6D98080EA5
:100680000401056F180E066F040E076F046B080E49
:10069000016F100E026F040E036F8C0E006F6890D6
:1006A00068BA689A68B8689868BC689C68A25AEF8B
:1006B00003F06892120004EF04F011006D6A140E4A
:1006C0006F6E6B0E696EA09A686A6D6A6D86200EF9
:1006D00004010E6F040E0F6F310ECD6EF86A080E16
:1006E000F76E030EF66E0900FF0EF55CD8B4CD6A06
:1006F0000001706B0BEC03F09EA07AEF03F0000199
:10070000702B9E9084A488EF03F0719589EF03F01D
:10071000718571B58FEF03F08D9490EF03F08D84A8
:10072000DC0E705DD8B47AEF03F0D8A07AEF03F056
:08073000EDEC00F000EF04F015
:020000040030CA
:0E00000024CE3F1E0087E1000FC00FE00F402E
:00000001FF
